S00A0000496F542E733337DE
S3150800000000100020CD0D00088172000881720008DA
S3150800001081720008817200088172000881720008E6
S3150800002081720008817200088172000881720008D6
S3150800003081720008817200088172000881720008C6
S3150800004081720008817200088172000881720008B6
S31508000050F917000881720008817200088172000889
S315080000608172000881720008817200088172000896
S315080000708172000881720008817200088172000886
S3150800008081720008817200088D04000881720008D8
S315080000908172000881720008817200088172000866
S315080000A08172000881720008817200088172000856
S315080000B08172000881720008817200088172000846
S315080000C08172000881720008817200088172000836
S315080000D08172000881720008817200088172000826
S315080000E08172000881720008817200088172000816
S315080000F08172000881720008817200088172000806
S3150800010081720008817200088172000881720008F5
S3150800011081720008817200088172000881720008E5
S3150800012081720008817200088172000881720008D5
S3150800013081720008817200088172000881720008C5
S3150800014081720008817200088172000881720008B5
S3150800015081720008817200088172000881720008A5
S315080001608172000881720008817200088172000895
S31508000170013800D0FCE7704700B585B001AB2E49C1
S31508000180184607F03FFA019B184605F063FE26A3BA
S31508000190D3E9002305F0D8FE02460B461046194659
S315080001A023A3D3E9002305F0F9FF02460B461046C0
S315080001B0194606F0FBF803460393039805F06CFE10
S315080001C002460B464FF000001C4905F005FD0246A5
S315080001D00B46104619464FF00002184B05F0DEFF95
S315080001E002460B46104619464FF00002144B05F01E
S315080001F0ABFE02460B46104619464FF00002114B5D
S3150800020005F0A2FE02460B461046194606F0AEF861
S3150800021003469AB20C4B1A800B4B1B88184605B03E
S315080002205DF804FBAFF300806666666666660A409C
S315080002300000000000FEAF400040005900000840E2
S315080002400000594000002440C610002010B5054C97
S31508000250237833B9044B13B1044800E000BF0123E7
S31508000260237010BD8810002000000000D080000810
S3150800027008B5034B1BB10349034800E000BF08BD9E
S31508000280000000008C100020D0800008A3F5803AFA
S31508000290704700BF174B002B08BF134B9D46FFF74F
S315080002A0F5FF00218B460F461348144A121A07F029
S315080002B068FA0E4B002B00D098470D4B002B00D048
S315080002C098470020002104000D000D48002802D0A0
S315080002D00C4800E000BF06F05DFA2000290006F091
S315080002E042FF06F043FA00BF0000080000000000C5
S315080002F0000000000010002088100020D010002008
S31508000300000000000000000000B583B0034600911D
S315080003108DF807309DF80730002B14D09DF807306C
S31508000320012B0ED09DF80730022B07D09DF8073019
S31508000330032B01D13F2308E0002306E040F2FF33F8
S3150800034003E03F2301E040F2FF33009AD34003F075
S315080003500103002B04D140F2CF310B4806F09CFF75
S315080003609DF8072013465B0013441B0103F1140292
S31508000370064B13440099184606F088FD03461846AE
S3150800038003B05DF804FB00BF1C7A000830C00350B8
S3150800039000B583B0019006F086FD06F0A2FD03467F
S315080003A01A46274B1A7006F0CAFD03461A46254B0D
S315080003B01A7006F0C4FD03461A46234B1A7006F057
S315080003C0BEFD03461A46214B1A7006F0B8FD0346D1
S315080003D01A461F4B1A7006F0B2FD03469AB21D4B19
S315080003E01A801C4B1B881946164B1B781A46164B47
S315080003F01B781344154A12781344154A1278134485
S31508000400994217D1114B1B781B021AB2104B1B7855
S315080004101BB213431BB29AB2019B1A80094B1B7875
S315080004201B021AB2084B1B781BB213431BB29AB2B3
S31508000430019B5A8001F076F900BF03B05DF804FB12
S31508000440CC100020C8100020C9100020CA100020B7
S31508000450CB100020C410002082B003468DF8073068
S315080004609DF90730002B0CDB9DF8073003F01F02BF
S3150800047005499DF907305B09012000FA02F241F8A7
S31508000480232000BF02B0704700E100E000B595B038
S315080004904FF0B24006F0B9FD129012994FF0B240F3
S315080004A006F09BFD00F082FAFFF766FE0346ADF8FC
S315080004B046300EAB1846FFF76BFFBDF83830ADF87F
S315080004C04430BDF83A30ADF842307F497F4806F0EF
S315080004D0EEFD7D4B1B88ADF840300AA9BDF84230C9
S315080004E00422184600F0E8FA0DA9BDF846300422A1
S315080004F0184600F0E1FA0BA9BDF844300422184664
S3150800050000F0DAFA0CA9BDF840300422184600F0CB
S31508000510D3FA05AB00221A605A609A60DA601A7438
S315080005206B4B1B788DF81430694B5B788DF815305A
S31508000530674B9B788DF81630654BDB788DF817304E
S315080005409DF834308DF818309DF835308DF819300F
S315080005509DF836308DF81A309DF82C308DF81B3002
S315080005609DF82D308DF81C309DF82E308DF81D30F5
S315080005709DF828308DF81E309DF829308DF81F30EB
S315080005809DF82A308DF820309DF830308DF82130CE
S315080005909DF831308DF822309DF832308DF82330B1
S315080005A005AB1121184606F0E9FD03468DF83F30E4
S315080005B06B4600221A605A609A60DA601A82444BC7
S315080005C01B788DF80030424B5B788DF80130404B34
S315080005D09B788DF802303E4BDB788DF803309DF81A
S315080005E034308DF804309DF835308DF805309DF897
S315080005F036308DF806309DF82C308DF807309DF88A
S315080006002D308DF808309DF82E308DF809309DF87C
S3150800061028308DF80A309DF829308DF80B309DF872
S315080006202A308DF80C309DF830308DF80D309DF855
S3150800063031308DF80E309DF832308DF80F309DF838
S315080006403F308DF810306B461121184600F00EFA2F
S31508000650204B139300238DF83E30139B013B1393D5
S315080006601D4B9B6903F08003002B18D01A4B5B6A5D
S315080006708DF83E309DF83E30312B20D09DF83E3027
S31508000680302BEAD100F0B6FF6B461121184600F070
S31508000690EDF9962001F062F801F044F810E0139B9A
S315080006A0002BDAD100F0A6FF6B461121184600F0A0
S315080006B0DDF9962001F052F801F034F800E000BFA9
S315080006C000BF15B05DF804FB78100020CD1000209F
S315080006D0A410002080C3C90100C0055000B583B02E
S315080006E0034600918DF807309DF80730002B14D08B
S315080006F09DF80730012B0ED09DF80730022B07D046
S315080007009DF80730032B01D13F2308E0002306E0BC
S3150800071040F2FF3303E03F2301E040F2FF33009A43
S31508000720D34003F00103002B04D140F2CF310B482C
S3150800073006F0B2FD9DF8072013465B0013441B0123
S3150800074003F11402064B13440099184606F0C8FC38
S315080007500346184603B05DF804FB00BF6C7A000830
S3150800076030C0035000B583B0034600918DF80730BA
S315080007709DF80730002B14D09DF80730012B0ED0BA
S315080007809DF80730022B07D09DF80730032B01D1BF
S315080007903F2308E0002306E040F2FF3303E03F234F
S315080007A001E040F2FF33009AD34003F00103002B27
S315080007B004D14FF489610A4806F06EFD09489DF890
S315080007C007200121009B994013465B0013441B0137
S315080007D0034403F54153196000BF03B05DF804FBF9
S315080007E0BC7A000800C0035010B584B0304A02AB8A
S315080007F092E8030018600433198002AB06211846F4
S3150800080000F034F900238DF80F3010E09DF80F4002
S31508000810284806F048FF03461A4604F110036B44BD
S3150800082003F80C2C9DF80F3001338DF80F309DF826
S315080008300F30032BEAD99DF80430312B21D19DF8CE
S315080008400530312B1DD19DF806201B4B1A709DF8DB
S315080008500720194B5A70184B17229A70164B3122DB
S31508000860DA7002210120FFF77DFF00F0C3FE13486E
S3150800087000F074FF02210120FFF774FF00F052FF19
S3150800088012E09DF80430312B0ED19DF80530302B3F
S315080008900AD104210120FFF765FF00F0ABFE0748E7
S315080008A000F05CFF03F092F800BF04B010BD00BF73
S315080008B00C7B000800C00550A4100020C0C62D00FF
S315080008C030B593B001212A2001F094F90FAB00222C
S315080008D01A605A609A6000222F49304804F060FA7C
S315080008E003468DF841302E4B05AC1D460FCD0FC47F
S315080008F00FCD0FC495E8030084E8030003AB00227C
S315080009001A605A6003238DF80E3001238DF80830DB
S3150800091000238DF8093000238DF80A3000238DF85E
S315080009200B301E4804F036F903238DF8183040F6CC
S31508000930E44308939DF841300093002300221949A7
S31508000940164804F073FA0346079304238DF8153006
S3150800095004238DF8243000238DF8113085238DF873
S31508000960093001238DF8083005AA0FAB19460B4844
S3150800097003F08AFB02AA03AB1946084804F062F89A
S31508000980094BD3F82033084A43F48033C2F820339E
S3150800099000BF13B030BD00BF002D31010040005923
S315080009A0147B00088096980000C0035000B583B0F9
S315080009B001210B4806F0CEFB0023ADF8063004E013
S315080009C0BDF806300133ADF80630BDF80630B3F58C
S315080009D0487FF5D300BF00BF03B05DF804FB00BF36
S315080009E00040005930B589B001213A2001F002F9DA
S315080009F00121292001F0FEF8002304220821002005
S31508000A0003F094FA002301220421002003F08EFA51
S31508000A10012304220021012003F088FA104B01ACBF
S31508000A201D460FCD0FC495E8070084E807004FF46C
S31508000A30165303930B4B4FF40022C3F83827094B80
S31508000A404FF48022C3F83027064B1422C3F8202718
S31508000A5001AB1946044804F023FE00BF09B030BDB7
S31508000A603C7B000800C0035000C0055000B585B0A7
S31508000A7001900B468DF8033000238DF80F300DE0FA
S31508000A809DF80F30019A13441B781946094806F059
S31508000A9036FE9DF80F3001338DF80F309DF80F2084
S31508000AA09DF803309A42EBD300BF00BF05B05DF84E
S31508000AB004FB00BF00C0055000B585B0034602918F
S31508000AC00192ADF80E300199BDF80E30034A02982E
S31508000AD005F084FE00BF05B05DF804FB587B0008EE
S31508000AE008B506F058FC294B1B6F23F00703274A65
S31508000AF043F00203136706F05BFC244BD3F820315E
S31508000B0023F00703214A43F00103C2F820311F4BA3
S31508000B10D3F8283123F007031C4A43F00103C2F82F
S31508000B2028311A4BD3F8403123F00303174A43F010
S31508000B300203C2F84031154BD3F8603123F00303A2
S31508000B40124A43F00203C2F86031104BD3F8403220
S31508000B5023F003030D4A43F00203C2F840320B4B5D
S31508000B60D3F8003223F00703084A43F00203C2F819
S31508000B700032064BD3F8083223F00703034A43F042
S31508000B800203C2F808320023184608BD0080005048
S31508000B9000B583B0034600918DF807309DF80730FD
S31508000BA0002B14D09DF80730012B0ED09DF8073086
S31508000BB0022B07D09DF80730032B01D13F2308E00D
S31508000BC0002306E040F2FF3303E03F2301E040F252
S31508000BD0FF33009AD34003F00103002B04D140F2FF
S31508000BE0FE310A4806F058FB09489DF807200121FE
S31508000BF0009B994013465B0013441B01034403F50D
S31508000C000153196000BF03B05DF804FB607B000860
S31508000C1000C0035000B583B0034600918DF8073035
S31508000C209DF80730002B14D09DF80730012B0ED005
S31508000C309DF80730022B07D09DF80730032B01D10A
S31508000C403F2308E0002306E040F2FF3303E03F239A
S31508000C5001E040F2FF33009AD34003F00103002B72
S31508000C6004D140F22D410A4806F016FB09489DF8C2
S31508000C7007200121009B994013465B0013441B0182
S31508000C80034403F58253196000BF03B05DF804FB03
S31508000C90607B000800C0035030B589B0454B01ACF5
S31508000CA01D460FCD0FC495E8070084E8070001210B
S31508000CB03A2000F09FFF0121292000F09BFF012325
S31508000CC08DF812303C4B039301AB19463B4804F0B0
S31508000CD081FD012304220121022003F027F90023C4
S31508000CE001220221022003F021F901230422032113
S31508000CF0022003F01BF9012304220421022003F039
S31508000D0015F92F4B2F4AC3F834272D4B4FF00212F3
S31508000D10C3F830272A4B2C4AC3F83827284B1C22FD
S31508000D20C3F820274FF4487004F012FF06F09AFA29
S31508000D30142004F00DFF06F09CFA232004F008FFA7
S31508000D4006F090FAB9211D4806F0BCFC06F091FAA7
S31508000D50002300220121022003F0E8F800230022E4
S31508000D600221022003F0E2F80123002203210220D7
S31508000D7003F0DCF8012300220421022003F0D6F850
S31508000D800E4804F0ABFD0E4B0022C3F834270C4B7B
S31508000D900022C3F830270A4B0022C3F83827084B2D
S31508000DA00022C3F820270021292000F023FF00BFD6
S31508000DB009B030BDB07B000800127A0000C00550AB
S31508000DC000C00350020003000200010000B585B010
S31508000DD000F07EF81F4B039319E0002302930EE000
S31508000DE0039B1A68029B9B001A44039B5968029B43
S31508000DF09B000B4412681A60029B01330293039B03
S31508000E009B68029A9A42EBD3039B0C330393039B8A
S31508000E10114A9342E1D3114B019314E00023009346
S31508000E2009E0019B1A68009B9B00134400221A6084
S31508000E30009B01330093019B5B68009A9A42F0D3AA
S31508000E40019B08330193019B054A9342E6D3FFF7BA
S31508000E5021FA00BFD8800008E4800008E480000872
S31508000E60E480000882B003468DF807309DF9073004
S31508000E70002B0CDB9DF8073003F01F0205499DF98E
S31508000E8007305B09012000FA02F241F8232000BF6F
S31508000E9002B0704700E100E082B003468DF80730E3
S31508000EA09DF90730002B0DDB9DF8073003F01F0274
S31508000EB006499DF907305B09012000FA02F2603302
S31508000EC041F8232000BF02B0704700BF00E100E0F0
S31508000ED008B51D4B1D4A9A601B4BD3F888301A4A31
S31508000EE043F47003C2F88830194B03F580531A4649
S31508000EF04FF480439366174B03F500531A464FF099
S31508000F00FF331366134B03F500531A46124B536609
S31508000F10124B02221A60BFF34F8F00BFBFF36F8FC9
S31508000F2000BF0020FFF7B8FF0A4B03F500531A4627
S31508000F304FF44033D3600020FFF794FF054B4FF47E
S31508000F4040321A6100BF08BD00ED00E0000000084D
S31508000F500080005000800044F7FF3700D0ED00E025
S31508000F60014B1B68184670470810002082B0019094
S31508000F70024A019B136000BF02B0704708100020A8
S31508000F8000B583B0002301930E4B1B6F03F00703D4
S31508000F90032B09D0032B0ED8012B09D0022B0AD11B
S31508000FA0FFF7DEFF019007E0074B1B68019303E09C
S31508000FB0064B019300E0FEE7019B184603B05DF877
S31508000FC004FB00BF0080005000100020002D3101F6
S31508000FD000B583B0FFF7D4FF01900A4B1B6F1B0BBC
S31508000FE003F00F030093009B0133019AB2FBF3F35E
S31508000FF00193054A019B1360019B184603B05DF8EF
S3150800100004FB00BF008000500C100020014B18465E
S31508001010704700BF00B4C404014B1B6818467047EC
S315080010200010002000B583B00190074A019B1360A9
S31508001030064B1B6F03F00703032B01D1FFF7C8FF0D
S3150800104000BF03B05DF804FB0010002000800050CC
S31508001050014B1846704700BF002D310182B00023AE
S3150800106001934FF0B4439B681B0C03F01F030C2B32
S315080010704CD801A252F823F0AD1000080D11000853
S315080010800D1100080D1100080D1100080D110008BA
S31508001090E9100008EF100008F51000080D11000807
S315080010A0FB10000801110008071100084FF0B443AF
S315080010B09B6803F04073B3F1007F0ED0B3F1007F55
S315080010C00ED8002B03D0B3F1807F03D008E0124B73
S315080010D0019308E0114B019305E0114B019302E0DF
S315080010E00023019300BF12E00E4B01930FE00E4B55
S315080010F001930CE00D4B019309E00D4B019306E0BB
S315080011000C4B019303E00C4B019300E000BF019BDD
S31508001110184602B0704700BF00093D0080841E00D3
S3150800112040420F00405DC6000024F400C0EA2101D9
S3150800113080BA8C010048E801005A6202014B1B681C
S31508001140184670470410002084B001900B4B1A68AB
S31508001150019B13440A4A934202D94FF0FF3309E030
S31508001160064B1B680393054B1A68019B1344034AF5
S315080011701360039B184604B0704700BF1010002088
S315080011800000042000B587B0039002910192029BEB
S315080011901F2B03D991210C4806F07EF8019B002BE2
S315080011A004D0039B03F58053059303E0039B03F5E3
S315080011B000530593059B0121029A01FA02F21A606F
S315080011C000BF07B05DF804FBCC7B000800B585B00E
S315080011D003468DF807309DF80730002B01D0012310
S315080011E000E000230393039A00210348FFF7CAFF90
S315080011F000BF05B05DF804FB44C4035000B585B0D4
S31508001200002303930023ADF80A300023ADF8083015
S315080012100023019301213A2000F0ECFC012304226B
S315080012200321002002F082FE019806F063F90120EE
S31508001230FFF7CCFF474B03F580531A464FF40023BC
S315080012405366454BDB6803F08073002B14BF0123FC
S3150800125000238DF803309DF80330002B05D03E4B54
S31508001260DB683D4A23F08073D3603A4BD3F880306D
S3150800127023F00303374A43F00203C2F880309DF88F
S315080012800330002B05D0344BDB68334A43F08073B8
S31508001290D3604FF4607000F0E7FC03902E4B1B6898
S315080012A02D4A43F0010313602B4BDB682A4A43F0AF
S315080012B08073D3600123ADF80A300F23ADF80830E8
S315080012C0BDF80A305B021A46BDF808305B001A43BF
S315080012D02249234B13430B60039B03F5D52303F2E3
S315080012E0FC43DB081F4AA2FB03239B0A1E4A013B59
S315080012F013611D4B0222C3F8F0201B4B4FF480727A
S31508001300C3F804234FF06043184AC3F8B02F4FF0D0
S315080013106043174AC3F8802E4FF06043D3F8003E67
S315080013204FF0604243F48073C2F8003E4FF06043CA
S31508001330FF2283F820204FF06043D3F8003E4FF099
S31508001340604223F48073C2F8003E0023184605B0B5
S315080013505DF804FB00800050F0ED00E0001000E0AE
S31508001360E101004017916502000004E055CEACC5C6
S315080013700900010082B003468DF807309DF9073051
S31508001380002B0CDB9DF8073003F01F0205499DF979
S3150800139007305B09012000FA02F241F8232000BF5A
S315080013A002B0704700E100E082B003468DF80730CE
S315080013B09DF90730002B13DB9DF8073003F01F0259
S315080013C009499DF907305B09012000FA02F220332A
S315080013D041F82320BFF34F8F00BFBFF36F8F00BFC5
S315080013E000BF02B0704700BF00E100E082B00346CC
S315080013F08DF807309DF90730002B0DDB9DF8073077
S3150800140003F01F0206499DF907305B09012000FA1F
S3150800141002F2603341F8232000BF02B0704700BFD4
S3150800142000E100E082B00190019B0E4A93420FD082
S31508001430019B0D4A93420BD0019B0C4A934207D05D
S31508001440019B0B4A934203D0019B0A4A934201D15E
S31508001450012300E0002303F00103DBB2184602B0C3
S31508001460704700BF0080045000C0045000000550BB
S31508001470004005500080055000B583B00190019BDF
S31508001480334A934214D0019B324A934210D0019BAF
S31508001490314A93420CD0019B304A934208D0019BB3
S315080014A02F4A934204D040F2BE212E4805F0F4FE9E
S315080014B0019B274A934245D0019B254A934203D074
S315080014C0019B244A93423AD0019B214A934207D072
S315080014D0019B204A934203D0019B1F4A93422BD07B
S315080014E0019B1B4A93420BD0019B1A4A934207D091
S315080014F0019B194A934203D0019B184A934218D07C
S31508001500019B134A934212D0019B124A93420ED072
S31508001510019B114A93420AD0019B104A934206D076
S31508001520019B0F4A934202D14FF6FF730CE000234A
S315080015300AE04FF6FF7307E04FF6FF7304E04FF03B
S31508001540FF3301E04FF0FF33184603B05DF804FBA4
S315080015500080045000C004500000055000400550AB
S31508001560008005501C7C000800B583B001900B462E
S315080015708DF803300198FFF755FF0346002B04D179
S3150800158040F26E31084805F087FE9DF80330002BBF
S3150800159003D0019B0122DA6002E0019B0222DA6095
S315080015A000BF03B05DF804FB1C7C000800B583B0DF
S315080015B0019000910198FFF75FFF0246009B934256
S315080015C004D94FF494610A4805F066FE019B1B6B2B
S315080015D003F00103002B04D140F2A241044805F0B0
S315080015E05BFE019B009ADA6100BF03B05DF804FB5D
S315080015F01C7C00082DE9F04F8BB005AB00221A6061
S315080016005A609A60DA6001238DF8143001AB002223
S315080016101A605A609A601A7302238DF80A300121FB
S31508001620242000F0E7FA01AB1A460021354803F0FA
S315080016309DFE4FF6FF713348FFF7B8FF0023ADF85C
S31508001640163005AB19462F4803F0F8FD4FF48060B5
S3150800165000F00AFB03462C4A13602B4B1B68BDF8A7
S3150800166016200132B3FBF2F3274A1360BDF8163091
S3150800167001339BB2ADF81630BDF81630B3F5806F5E
S3150800168004D2214B1B68214A9342DAD8002000F085
S31508001690EBFA03461E4AB2FBF3F309931A4B1B688F
S315080016A0002298469146099B00221E46174606FBCD
S315080016B009F208FB07F31344A8FB06452B441D460D
S315080016C0144B14EB030A45F1000B134A4FF00003C1
S315080016D05046594604F0BAFE02460B460F4B1A60AE
S315080016E00F4B00221A701021064805F013FE04203D
S315080016F0FFF77CFE0420FFF73DFE002318460BB0DB
S31508001700BDE8F08F00800450AC10002080841E00D5
S3150800171000B0710B20A1070040420F00B010002056
S31508001720CE10002008B50420FFF73EFE10210A4817
S3150800173005F0F0FD1021084805F0E0FD0420FFF74C
S3150800174055FE00210448FFF70FFF0021242000F072
S3150800175051FA0023184608BD008004502DE9F04FC1
S3150800176085B001902049096800200E460746019970
S3150800177000200C46054604FB07F006FB05F101446C
S31508001780A6FB042319440B46184912EB010A43F138
S31508001790000B174A4FF000035046594604F056FE10
S315080017A002460B46CDE902230CE04FF6E85000F05E
S315080017B03DF8DDE902230F4912EB010843F1FF3931
S315080017C0CDE90289DDE902234FF6E9518A4273F130
S315080017D00003EAD2BDF80830184600F027F80023BF
S315080017E0184605B0BDE8F08FAC10002020A1070010
S315080017F040420F001802FFFF00B583B0094805F004
S3150800180096FD0190019B03F01003002B06D01021D2
S31508001810044805F073FD044B01221A7000BF03B09B
S315080018205DF804FB00800450CE10002000B585B09A
S315080018300346ADF80630BDF80630002B17D00E4823
S3150800184005F055FD0346ADF80E300B4805F04FFD83
S3150800185003469BB2ADF80C30BDF80C309AB2BDF811
S315080018600E30D31A9BB2BDF806209A42EDD800BFB7
S3150800187005B05DF804FB00BF0080045000B587B0D2
S31508001880039002910192029B1F2B03D991210C48C8
S3150800189005F002FD019B002B04D0039B03F5805342
S315080018A0059303E0039B03F500530593059B01216C
S315080018B0029A01FA02F21A6000BF07B05DF804FB4B
S315080018C06C7C000808B500BF0421044805F03CFDFF
S315080018D00346002BF8D100BF00BF08BD8440005066
S315080018E008B5FFF7EFFF044BD3F884309B0903F0E4
S315080018F00303DBB2184608BD00400050054BDB6900
S3150800190003F48033002B14BF01230023DBB21846EF
S31508001910704700BF00000350024B0022DA6300BF85
S31508001920704700BF00000350024B41F67132DA637C
S3150800193000BF704700000350014B5B6818467047AC
S315080019400000035082B00190024A019B536000BF19
S3150800195002B070470000035000B585B0019000231F
S315080019600393019BB3F5607F35D0019BB3F5607F88
S3150800197059D8019BB3F5207F4ED0019BB3F5207F44
S3150800198051D8019BB3F5007F3ED0019BB3F5007F8C
S3150800199049D8019B002B03D0019BB3F5C07F42D1E8
S315080019A0264B1B6F1B0B03F00F030393039B002BA4
S315080019B03BD0039B012B38D0039B032B35D0039BCD
S315080019C0072B32D0039B0F2B2FD040F275211C48D2
S315080019D005F062FC29E0194BD3F880301B0903F0A7
S315080019E003030393039B002B21D0039B012B1ED0DB
S315080019F0039B022B1BD0039B032B18D040F2852197
S31508001A000F4805F049FC12E00C4BD3F890301B0E3A
S31508001A1003F01F0303930BE0084B1B6F9B0A03F0AD
S31508001A200103039304E000BF02E000BF00E000BF2B
S31508001A30039B0133184605B05DF804FB008000508F
S31508001A40BC7C000810B584B001900091019BB3F5E9
S31508001A50607F54D0019BB3F5607F00F2BA80019B8A
S31508001A60B3F5207F00F09F80019BB3F5207F00F23D
S31508001A70B080019BB3F5007F7DD0019BB3F5007F55
S31508001A8000F2A780019B002B04D0019BB3F5C07F11
S31508001A9040F09F80009B012B10D0009B022B0DD09D
S31508001AA0009B042B0AD0009B082B07D0009B102B09
S31508001AB004D040F2B6214C4805F0EEFB05F0ABFC2D
S31508001AC005F0A1FC01F0A4FA484B1B6F23F4704201
S31508001AD0009B013B1B03454913430B6705F02EFC8E
S31508001AE00446FFF7FDFE0346C3F1020319462046E6
S31508001AF005F075FC01F0B6FD01F096FA70E03C4B76
S31508001B00DB6803F08073002B14BF012300238DF8D4
S31508001B100F309DF80F30002B05D0354BDB68344A63
S31508001B2023F08073D360009B012B0DD0009B022B02
S31508001B300AD0009B032B07D0009B042B04D04FF43C
S31508001B403871294805F0A8FB284BD3F8803023F0D4
S31508001B503002009B013B1B0124491343C1F8803026
S31508001B609DF80F30002B3AD0214BDB68204A43F012
S31508001B708073D36033E0009B002B02D0009B202BA0
S31508001B8004D940F2F321184805F086FB174BD3F821
S31508001B90903023F0F852009B013B1B061349134370
S31508001BA0C1F890301CE0009B012B07D0009B022B4C
S31508001BB004D040F2F9210C4805F06EFB0B4B1B6F65
S31508001BC023F48062009B013B9B02084913430B6781
S31508001BD006E040F2FF21044805F05EFB00E000BF86
S31508001BE000BF04B010BD00BFBC7C000800800050D8
S31508001BF0F0ED00E000B585B001900B468DF8033096
S31508001C0000230393019B5B09002B05D14FF4477111
S31508001C10124805F041FB12E0019B5B09012B02D13A
S31508001C200F4B03930BE0019B5B09022B02D10D4B73
S31508001C30039304E040F22631084805F02DFB019B8A
S31508001C4003F01F0302939DF803301A46029903987E
S31508001C50FFF714FE00BF05B05DF804FBBC7C000866
S31508001C60648000506880005010B584B0019000234D
S31508001C70039300230293019BB3F5486F00F0298371
S31508001C80019BB3F5486F00F23683019BB3F5406FAD
S31508001C9000F0EF82019BB3F5406F00F22C83019BA5
S31508001CA0B3F5286F00F01B83019BB3F5286F00F28C
S31508001CB02283019BB3F5206F00F00583019BB3F5E2
S31508001CC0206F00F21883019BB3F5106F00F0EF82C6
S31508001CD0019BB3F5106F00F20E83019BB3F5F06F0D
S31508001CE000F00383019BB3F5F06F00F20483019BB8
S31508001CF0B3F5E06F00F0E182019BB3F5E06F00F207
S31508001D00FA82019BB3F5D06F00F0CB82019BB3F545
S31508001D10D06F00F2F082019BB3F5C06F00F0BB8272
S31508001D20019BB3F5C06F00F2E682019BB3F5B06F75
S31508001D3000F0A582019BB3F5B06F00F2DC82019B2F
S31508001D40B3F5A06F00F08F82019BB3F5A06F00F288
S31508001D50D282019BB3F5806F00F07F82019BB3F5B9
S31508001D60806F00F2C882019BB3F5607F00F066823F
S31508001D70019BB3F5607F00F2BE82019BB3F5407FFD
S31508001D8000F04F82019BB3F5407F00F2B482019BBD
S31508001D90B3F5207F00F03982019BB3F5207F00F26E
S31508001DA0AA82019BB3F5007F00F02382019BB3F55D
S31508001DB0007F00F2A082019BB3F5807F00F20A82C1
S31508001DC0019BB3F5807F00F2968201A252F823F0B8
S31508001DD0E9210008F7220008F7220008F722000880
S31508001DE0F7220008F7220008F7220008F722000861
S31508001DF0F7220008F7220008F7220008F722000851
S31508001E00F7220008F7220008F7220008F722000840
S31508001E10F7220008F7220008F7220008F722000830
S31508001E20F7220008F7220008F7220008F722000820
S31508001E30F7220008F7220008F7220008F722000810
S31508001E40F7220008F7220008F7220008F722000800
S31508001E50E92100080B220008E92100080B220008E6
S31508001E605B2200085B2200085B2200085B22000850
S31508001E705B2200080B2200087F22000823220008A4
S31508001E8097220008A3220008232200080B22000834
S31508001E900B2200080B220008F7220008F722000888
S31508001EA0F7220008F7220008F7220008F7220008A0
S31508001EB0F7220008F72200080B2200080B22000868
S31508001EC00B220008EB220008BB2200080B220008A0
S31508001ED0F7220008F7220008F7220008F722000870
S31508001EE0F7220008F7220008F7220008F722000860
S31508001EF0F7220008F7220008F7220008F722000850
S31508001F00F72200085B220008E9210008E9210008F9
S31508001F10E9210008AF22000823220008232200082E
S31508001F20C7220008DF22000867220008732200087B
S31508001F30F7220008F7220008F7220008F72200080F
S31508001F40F7220008D3220008E9210008F722000832
S31508001F50F7220008F7220008F7220008F7220008EF
S31508001F60F7220008F7220008F7220008F7220008DF
S31508001F70F7220008F7220008F7220008F7220008CF
S31508001F80F7220008F7220008F7220008F7220008BF
S31508001F90F7220008F7220008F7220008F7220008AF
S31508001FA0F7220008F7220008F7220008F72200089F
S31508001FB0F7220008F7220008F7220008F72200088F
S31508001FC0F7220008F7220008F7220008F72200087F
S31508001FD0DF210008F7220008F7220008F722000888
S31508001FE0F7220008F7220008F7220008F72200085F
S31508001FF0F7220008F7220008F7220008F72200084F
S31508002000F7220008F7220008F7220008F72200083E
S31508002010F7220008F7220008F7220008F72200082E
S31508002020F7220008F7220008F7220008F72200081E
S31508002030F7220008F7220008F7220008F72200080E
S31508002040F7220008F7220008F7220008F7220008FE
S31508002050F7220008F7220008F7220008F7220008EE
S31508002060F7220008F7220008F7220008F7220008DE
S31508002070F7220008F7220008F7220008F7220008CE
S31508002080F7220008F7220008F7220008F7220008BE
S31508002090F7220008F7220008F7220008F7220008AE
S315080020A0F7220008F7220008F7220008F72200089E
S315080020B0F7220008F7220008F7220008F72200088E
S315080020C0F7220008F7220008F7220008F72200087E
S315080020D0F7220008F7220008F7220008F72200086E
S315080020E0F7220008F7220008F7220008F72200085E
S315080020F0F7220008F7220008F7220008F72200084E
S31508002100F7220008F7220008F7220008F72200083D
S31508002110F7220008F7220008F7220008F72200082D
S31508002120F7220008F7220008F7220008F72200081D
S31508002130F7220008F7220008F7220008F72200080D
S31508002140F7220008F7220008F7220008F7220008FD
S31508002150F7220008F7220008F7220008F7220008ED
S31508002160F7220008F7220008F7220008F7220008DD
S31508002170F7220008F7220008F7220008F7220008CD
S31508002180F7220008F7220008F7220008F7220008BD
S31508002190F7220008F7220008F7220008F7220008AD
S315080021A0F7220008F7220008F7220008F72200089D
S315080021B0F7220008F7220008F7220008F72200088D
S315080021C0F7220008F7220008F7220008F72200087D
S315080021D08B220008019BB3F5C07F05D08BE0FEF784
S315080021E0CFFE034603938CE0FEF7F2FE0346039305
S315080021F087E0FEF7C5FE04464FF40070FFF7ACFB18
S315080022000346B4FBF3F303937BE0FEF7E1FE0446D3
S315080022104FF42070FFF7A0FB0346B4FBF3F30393D8
S315080022206FE0FEF7D5FE04464FF42070FFF794FBE7
S315080022300346B4FBF3F35B08039362E002AB0021A9
S31508002240184600F007FF029C4FF46070FFF784FB06
S315080022500346B4FBF3F3039353E003AB002118469C
S3150800226000F084FF4DE003AB0021184600F03AFD6C
S3150800227047E003AB0021184600F08AFD41E003ABB6
S315080022800021184601F0A8F93BE003AB00211846E7
S3150800229001F0F4FA35E003AB0021184600F0C8FF58
S315080022A02FE003AB0021184601F040FA29E003AB02
S315080022B00021184601F08EFA23E003AB00211846E8
S315080022C001F0EAF91DE003AB0021184600F0BEFD57
S315080022D017E003AB0021184600F00CFE11E003AB33
S315080022E00021184600F05AFE0BE003AB0021184601
S315080022F000F0E8FF05E040F27941044804F0CCFF1D
S3150800230000BF039B184604B010BD00BFBC7C000884
S3150800231000B585B0019000230393019BB3F5486F80
S3150800232000F0CD81019BB3F5486F00F2D481019B83
S31508002330B3F5406F00F0B181019BB3F5406F00F231
S31508002340CA81019BB3F5286F00F0BF81019BB3F5E5
S31508002350286F00F2C081019BB3F5206F00F0A981B8
S31508002360019BB3F5206F00F2B681019BB3F5106FA0
S3150800237000F07B81019BB3F5106F00F2AC81019BE5
S31508002380B3F5086F00F07781019BB3F5086F00F28B
S31508002390A281019BB3F5F06F00F05B81019BB3F559
S315080023A0F06F00F29881019BB3F5E06F00F07B8136
S315080023B0019BB3F5E06F00F28E81019BB3F5D06FF8
S315080023C000F04D81019BB3F5D06F00F28481019B2B
S315080023D0B3F5C06F00F03781019BB3F5C06F00F20B
S315080023E07A81019BB3F5B06F00F01B81019BB3F5B1
S315080023F0B06F00F27081019BB3F5A06F00F04781C2
S31508002400019BB3F5A06F00F26681019BB3F5806F5F
S3150800241000F00D81019BB3F5806F00F25C81019B92
S31508002420B3F5607F00F02D81019BB3F5607F00F264
S315080024305281019B802B00F2C780019B242BC0F0A0
S315080024404A81019B243B5C2B00F2458101A252F88C
S3150800245023F000BF2F2600082F2600082F26000885
S315080024602F2600082F260008D7260008232600084E
S31508002470D7260008472600085F260008D726000842
S31508002480D7260008D7260008D7260008D72600082A
S31508002490D7260008D7260008D7260008D72600081A
S315080024A0D7260008D7260008D7260008D72600080A
S315080024B0D7260008D726000853260008A7260008AE
S315080024C0D7260008D7260008D7260008D7260008EA
S315080024D0D7260008D7260008D7260008D7260008DA
S315080024E0D7260008D7260008D7260008D7260008CA
S315080024F0D7260008D72600082F260008D726000862
S31508002500D7260008D72600086B260008D726000815
S31508002510D7260008B3260008CB2600088F26000811
S315080025209B260008D7260008D7260008D7260008C5
S31508002530D7260008D7260008BF260008D726000891
S31508002540D7260008D7260008D7260008D726000869
S31508002550D7260008D7260008D7260008D726000859
S31508002560D7260008D7260008D7260008D726000849
S31508002570D7260008D7260008D7260008D726000839
S31508002580D7260008D7260008D7260008D726000829
S31508002590D7260008D7260008D7260008D726000819
S315080025A0D7260008D7260008D7260008D726000809
S315080025B0D7260008D7260008D7260008D7260008F9
S315080025C0D7260008D3250008019BB3F5807F34D0B1
S315080025D081E0464B1B6F03F00703013B032B17D81B
S315080025E001A252F823F000BF0B260008F9250008BF
S315080025F0FF250008052600080523039310E003239A
S3150800260003930DE0082303930AE00223039307E0EC
S315080026100023039340F2AB41354804F03DFE00BF6A
S315080026205FE003AB1946002000F0D6FF59E003AB84
S315080026301946002000F09AFD53E003AB1946002026
S3150800264001F01CF94DE003AB1946002000F0F0FD3F
S3150800265047E003AB1946002000F034FE41E003AB27
S315080026601946002001F062F83BE003AB194600204A
S3150800267001F0B0F835E003AB1946002000F02CFD58
S315080026802FE003AB1946002000F0E4FC29E003AB79
S315080026901946002000F026FB23E003AB194600206C
S315080026A000F076FB1DE003AB1946002000F0F4FFAE
S315080026B017E003AB1946002000F0C8FB11E003AB96
S315080026C01946002000F016FC0BE003AB1946002063
S315080026D000F064FC05E040F25A51054804F0DCFDC0
S315080026E000BF039B184605B05DF804FB0080005048
S315080026F0BC7C000800B589B00190019800F08EFEF8
S315080027000790079B002B03D0079BB3F1FF3F04D12B
S3150800271040F69E114F4804F0BFFD4F4B03F580531A
S315080027201A464FF4C02353664C4B5B68012B0CD1F9
S315080027304A4B03F500531A460123536000BF474B23
S315080027405B6803F00203002BF9D18020FFF7E0FD58
S315080027500346052B05D104F05EFE04F054FE00F096
S3150800276057FC079B23F040730793019B3C4A93420F
S3150800277004D0019B3B4A934205D009E0079B43F0EE
S315080027800073079304E0079B43F08073079300BF29
S31508002790FEF7E6FB0690019A069B9A4203D90121A9
S315080027A0019801F065F900BF2F4BDB6803F00603BB
S315080027B0002BF9D12C4B9B6805932B4A079B9360FA
S315080027C0079B03F4F8130493274B9B6803F4F81349
S315080027D00393049A039B9A4204D040F6E6111D48D7
S315080027E004F05AFD049A039B9A4203D10198FEF716
S315080027F0BDFB04E01C4A059B9360069B0193802061
S31508002800FFF786FD0346052B18D104F097FD0290C5
S31508002810029A019B9A4204D940F6F7110D4804F032
S315080028203BFDFFF75DF80346C3F10203194602981C
S3150800283004F0D5FD00F016FF00F0F6FB019A069BA2
S315080028409A4203D80121002001F012F900BF09B00D
S315080028505DF804FBBC7C00080080005000C00150F5
S3150800286040420F0080841E000000015000B585B06C
S315080028700190019B1B680F2B04D940F646319648F8
S3150800288004F00AFD019B5B680F2B04D940F6493119
S31508002890914804F001FD019B9B680F2B04D940F673
S315080028A04C318D4804F0F8FC019B1B7B0F2B04D997
S315080028B040F64F31884804F0EFFC019B5B7B0F2BF9
S315080028C004D940F65231844804F0E6FC019B9B7B10
S315080028D03F2B04D940F655317F4804F0DDFC019BB7
S315080028E0DB7B3F2B04D940F658317B4804F0D4FCF7
S315080028F0019B1B69032B04D940F65B31764804F02B
S31508002900CBFC019B5B69032B04D940F65E31724808
S3150800291004F0C2FC019BDB69032B04D940F6613144
S315080029206D4804F0B9FC8020FFF7F2FC0346032B40
S3150800293000F01881694B03F580531A464FF480134B
S315080029405366674B45F60E02C3F88020644B03F5C1
S3150800295080531A464FF0A0639362614B03F5005308
S315080029601A464FF48033936200BF5D4B9B6D03F4A8
S315080029708033002BF9D100BF594B9B6D03F0804380
S31508002980002BF9D1019B1B681A06019B5B681B0586
S315080029901343019A127B12041343019A527B1203C2
S315080029A01343019A927B92011343019AD27B1146F3
S315080029B04B4A0B4313614A4B9B6903F00042019B48
S315080029C01B699B061A43019B5B691B061343019A05
S315080029D0127E12041343019A527E12021343019A7D
S315080029E0927E11463E4A0B4393613D4B1B6A23F088
S315080029F00F03019AD269002A01D1002200E00822B9
S31508002A001343019AD27E92001A43019BDB6934492B
S31508002A1013430B62019BDB69002B67D1304B9A6A23
S31508002A20304B1340019A92F8202052011343019A21
S31508002A3092F8212012011343019A92F82420D20019
S31508002A401343274A43F48033936200BF244B9A6D9D
S31508002A50254B1340244A9342F8D1214B03F5805362
S31508002A601A464FF0807393621D4B1B6923F470025C
S31508002A70019B9B681B051A4913430B61184B03F509
S31508002A8080531A464FF000439361019B93F8223016
S31508002A9083F00103DBB2002B06D0114B03F500537C
S31508002AA01A464FF080739362019B93F8233083F0A4
S31508002AB00103DBB2002B4BD0094B03F500531A4632
S31508002AC04FF48033936200BF054B9B6D03F0804340
S31508002AD0002BF9D13CE000BFBC7C00080080005008
S31508002AE00040005AC7FFFEFE03000100019BDB6998
S31508002AF0022B12D11D4B00221A611C4B00229A612F
S31508002B0002230393039B1A03039B1B0213431A46D0
S31508002B104FF47F41164804F024FC144B9A6A154B6F
S31508002B201340019A92F8202052011343019A92F811
S31508002B30222012061343019A92F82420D200134346
S31508002B40019A92F8232012041146084A0B4393620D
S31508002B50019B93F82530002B05D0044B064AC3F891
S31508002B60802000E000BF05B05DF804FB0040005A75
S31508002B703440005AC7FFFEFEF1A7FFFF024B93F948
S31508002B8000301846704700BF7E10002000B585B09B
S31508002B900190019B5B68072B04D940F67C5140489D
S31508002BA004F07AFB019B9B68032B04D940F67E51FF
S31508002BB03B4804F071FB019B1B78032B04D94FF4A7
S31508002BC05861374804F068FB019B5B785BB2002BC1
S31508002BD004DA40F68251324804F05EFB4F23039331
S31508002BE0019B5B788DF80B309DF80B20039B934275
S31508002BF028BF13468DF80A302A4B03F580531A4628
S31508002C004FF400035366284B4FF4D1525A62264BB1
S31508002C1003F580531A4602235360234B03F50053EA
S31508002C201A460123536000BF1F4B1B6903F4803308
S31508002C30002BF9D1019B1B781A029DF80A301A4914
S31508002C4013434B61019B5B681A02019B9B681B013E
S31508002C501343019A127B52001343019A527B114681
S31508002C60114A0B439360019B9B7B5A01019BDB7BBB
S31508002C701B011A43019B1B7C5B001343019A527C80
S31508002C801A43094B5A60019B9B7C002B03D0064BC9
S31508002C906FF4D1525A6200BF05B05DF804FB00BF5D
S31508002CA0BC7C0008008000500000025082B0034639
S31508002CB0ADF80630034ABDF80630138000BF02B0EF
S31508002CC0704700BF7A10002082B00346ADF8063080
S31508002CD0034ABDF80630138000BF02B0704700BF34
S31508002CE07C10002000B585B0019000910023029366
S31508002CF0254BD3F8203203F00703042B2CD801A266
S31508002D0052F823F0532D0008192D0008292D000824
S31508002D10372D0008452D000802AB0021184600F0A3
S31508002D2037F8122303931FE0FEF798F90346029338
S31508002D300723039318E004F0A7FA034602930A232D
S31508002D40039311E0FEF7FAF9034602930923039366
S31508002D500AE00123039307E00023039340F6EC718E
S31508002D600A4804F099FA00BF019B002B02D0029A88
S31508002D70019B1A60009B002B02D0009B039A1A60E5
S31508002D8000BF05B05DF804FB00800050BC7C00085D
S31508002D9000B585B00190009100230393294BD3F821
S31508002DA0283103F00703013B052B33D801A252F85B
S31508002DB023F000BFCD2D0008F12D0008092E0008CC
S31508002DC0E52D0008D92D0008FD2D0008FEF7C8F8E6
S31508002DD003900523029325E0FEF7C2F80390062325
S31508002DE002931FE0FEF73AF903900723029319E0CE
S31508002DF0FEF712F903900323029313E0FEF70CF98A
S31508002E000390042302930DE0FEF722F903900223B0
S31508002E10029307E00023029341F22D010A4804F0C9
S31508002E203BFA00BF019B002B02D0019B039A1A6054
S31508002E30009B002B02D0009B029A1A6000BF05B0C7
S31508002E405DF804FB00800050BC7C000800B585B026
S31508002E500190009100230293244BD3F8603203F0CB
S31508002E600703013B032B29D801A252F823F000BF20
S31508002E70812E0008912E0008AF2E0008A12E00080A
S31508002E8002AB0021184600F071F9102303931DE0E8
S31508002E9002AB0021184600F0CBF91123039315E085
S31508002EA0FEF7DCF803460293072303930EE0FEF7CA
S31508002EB0CFF8034602930223039307E00023039304
S31508002EC041F291010A4804F0E7F900BF019B002B83
S31508002ED002D0029A019B1A60009B002B02D0009B2D
S31508002EE0039A1A6000BF05B05DF804FB0080005025
S31508002EF0BC7C000800B585B00190009100230293C0
S31508002F00244BD3F8943203F00703013B032B29D84B
S31508002F1001A252F823F000BF292F0008392F000814
S31508002F20572F0008492F000802AB0021184600F069
S31508002F301DF9102303931DE002AB0021184600F08B
S31508002F4077F91123039315E0FEF788F803460293F1
S31508002F50072303930EE0FEF77BF80346029302234A
S31508002F60039307E00023039341F2C4010A4804F0DF
S31508002F7093F900BF019B002B02D0029A019B1A60AD
S31508002F80009B002B02D0009B039A1A6000BF05B075
S31508002F905DF804FB00800050BC7C000800B585B0D5
S31508002FA00190009100230293174BD3F8703203F077
S31508002FB00303012B02D0022B08D00CE002AB002140
S31508002FC0184600F035F9112303930CE00023029309
S31508002FD01523039307E00023039341F2EF010B48FF
S31508002FE004F05AF900BF019B002B02D0029A019BFC
S31508002FF01A60009B002B02D0009B039A1A6000BF40
S3150800300005B05DF804FB00BF00800050BC7C0008DA
S31508003010044B03F580531A464FF48033136700BFF9
S31508003020704700BF0080005008B58020FEF71CFEE0
S315080030300346064A934206D8054B03F500531A463B
S315080030404FF48033136700BF08BD00BF005A620201
S315080030500080005000B585B00190009100230393CD
S315080030601B4BD3F8803003F00303032B12D0032B3A
S3150800307016D8012B02D0022B06D011E0FDF780FFEF
S3150800308003900E23029313E0FDF7E8FF039007234E
S3150800309002930DE0FDF764FF03900623029307E011
S315080030A00023029341F2A8110A4804F0F5F800BF7C
S315080030B0019B002B02D0019B039A1A60009B002BF0
S315080030C002D0009B029A1A6000BF05B05DF804FBA7
S315080030D000800050BC7C000800B585B001900091C6
S315080030E0002303931F4BD3F8003103F00303032B8C
S315080030F01FD801A252F823F02D3100080931000823
S315080031001531000821310008FDF786FF03900323D7
S31508003110029316E0FEF712F803900923029310E0D3
S3150800312004F0AFF80390082302930AE00123029300
S3150800313007E00023029341F2DE110B4804F0ACF8D5
S3150800314000BF019B002B02D0019B039A1A60009BCB
S31508003150002B02D0009B029A1A6000BF05B05DF8EA
S3150800316004FB00BF00800050BC7C000800B585B099
S3150800317001900091002303932B4BD3F8203103F0E1
S315080031800703062B37D801A252F823F0D9310008D5
S31508003190A9310008B5310008CD310008C131000851
S315080031A0DF310008EB310008FDF7DAFE039005234E
S315080031B0029328E0FDF730FF03900323029322E0F1
S315080031C0FDF74CFF0390072302931CE0FDF740FF31
S315080031D003900223029316E00123029313E0FDF7FE
S315080031E0BFFE0390062302930DE0FDF715FF03903B
S315080031F00423029307E00023029341F225210B489A
S3150800320004F04AF800BF019B002B02D0019B039AE9
S315080032101A60009B002B02D0009B029A1A6000BF1E
S3150800322005B05DF804FB00BF00800050BC7C0008B8
S3150800323000B585B001900091002303931F4BD3F886
S31508003240403103F00303032B1FD801A252F823F0E1
S3150800325085320008613200086D32000879320008AC
S3150800326004F012F803900A23029316E0FDF766FFAE
S3150800327003900923029310E004F00AF803900C2344
S3150800328002930AE00123029307E00023029341F226
S3150800329057210B4804F000F800BF019B002B02D011
S315080032A0019B039A1A60009B002B02D0009B029A8E
S315080032B01A6000BF05B05DF804FB00BF008000502F
S315080032C0BC7C000800B585B00190009100230393EB
S315080032D01F4BD3F8603103F00303032B1FD801A259
S315080032E052F823F019330008F532000801330008B4
S315080032F00D33000803F0C8FF03900A23029316E073
S31508003300FDF71CFF03900923029310E003F0C0FFAA
S3150800331003900C2302930AE00123029307E000239B
S31508003320029341F289210B4803F0B6FF00BF019BC7
S31508003330002B02D0019B039A1A60009B002B02D037
S31508003340009B029A1A6000BF05B05DF804FB00BF37
S3150800335000800050BC7C000884B0019000914FF4B6
S3150800336040130393009B002B0AD1019B0D4A9342FD
S3150800337003D94FF4801303930FE0002303930CE063
S31508003380009B002B09DD019B074A934203D94FF4A2
S315080033908013039301E000230393039B184604B0AC
S315080033A0704700BF005A6202002D310100B585B092
S315080033B001900091184B03F580531A464FF4803359
S315080033C093660020FEF7C8FA0246019B02FB03F348
S315080033D00193FEF793FA03468DF80F30FEF7A4FA29
S315080033E0FEF7AAFA034623F44013029300990198BC
S315080033F0FFF7B2FF0246029B134302930298FEF7B9
S31508003400A1FA9DF80F30002B01D0FEF785FA00BF10
S3150800341005B05DF804FB00BF0080005000B585B01C
S31508003420019000230393019B5B4A934200F0A3801B
S31508003430019B594A934200F2A380019B574A934243
S3150800344000F09480019B554A934200F29980019BB3
S31508003450534A934200F08580019B514A934200F2F9
S315080034608F80019B4F4A934276D0019B4D4A9342E7
S3150800347000F28680019B4C4A934268D0019B4A4AD7
S3150800348093427DD8019B494A93425BD0019B474AA8
S31508003490934275D8019B464A93424ED0019B444AB3
S315080034A093426DD8019B434A934242D0019B414ABD
S315080034B0934265D8019B404A934236D0019B3E4AC7
S315080034C093425DD8019B3D4A93422AD0019B3B4AD1
S315080034D0934255D8019B3A4A93421ED0019B384ADB
S315080034E093424DD8019B374A934212D0019B354AE5
S315080034F0934245D8019B344A93420AD0019B324AEB
S3150800350093423DD8019B002B40D0019B2F4A934202
S3150800351036D12F4B9B6D039339E02D4B5B6E03938E
S3150800352035E02B4B1B6F039331E0294B5B6F0393FD
S315080035302DE0274B9B6F039329E0254BD3F880306A
S31508003540039324E0224BD3F8843003931FE0204BE7
S31508003550D3F8883003931AE01D4BD3F88C300393C5
S3150800356015E01B4BD3F89030039310E0184BD3F8B3
S31508003570943003930BE0164BD3F89830039306E088
S3150800358041F24F31134803F087FE00E000BF039B6A
S31508003590184605B05DF804FB00B4C4040090D003D7
S315080035A0007E5603006CDC0280D543020048E80121
S315080035B080BA8C01C0EA21010024F400405DC600EF
S315080035C0C0CF6A0000093D0080841E0040420F00FB
S315080035D00080E00FBC7C000800B585B00190009122
S315080035E0002302931D4BD3F8803103F00303032B0A
S315080035F00ED0032B1AD8012B02D0022B0FD015E0C0
S3150800360002AB00211846FFF7B1FD1023039315E01E
S31508003610FDF724FD03460293072303930EE0FDF707
S3150800362017FD034602930223039307E0002303933F
S3150800363041F27A310A4803F02FFE00BF019B002BA6
S3150800364002D0029A019B1A60009B002B02D0009BB5
S31508003650039A1A6000BF05B05DF804FB00800050AD
S31508003660BC7C000800B583B0022301934FF4C070F8
S31508003670FEF7FAFA0346074A934201D80123019353
S3150800368001994FF42070FEF7DDF900BF03B05DF82D
S3150800369004FB00BF80F0FA0200B585B001900091E6
S315080036A0002303931F4BD3F8403203F00303032B85
S315080036B01FD801A252F823F0ED360008C9360008D3
S315080036C0D5360008E136000803F0DEFD03900A232C
S315080036D0029316E0FDF732FD03900923029310E0EA
S315080036E003F0D6FD03900C2302930AE0012302930C
S315080036F007E00023029341F2F7310B4803F0CCFDB3
S3150800370000BF019B002B02D0019B039A1A60009B05
S31508003710002B02D0009B029A1A6000BF05B05DF824
S3150800372004FB00BF00800050BC7C000800B585B0D3
S315080037300190009100230393244BD3F8003203F041
S315080037400703042B29D801A252F823F0953700085D
S31508003750613700086D370008793700088537000893
S3150800376003F092FD03900A2302931EE0FDF7E6FCA0
S3150800377003900923029318E003F08AFD03900C23B3
S31508003780029312E0FDF724FC03469B0A03930F23DA
S3150800379002930AE00123029307E00023029341F211
S315080037A038410B4803F078FD00BF019B002B02D07F
S315080037B0019B039A1A60009B002B02D0009B029A79
S315080037C01A6000BF05B05DF804FB00BF008000501A
S315080037D0BC7C000800B585B00190009100230393D6
S315080037E0244BD3F8083203F00703042B29D801A287
S315080037F052F823F03D380008093800081538000843
S31508003800213800082D38000803F03EFD03900A23EE
S3150800381002931EE0FDF792FC03900923029318E039
S3150800382003F036FD03900C23029312E0FDF7D0FB5C
S3150800383003469B0A03930F2302930AE0012302938C
S3150800384007E00023029341F270410B4803F024FD80
S3150800385000BF019B002B02D0019B039A1A60009BB4
S31508003860002B02D0009B029A1A6000BF05B05DF8D3
S3150800387004FB00BF00800050BC7C000800B585B082
S315080038800190009100230393114B1B6803F0040376
S31508003890002B06D0FDF79CFB034603930D230293EA
S315080038A005E002AA03AB11461846FFF7C1FC019BC7
S315080038B0002B02D0039A019B1A60009B002B02D0B2
S315080038C0029A009B1A6000BF05B05DF804FB00BFB2
S315080038D010E000E0024B034A1A6400BF704700BFBD
S315080038E0004009503254FFFF024B4AF6CD321A64A3
S315080038F000BF70470040095082B0019000BF054BD9
S315080039005A6B019B1340002BF9D100BF00BF02B0D0
S31508003910704700BF0040095008B500BF042104489D
S3150800392003F09EFD0346002BF8D100BF00BF08BD7B
S315080039308440005008B5FFF7EFFF044BD3F88430F6
S315080039409B0903F00303DBB2184608BD004000508C
S31508003950024B4AF6E8521A6600BF7047004000500C
S3150800396000B583B003468DF807300E4B1B690D4A28
S3150800397043F00403136103F08EFD03F08EFD30BFA0
S3150800398003F08FFD03F08BFD9DF8073083F00103EC
S31508003990DBB2002B01D003F05EFD00BF03B05DF87B
S315080039A004FB00BF00ED00E082B00190064BDB6E21
S315080039B023F03003019A12791146034A0B43D36662
S315080039C000BF02B0704700BF0040005000B585B088
S315080039D0234BDB6E23F0030343F002030293204BD1
S315080039E0DB6E43F003030193FFF7B2FF03F01DFDFF
S315080039F0009003F0D0FC1B4B1B6F23F00703194AFA
S31508003A0043F00103136703F0D3FC002000F0CCF861
S31508003A1003F049FD03F049FD0023039308E0104A2B
S31508003A20029BD3660E4A019BD366039B013303931D
S31508003A30039B032BF3DD0A4A029BD3660A4B9B6A58
S31508003A4003F08003002B04D040F2E151074803F04D
S31508003A5023FC009803F0F5FC00BF05B05DF804FBF5
S31508003A600040005000800050004009500C7D0008BE
S31508003A7000B585B001900B468DF80330019B002BED
S31508003A8003D1FDF77DFA039001E0019B03930D4BEB
S31508003A901B78002B0AD0039B0B4A934206D89DF845
S31508003AA003301946012000F011F806E09DF80330AE
S31508003AB01946022000F00AF800BF00BF05B05DF8FD
S31508003AC004FB00BFB4100020005A620210B586B08D
S31508003AD003460A468DF8073013468DF80630FFF779
S31508003AE029FF03461A469DF80730934252D0FDF740
S31508003AF047FA0590059B04939DF80730012B0CD1D6
S31508003B00049B264A934204D940F26171244803F083
S31508003B10C3FB0121059803F062FC03F086FC0390C1
S31508003B20204B03F500531A464FF0007353669DF871
S31508003B300730184603F0BBFC1A4C9DF807301846A8
S31508003B4003F09BFC034623670BE0164BD3F884303F
S31508003B5003F02003002B04D040F26F71104803F0E5
S31508003B609BFB104B5B6E03F00073002B06D10D4BCD
S31508003B70D3F8843003F02003002BE6D0039803F033
S31508003B8060FC9DF80730022B05D10021059803F04B
S31508003B9026FC00E000BF06B010BD00BF005A620256
S31508003BA00C7D00080040005000B587B003468DF82C
S31508003BB007300023059300230493404B03F58053F5
S31508003BC01A464FF0004353663D4B5B6C03F0010306
S31508003BD0002B14BF012300238DF80F30FFF784FE56
S31508003BE09DF80730002B28D10120FFF785FE344BBE
S31508003BF05B6803F001030293029B002B50D0304B05
S31508003C0003F500531A460123536002E0049B01336F
S31508003C1004932B4B1B6B03F00103002B03D1049B6E
S31508003C20284A9342F2D9049B264A934238D9072355
S31508003C30059335E0049B01330493214B1B6B03F07A
S31508003C400803002B03D0049B1E4A9342F2D9049B17
S31508003C501C4A934202D90723059321E0184B03F522
S31508003C6000531A4620239362154B03F580531A46D0
S31508003C70012353600023049302E0049B0133049359
S31508003C800F4B9B6A03F02003002B03D1049B0D4ABC
S31508003C909342F2D9049B0B4A934201D90723059311
S31508003CA09DF80F30002B01D0FFF714FE03F006FC39
S31508003CB0059B184607B05DF804FB00BF008000505E
S31508003CC0004009503F420F0000B585B00190254BD2
S31508003CD003F580531A464FF000435366224B5B6C3C
S31508003CE003F00103002B14BF012300238DF80F30C6
S31508003CF0FFF7FAFD019B5B785B001C4A43F0010362
S31508003D00D3630B20FFF7F8FD174B5B6823F4F872B3
S31508003D10019B9B781B01144913434B60019BDB787D
S31508003D201B02019A527911460F4A0B439360019B75
S31508003D301B791B02019A927911460B4A0B431361B0
S31508003D40019B1B781846FFF72FFF9DF80F30002BB5
S31508003D5001D0FFF7BFFD03F0B1FB0123184605B0FC
S31508003D605DF804FB008000500040095000400050F8
S31508003D7000B585B0019000238DF80F3000238DF82B
S31508003D800E30019B0F2B04D940F6FC51224803F054
S31508003D9083FA019B0F2B01D90F2301931F4B5B6EEF
S31508003DA0DB0F8DF80E301D4B03F580531A464FF086
S31508003DB0004353661A4B5B6C03F00103002B14BFD8
S31508003DC0012300238DF80F30FFF78EFD8020FFF7C3
S31508003DD093FD134B1B6A23F00F021149019B1343F2
S31508003DE00B629DF80F30002B01D0FFF773FD9DF88D
S31508003DF00E3083F00103DBB2002B06D0074B03F528
S31508003E0000531A464FF00043536603F057FB00BFB2
S31508003E1005B05DF804FB00BF0C7D0008008000506B
S31508003E200040095000B583B0034600918DF807306D
S31508003E309DF80730002B14D09DF80730012B0ED0C3
S31508003E409DF80730022B07D09DF80730032B01D1C8
S31508003E503F2308E0002306E040F2FF3303E03F2358
S31508003E6001E040F2FF33009AD34003F00103002B30
S31508003E7004D140F2FE310A4803F00EFA09489DF8CB
S31508003E8007200121009B994013465B0013441B0140
S31508003E90034403F50153196000BF03B05DF804FB42
S31508003EA0AC7D000800C0035000B583B003460091FE
S31508003EB08DF807309DF80730002B14D09DF8073091
S31508003EC0012B0ED09DF80730022B07D09DF807303E
S31508003ED0032B01D13F2308E0002306E040F2FF331D
S31508003EE003E03F2301E040F2FF33009AD34003F09A
S31508003EF00103002B04D140F22D410A4803F0CCF906
S31508003F0009489DF807200121009B994013465B004C
S31508003F1013441B01034403F58253196000BF03B021
S31508003F205DF804FBAC7D000800C0035000B585B001
S31508003F3002910192009303468DF80F309DF80F30D9
S31508003F40002B14D09DF80F30012B0ED09DF80F30A2
S31508003F50022B07D09DF80F30032B01D13F2308E031
S31508003F60002306E040F2FF3303E03F2301E040F27E
S31508003F70FF33029AD34003F00103002B04D14FF418
S31508003F80B071314803F088F9019B002B0FD0009BD4
S31508003F90002B06D09DF80F3002991846FFF784FFCC
S31508003FA005E09DF80F3002991846FFF73BFF029B84
S31508003FB0072B17D89DF80F2013465B0013441B01E7
S31508003FC01A1D224B1344029A92000F2101FA02F09D
S31508003FD0029A9200019901FA02F20146184603F084
S31508003FE06FFA19E09DF80F2013465B0013441B0176
S31508003FF003F10C02154B1344029A083A92000F215A
S3150800400001FA02F0029A083A9200019901FA02F2BC
S315080040100146184603F054FA019B002B0FD1009B6A
S31508004020002B06D09DF80F3002991846FFF73CFF83
S3150800403005E09DF80F3002991846FFF7F3FE00BF1A
S3150800404005B05DF804FB00BFFC7D000830C00350D6
S3150800405082B0019000BF019B5B6903F08073002B5F
S31508004060F9D1019B03F500531A460123536000BF9B
S31508004070044B5B6803F00203002BF9D100BF00BFB5
S3150800408002B070470040005930B5A5B005900491BC
S3150800409003924FF000031C93B24B07AC1D460FCD9D
S315080040A00FC495E8030084E80300059BAE4A9342D3
S315080040B003D0D921AD4803F0EFF80022AC490598A2
S315080040C000F06EFE03468DF88730049B5B79ADF8E9
S315080040D06E309DF887309BB2BDF86E209A4203D3A6
S315080040E0BDF86E308DF887300598FFF7B1FF049B51
S315080040F01B798DF886309DF88630002B14D12A203E
S31508004100FDF7B2FD1F901F9B994A934205D39DF870
S3150800411087301F9AB2FBF3F31F931F99059800F097
S31508004120EFFD03468DF88630049BDB781B0103F010
S3150800413030029DF886301B0403F4FE031A439DF8EB
S3150800414087301B0703F0E04313432393049B1B7834
S31508004150002B03D0239B43F002032393049B5B7835
S31508004160002B03D0239B43F004032393049B9B78E3
S31508004170002B03D0239B43F008032393059B239A24
S315080041809A60049BDB881A46059B1A61049B1B8967
S315080041901B04049A52891A43059B1A620023229328
S315080041A000F02FBC0399229A13469B0013449B00E8
S315080041B00B441B788DF86D300399229A13469B00A1
S315080041C013449B000B4408331B68ADF86E309DF80A
S315080041D06D30002B01D1674900E067499DF86D20D5
S315080041E09DF88730009313460022059800F01EFEBE
S315080041F01A901A9B1993BDF86E30ADF86230BDF867
S315080042006220199B934238BF13461A93059A229B3C
S315080042101B01134448331A68584B134023939DF8DF
S315080042206D3003F00302239B42EA03010398229AA6
S3150800423013469B0013449B00034401331B789B00E1
S3150800424003F01C0319430398229A13469B00134450
S315080042509B00034402331B785B01DBB219430398C6
S31508004260229A13469B0013449B00034403331B788E
S315080042701B0303F4E04319430398229A13469B0051
S3150800428013449B00034404331B781B0403F4E02304
S3150800429019430398229A13469B0013449B00034430
S315080042A010331B785B0503F4600319430398229ABD
S315080042B013469B0013449B00034405331B781B07D6
S315080042C003F0405341EA03020599229B1B010B4464
S315080042D048331A60059A229B1B01134448331B680E
S315080042E01B0B03F007031793179B013B042B27D8D7
S315080042F001A252F823F000BF0D4300080D43000841
S315080043001943000827430008334300081C4BD3F819
S315080043108031ADF8843019E0194BD3F880311B0C85
S31508004320ADF8843012E0164BD3F88431ADF88430FA
S315080043300CE0134BD3F884311B0CADF8843005E040
S315080043400F4BD3F88031ADF8843000BF9DF86D303F
S31508004350012B02DC002B15DA40E3022B00F0E98181
S315080043603CE300BF9C7E0008004000594C7E0008D4
S31508004370005A620280969800404B4C00008F18CF76
S315080043800080E00F4FF000031E93059A229B1B0145
S31508004390134448331B681B0B03F007031793179B3B
S315080043A0012B02D0179B022B05D1D04BD3F88031B5
S315080043B0ADF8843073E0179B032B21D1CB4BD3F890
S315080043C080311B0CADF884309DF86D30002B0BD175
S315080043D0C64BD3F88C311B0C1BB207EE903AF8EE9D
S315080043E0E77ACDED1E7A5AE0C04BD3F894311B0C10
S315080043F01BB207EE903AF8EEE77ACDED1E7A4EE05C
S31508004400179B042B22D1B94BD3F88431ADF88430ED
S315080044109DF86D30002B0CD1B44BD3F88C311B0CA6
S315080044201BB25B0007EE903AF8EEE77ACDED1E7AFE
S3150800443035E0AE4BD3F894311B0C1BB25B0007EE8C
S31508004440903AF8EEE77ACDED1E7A28E0A74BD3F836
S3150800445084311B0CADF884309DF86D30002B0FD1DC
S31508004460A24BD3F88C311B0C1BB21A4613465B00C1
S31508004470134407EE903AF8EEE77ACDED1E7A0EE091
S315080044809A4BD3F894311B0C1BB21A4613465B00A1
S31508004490134407EE903AF8EEE77ACDED1E7ABDF8AA
S315080044A0842049F6FF7313402393239B9B041D9393
S315080044B0239B03F40043002B03D01D9B43F00043CA
S315080044C01D93059A229B1B01134448331B689B08BE
S315080044D003F007030133012202FA03F30E930E9B3E
S315080044E0022B21D19DF86D30002B0ED17F4BD3F8CE
S315080044F08C311BB207EE903AF8EEE77A9DED1E7AFC
S3150800450077EE277ACDED1E7A50E0784BD3F89431C2
S315080045101BB207EE903AF8EEE77A9DED1E7A77EE33
S31508004520277ACDED1E7A41E09DF86D30002B0ED12D
S315080045306E4BD3F890311BB207EE903AB8EEE77A95
S31508004540DDED1E7A77EE677ACDED1E7A11E0674BC0
S31508004550D3F898311BB207EE903AB8EEE77ADDED5C
S315080045601E7A77EE677A9DED1E7A77EE277ACDED7D
S315080045701E7A0E9B07EE903AF8EEE77AF0EE006A9E
S3150800458087EEA67ADDED1E6AC6EE877ACDED1E7A2F
S31508004590564BD3F888311BB207EE903AF8EEE77A15
S315080045A09DED1E7A77EE277ACDED1E7A0399229A2B
S315080045B013469B0013449B000B4404331B78002BC3
S315080045C01ED10399229A13469B0013449B000B4461
S315080045D004331B78184600F08BFC07EE900AF8EEB9
S315080045E0677ADFED476A87EEA67AF7EE046AC6EEC3
S315080045F0877A9DED1E7A67EE277ACDED1E7A1AE048
S315080046000399229A13469B0013449B000B440C33D0
S315080046101B6807EE903AF8EE677ADFED396A87EE9F
S31508004620A67AF7EE046AC6EE877A9DED1E7A67EEDD
S31508004630277ACDED1E7ADDED1E7AB1EE007A27EEE9
S31508004640877A0E9B07EE903AF8EEE76A9FED286A9E
S31508004650C6EE267ADFED276A67EEA67A77EE277A20
S31508004660CDED1E7A1D9BB3F1004F17D0BDF88430EF
S3150800467007EE903AF8EEE77ADFED1F6A87EEA67A3C
S31508004680DDED1E7ADFED1D6A77EEA67A67EE277AEC
S315080046909FED1A7A77EEC77ACDED1E7ADDED1E7A92
S315080046A0F5EEC07AF1EE10FA0ADDDDED1E7AF1EECE
S315080046B0677AB6EE007A77EEC77AFDEEE77A07E014
S315080046C0B6EE007ADDED1E7A77EE677AFDEEE77ACA
S315080046D0CDED0D7A0D9BB3F5003F13DB1D9B6FEAFD
S315080046E053436FEA43431D931BE000BF0080E00F6E
S315080046F000008043000020440000004700000049F5
S3150800470000007A440D9B13F5003F04DA1D9B43F421
S3150800471000331D9305E00D9BC3F311031D9A134344
S315080047201D93059A229B05331B0113441D9A1A6093
S315080047305AE10399229A13469B0013449B000B44A3
S3150800474004331B78184600F0D3FB07EE900AB8EE40
S31508004750677A5FED156AC7EE267ACDED1C7A059A5B
S31508004760229B1B01134448331B685B09DBB203F029
S3150800477007038DF85B309DF85B309B0090336B44E4
S31508004780743BD3ED007AFCEEE77A17EE903A5C2B91
S3150800479002D1A44B209317E09DF85B309B00903321
S315080047A06B44743BD3ED006A9DF85B309B009033F5
S315080047B06B44743BD3ED007AB7EE007A37EE877A0E
S315080047C0C6EE877ACDED207ABDF8843007EE903AAA
S315080047D0B8EE677ADFED946AC7EE267A9DED207A01
S315080047E067EE277ACDED157ADDED157A9FED8E7A8F
S315080047F067EE877AF5EEC07AF1EE10FA0CD5DDEDA4
S31508004800157A9FED897A67EE877AB6EE007A77EEA3
S31508004810C77AFDEEE77A0BE0DDED157A9FED827A31
S3150800482067EE877AB6EE007A77EE877AFDEEE77A54
S31508004830CDED147A7D4A229B05331B0113441B6870
S315080048407A4A229B05331B01134400221A60149BE3
S3150800485003F40043002B0ED0744A229B05331B0138
S3150800486013441B68714943F00042229B05331B0120
S315080048700B441A600BE06D4A6C49229B05331B01F9
S3150800488013441A68229B05331B010B441A60674AB6
S31508004890229B05331B0113441A68149B9904644B25
S315080048A00B4062491A43229B05331B010B441A60CD
S315080048B0604BD3F88831002313935E4BD3F88831C5
S315080048C01BB207EE903AF8EEE77ACDED127A9DF82C
S315080048D05B30012202FA03F3139A92FBF3F307EE15
S315080048E0903AF8EEE77A9DED127A77EE277ACDEDD3
S315080048F0117AF7EE046A9DED1C7AC6EE877A9DED6D
S31508004900117A67EE277ACDED117A9DF85B309B0018
S3150800491090336B44743BD3ED007A9FED477AC7EE2C
S31508004920276A9DF85B309B0090336B44743BD3ED4C
S31508004930007AB7EE007A77EE877A86EEA77ADDED0B
S31508004940117AF1EE006A67EEA67A77EE277A9FED7E
S315080049503B7A77EE877ACDED107ABDF8843007EE8C
S31508004960903AB8EEE77ADFED306AC7EE267AB1EE0E
S31508004970677ADDED107A67EE277A9FED307A77EE63
S31508004980877ACDED107ADDED107AF5EEC07AF1EE84
S3150800499010FA08D5DDED107AB6EE007A77EEC77A0A
S315080049A0FDEEE77A07E0DDED107AB6EE007A77EEEF
S315080049B0877AFDEEE77ACDED0F7A1C4A229B0533FE
S315080049C01B0113441A680F9BC3F3110317491A43B3
S315080049D0229B05331B010B441A6005E040F2DF11E8
S315080049E0174802F059FC00BF1A9BC3F30902059940
S315080049F0229B05331B010B4404331A60229B0133A7
S31508004A002293059B094A934201D1022200E0002223
S31508004A10229B9A423FF6C6AB059802F0AFFD00BF4F
S31508004A2025B030BDE71B753F000000470040005920
S31508004A300000FC7F0080E00F00008048000000496D
S31508004A404C7E000800B585B0039002910192039B45
S31508004A502B4A934204D040F252212A4802F01CFC09
S31508004A600398FFF7F5FA029B1B7803F00703029AEF
S31508004A705278002A01D0082200E000221A43029B3D
S31508004A809B781B0103F070031343029AD278002A1D
S31508004A9002D04FF4807200E000221A43039B1A6783
S31508004AA0039BDB6A23F48B3323F48073029A12790F
S31508004AB0120202F4E0621A43029B5B791B0303F4B9
S31508004AC080531343029A9279002A02D04FF4803217
S31508004AD000E000221A43039BDA620199039800F06A
S31508004AE013F8039802F04AFD029BDB79002B03D0EA
S31508004AF00121039802F039FD00BF05B05DF804FBFB
S31508004B00004000594C7E000800B585B00190009120
S31508004B10019B1E4A934204D040F28A211C4802F0A7
S31508004B20BBFB019B5B6803F00103002B14BF012349
S31508004B3000238DF80F30019802F020FD009B1B78AA
S31508004B401A46009B5B781B029BB21A43009B9B7814
S31508004B501B0403F480331343009AD278002A02D048
S31508004B604FF4003200E000221A43019BC3F8982054
S31508004B709DF80F3083F00103DBB2002B02D00198B9
S31508004B80FFF766FA00BF05B05DF804FB0040005960
S31508004B904C7E000800B585B00190019B524A9342AD
S31508004BA004D040F20731514802F076FB019802F032
S31508004BB0E5FC019B4E4ADA6000BF019B5A694D4BE2
S31508004BC01340002BF9D1019B00229A61019B002218
S31508004BD0C3F8982000BF019B5B6903F44013002BC0
S31508004BE0F9D102E0019802F08AFC019B5B6903F4A3
S31508004BF08073002BF6D1019B9B6F002BF2D102E04C
S31508004C00019802F08AFC019B5B6903F40073002B90
S31508004C10F6D1019BD3F88830002BF1D1019802F028
S31508004C2075FC019802F081FC0198FFF711FA019BC7
S31508004C3000229A60019B00221A61019B0022DA6217
S31508004C40019B00221A62019B30221A67019B3022BF
S31508004C50C3F880200023039319E0019A039B1B01E4
S31508004C601344483342F260021A60019A039B0533E3
S31508004C701B011344204A1A60019A039B05331B0142
S31508004C801344043300221A60039B01330393019BE8
S31508004C90154A934201D1022200E00022039B9A4260
S31508004CA0DBD80023039308E0019B039A28320021EE
S31508004CB043F82210039B01330393019B0A4A93424C
S31508004CC001D1102200E00022039B9A42ECD80B493E
S31508004CD0019802F032FC0949019802F03AFC00BF3B
S31508004CE005B05DF804FB00BF004000594C7E000883
S31508004CF0120002005200010000C002808F330F80AC
S31508004D0000B587B001900091019B214A934204D0D7
S31508004D1040F25D311F4802F0BFFA009B002B18D104
S31508004D202A20FCF7A1FF0090009B002B01D101234C
S31508004D300093009B184A93420BD9154B9B681B0F8F
S31508004D4003F007030593059B0133009AB2FBF3F3BF
S31508004D500093009B03F5742303F23F230093009B03
S31508004D600E4AA2FB03239B0C0093009B013B009376
S31508004D70009B04937F230393039A049B934228BFC3
S31508004D8013460093009BDBB2184607B05DF804FB98
S31508004D90004000594C7E0008005A620283DE1B431D
S31508004DA000B589B0039002910192039B1C4A934275
S31508004DB004D04FF466711B4802F06EFA029B002B72
S31508004DC004D140F29931174802F066FA029B06931D
S31508004DD0154B0593059A069B934228BF13460293E3
S31508004DE0019B002B03D12A20FCF73EFF0190019A74
S31508004DF0029B13445A1E029BB2FBF3F30793079BCD
S31508004E00002B02D0079B013B0793079B032B01D975
S31508004E1003230793079BDBB2184609B05DF804FB2A
S31508004E20004000594C7E0008005A620200B589B05D
S31508004E300390029101928DF80330039B284A93420E
S31508004E4004D040F2D231274802F026FA029B002B02
S31508004E5004D140F2D331234802F01EFA9DF80330FC
S31508004E60002B01D1204A00E0204A029B9A4207D231
S31508004E709DF80330002B01D11B4B00E01B4B02931E
S31508004E80019B002B04D12A20FCF7EEFE069001E0D8
S31508004E90019B06939DF828300133069AB2FBF3F37B
S31508004EA00693069A029B13445A1E029BB2FBF3F31F
S31508004EB00793079B002B02D0079B013B0793079B91
S31508004EC0059340F2FF330493049A059B934228BF47
S31508004ED013460793079B9BB2184609B05DF804FB77
S31508004EE0004000594C7E000880969800404B4C00C4
S31508004EF000B585B003468DF807300023039302AB4F
S31508004F00184600F0E9F89DF80730042B20D801A2CE
S31508004F1052F823F0294F0008314F0008394F00088E
S31508004F20414F0008494F000840F2BA43039315E081
S31508004F3040F2E243039311E040F6C41303930DE0F5
S31508004F4040F6B833039309E04FF41663039305E07C
S31508004F5040F27F41044802F09FF900BF039B1846C0
S31508004F6005B05DF804FB00BF4C7E000800B583B0B1
S31508004F7001900B468DF80330019BB3F1B24F04D074
S31508004F8040F209110A4802F087F96021019802F0F7
S31508004F904EFB9DF80330002B03D0019B01221A61BA
S31508004FA002E0019B02221A6100BF03B05DF804FB10
S31508004FB0B47E000800B585B00190009100230393E4
S31508004FC0019BB3F1B24F04D04FF4B3713E4802F0DF
S31508004FD063F9019B03F580531A4601235360009B2E
S31508004FE01B7883F00103DBB2002B0CD0019B5B69B5
S31508004FF003F00103002B06D04021019802F017FBAD
S31508005000019B02221A61009B5B78002B03D0039B4D
S3150800501043F480530393009B9B78002B03D1009B9A
S31508005020DB68002B0BD0039B43F400730393009BB0
S31508005030DB68002B03D0009BDA68019B5A62009B51
S31508005040DB78002B03D0039B43F480730393009B08
S315080050501B79002B03D0039B43F040030393009B6B
S315080050605B79002B03D0039B43F080030393009BDB
S315080050709B799B001A46039B13430393009BDB799A
S315080050801B011A46039B13430393009B1B7A1A467C
S31508005090039B13430393019B039ADA60009B1B78D7
S315080050A0002B0CD0019B5B6903F00103002B06D192
S315080050B02021019802F0BBFA019B01221A6100BF68
S315080050C005B05DF804FB00BFB47E0008014B9B6980
S315080050D01846704700C0075000B585B00190114BBF
S315080050E003F580531A464FF480335366FFF7EEFFF5
S315080050F00390039B9B09DBB203F03F03DAB2019BE3
S315080051009A70039BDBB203F03F03DAB2019B5A7035
S31508005110039B1B0BDAB2019B1A7000BF05B05DF842
S3150800512004FB00BF0080005082B00190019B0E4A2C
S3150800513093420FD0019B0D4A93420BD0019B0C4A18
S31508005140934207D0019B0B4A934203D0019B0A4A1C
S31508005150934201D1012300E0002303F00103DBB2EF
S31508005160184602B0704700BF0080045000C00450C3
S3150800517000000550004005500080055000B587B076
S315080051800390029101928DF80330039B244A9342BF
S315080051901AD0039B234A934214D0039B224A934274
S315080051A00ED0039B214A934208D0039B204A934280
S315080051B001D1042309E04FF0FF3306E0032304E09E
S315080051C0022302E0012300E000230593194B049310
S315080051D0059BB3F1FF3F03D18221174802F05CF823
S315080051E09DF80330002B0BD00499059A13465B00F3
S315080051F013445B00029A1344019A41F823200BE0FA
S31508005200019B18020499059A13465B0013445B0038
S31508005210029A134441F8230000BF07B05DF804FB67
S315080052200080045000C0045000000550004005509E
S315080052300080055048810350587F000800B585B0A6
S31508005240019000910198FFF76FFF0346002B03D1E9
S31508005250A521454802F020F800230393019802F09F
S3150800526010FA019B03F500531A460123136300BF86
S31508005270019B1B6B03F00203002BF9D1009B5B8893
S315080052809A04009B1B791B021343009A527A134314
S31508005290009A5278002A01D0402200E000221343E7
S315080052A0009A927A002A01D0802200E00022134355
S315080052B0009AD27A002A01D0202200E00022134365
S315080052C0009A127B002A01D0102200E00022134324
S315080052D0009A527B002A01D0082200E000221343DC
S315080052E0009A927B002A02D04FF4006200E0002266
S315080052F01343009A9279002A02D04FF4803200E0D4
S3150800530000221A43019B5A60019B03F580531A46F3
S3150800531001231363009B1B7883F00103DBB2002B88
S3150800532002D0019B0222DA60019B00225A62009B8E
S31508005330DB799B00009A127A1343009A5279002A65
S3150800534001D0102200E0002213430393019B039A25
S315080053509A60009B1B78002B02D0019B0122DA6021
S3150800536000BF05B05DF804FB587F000800B587B09C
S315080053700390029101920398FFF7D6FE0346002B8D
S3150800538003D1FB214A4801F087FF029B022B03D970
S31508005390FC21474801F080FF039802F072F9039B4D
S315080053A003F500531A460123136300BF039B1B6BC7
S315080053B003F00203002BF9D1019B9B791A46019B46
S315080053C0DB79002B02D04FF4801300E0002313434F
S315080053D0019A527A002A01D0102200E000221A43CC
S315080053E0019BDB7ADB041A430399029B03335B01B7
S315080053F00B441A60019B1B7A002B21D0039A029B4F
S3150800540003335B0113441A68019B1B7B5B041A4335
S315080054100399029B03335B010B441A60019B1B7BB8
S31508005420012B14BF012300238DF81730019B9B78AD
S315080054301A469DF8173002990398FFF79FFE0BE06E
S31508005440039A029B03335B0113441A680399029B70
S3150800545003335B010B441A60039B03F580531A461A
S3150800546001231363019B1B789A06019B5B781B0635
S315080054701A43019BDB781B031A43019B1B799B028A
S315080054801A43019B5B791B021343019A927A002AFD
S3150800549001D0042200E000221A430399029B033339
S315080054A05B010B4404331A6000BF07B05DF804FBC8
S315080054B0587F000882B001900B468DF80330019B97
S315080054C0084A934204D1084A9DF80330C2F8C83105
S315080054D0019BDB6D43F08002019BDA6500BF02B0D9
S315080054E0704700BF00C005500080035000B587B064
S315080054F00390029101928DF8033000230593019BD6
S31508005500002B04D14FF4A171484801F0C5FE029B57
