S0140000496F545F4368616C6C656E67652E733337F2
S3150800000000100020490E0008B76F0008B76F0008F7
S31508000010B76F0008B76F0008B76F0008B76F00081A
S31508000020B76F0008B76F0008B76F0008B76F00080A
S31508000030B76F0008B76F0008B76F0008B76F0008FA
S31508000040B76F0008B76F0008B76F0008B76F0008EA
S3150800005061180008B76F0008B76F0008B76F000887
S31508000060B76F0008B76F0008B76F0008B76F0008CA
S31508000070B76F0008B76F0008B76F0008B76F0008BA
S31508000080B76F0008B76F00088D040008B76F00083F
S31508000090B76F0008B76F0008B76F0008B76F00089A
S315080000A0B76F0008B76F0008B76F0008B76F00088A
S315080000B0B76F0008B76F0008B76F0008B76F00087A
S315080000C0B76F0008B76F0008B76F0008B76F00086A
S315080000D0B76F0008B76F0008B76F0008B76F00085A
S315080000E0B76F0008B76F0008B76F0008B76F00084A
S315080000F0B76F0008B76F0008B76F0008B76F00083A
S31508000100B76F0008B76F0008B76F0008B76F000829
S31508000110B76F0008B76F0008B76F0008B76F000819
S31508000120B76F0008B76F0008B76F0008B76F000809
S31508000130B76F0008B76F0008B76F0008B76F0008F9
S31508000140B76F0008B76F0008B76F0008B76F0008E9
S31508000150B76F0008B76F0008B76F0008B76F0008D9
S31508000160B76F0008B76F0008B76F0008B76F0008C9
S31508000170013800D0FCE7704700B585B001AB2E49C1
S31508000180184607F0DAF8019B184605F00BFD26A37A
S31508000190D3E9002305F080FD02460B4610461946B2
S315080001A023A3D3E9002305F0A1FE02460B46104619
S315080001B0194605F0A3FF03460393039805F014FDBB
S315080001C002460B464FF000001C4905F0ADFB0246FF
S315080001D00B46104619464FF00002184B05F086FEEE
S315080001E002460B46104619464FF00002144B05F01E
S315080001F053FD02460B46104619464FF00002114BB6
S3150800020005F04AFD02460B461046194605F056FF0C
S3150800021003469AB20C4B1A800B4B1B88184605B03E
S315080002205DF804FBAFF300806666666666660A409C
S315080002300000000000FEAF400040005900000840E2
S315080002400000594000002440C610002010B5054C97
S31508000250237833B9044B13B1044800E000BF0123E7
S31508000260237010BD8810002000000000D07D000813
S3150800027008B5034B1BB10349034800E000BF08BD9E
S31508000280000000008C100020D07D0008A3F5803AFD
S31508000290704700BF174B002B08BF134B9D46FFF74F
S315080002A0F5FF00218B460F461348144A121A07F029
S315080002B003F90E4B002B00D098470D4B002B00D0AE
S315080002C098470020002104000D000D48002802D0A0
S315080002D00C4800E000BF06F005F92000290006F0EA
S315080002E0DEFD06F0EBF800BF000008000000000085
S315080002F0000000000010002088100020D010002008
S31508000300000000000000000000B583B0034600911D
S315080003108DF807309DF80730002B14D09DF807306C
S31508000320012B0ED09DF80730022B07D09DF8073019
S31508000330032B01D13F2308E0002306E040F2FF33F8
S3150800034003E03F2301E040F2FF33009AD34003F075
S315080003500103002B04D140F2CF310B4806F037FEDB
S315080003609DF8072013465B0013441B0103F1140292
S31508000370064B13440099184606F030FC0346184607
S3150800038003B05DF804FB00BF5477000830C0035083
S3150800039000B583B0019006F02EFC06F04AFC034631
S315080003A01A46274B1A7006F072FC03461A46254B66
S315080003B01A7006F06CFC03461A46234B1A7006F0B0
S315080003C066FC03461A46214B1A7006F060FC034683
S315080003D01A461F4B1A7006F05AFC03469AB21D4B72
S315080003E01A801C4B1B881946164B1B781A46164B47
S315080003F01B781344154A12781344154A1278134485
S31508000400994217D1114B1B781B021AB2104B1B7855
S315080004101BB213431BB29AB2019B1A80094B1B7875
S315080004201B021AB2084B1B781BB213431BB29AB2B3
S31508000430019B5A8001F0AAF900BF03B05DF804FBDE
S31508000440CC100020C8100020C9100020CA100020B7
S31508000450CB100020C410002082B003468DF8073068
S315080004609DF90730002B0CDB9DF8073003F01F02BF
S3150800047005499DF907305B09012000FA02F241F8A7
S31508000480232000BF02B0704700E100E000B597B036
S315080004904FF0B24006F061FC139013994FF0B2404A
S315080004A006F043FC00F0AEFAFFF766FE0346ADF829
S315080004B04A300FAB1846FFF76BFFBDF83C30ADF876
S315080004C04830BDF83E30ADF846308B498B4806F0CB
S315080004D096FC894B1B88ADF844300DA9BDF844300D
S315080004E00422184600F014FB0BA9BDF84630042276
S315080004F0184600F00DFB0EA9BDF84A30042218462E
S3150800050000F006FB0CA9BDF848300422184600F096
S31508000510FFFA06AB00221A605A609A60DA601A82FD
S31508000520774B1B788DF81830754B5B788DF819303A
S31508000530734B9B788DF81A30714BDB788DF81B302E
S315080005406F4B1B798DF81C309DF838308DF81D30AF
S315080005509DF839308DF81E309DF83A308DF81F30E9
S315080005609DF830308DF820309DF831308DF82130E7
S315080005709DF832308DF822309DF82C308DF82330D6
S315080005809DF82D308DF824309DF82E308DF82530C5
S315080005909DF834308DF826309DF835308DF82730A3
S315080005A09DF836308DF8283006AB1221184606F02D
S315080005B081FC0346ADF84230BDF842301B0A9BB2B7
S315080005C0DBB28DF81430BDF84230DBB28DF8153049
S315080005D06B4600221A605A609A60DA601A61484BC4
S315080005E01B788DF80030464B5B788DF80130444B0C
S315080005F09B788DF80230424BDB788DF80330404B00
S315080006001B798DF804309DF838308DF805309DF843
S3150800061039308DF806309DF83A308DF807309DF858
S3150800062030308DF808309DF831308DF809309DF856
S3150800063032308DF80A309DF82C308DF80B309DF845
S315080006402D308DF80C309DF82E308DF80D309DF834
S3150800065034308DF80E309DF835308DF80F309DF812
S3150800066035308DF810309DF814308DF811309DF81E
S3150800067015308DF812306B461321184600F022FA11
S31508000680204B159301238DF853302CE0159B013B25
S3150800069015931D4B9B6903F08003002B18D01A4B4A
S315080006A05B6A8DF841309DF84130312B03D1002328
S315080006B08DF8533017E09DF84130302B13D10023C5
S315080006C08DF853306B461321184600F0FBF90AE003
S315080006D0159B002B07D100238DF853306B46132149
S315080006E0184600F0EFF99DF85330002BCED100BF25
S315080006F000BF17B05DF804FB78100020CD1000206D
S31508000700A41000208096980000C0055000B583B05C
S31508000710034600918DF807309DF80730002B14D05A
S315080007209DF80730012B0ED09DF80730022B07D015
S315080007309DF80730032B01D13F2308E0002306E08C
S3150800074040F2FF3303E03F2301E040F2FF33009A13
S31508000750D34003F00103002B04D140F2CF310B48FC
S3150800076006F035FC9DF8072013465B0013441B0171
S3150800077003F11402064B13440099184606F058FB79
S315080007800346184603B05DF804FB00BFA0770008CF
S3150800079030C0035000B583B0034600918DF807308A
S315080007A09DF80730002B14D09DF80730012B0ED08A
S315080007B09DF80730022B07D09DF80730032B01D18F
S315080007C03F2308E0002306E040F2FF3303E03F231F
S315080007D001E040F2FF33009AD34003F00103002BF7
S315080007E004D14FF489610A4806F0F1FB09489DF8DF
S315080007F007200121009B994013465B0013441B0107
S31508000800034403F54153196000BF03B05DF804FBC8
S31508000810EC77000800C0035010B584B0394A02AB23
S3150800082092E8030018600433198002330A0C1A7020
S3150800083002AB0721184600F045F900238DF80F3062
S3150800084010E09DF80F40304806F0C8FD03461A46EA
S3150800085004F110036B4403F80C2C9DF80F30013398
S315080008608DF80F309DF80F30032BEAD99DF8043028
S31508000870312B2AD19DF80530312B26D19DF806203B
S31508000880224B1A709DF80720204B5A701F4B1722CF
S315080008909A701E4B3122DA701C4B31221A710023D2
S315080008A004220221012003F0F3F902210120FFF7B7
S315080008B071FF00F0D3FE164800F084FF02210120E4
S315080008C0FFF768FF00F062FF18E09DF80430302B50
S315080008D014D19DF80530302B10D1002304220421B1
S315080008E0012003F0D5F904210120FFF753FF00F09A
S315080008F0B5FE084800F066FF02F016FF00BF04B018
S3150800090010BD00BF3878000800C00550A4100020AC
S3150800091060E3160080841E0030B593B001212A20BA
S3150800092001F09CF90FAB00221A605A609A60002207
S315080009302F49304804F0E6F803468DF841302E4B2F
S3150800094005AC1D460FCD0FC40FCD0FC495E80300A7
S3150800095084E8030003AB00221A605A6003238DF86B
S315080009600E3001238DF8083000238DF80930002356
S315080009708DF80A3000238DF80B301E4803F0BCFFB3
S3150800098003238DF8183040F6E44308939DF8413068
S315080009900093002300221949164804F0F9F8034683
S315080009A0079304238DF8153004238DF8243000238B
S315080009B08DF8113085238DF8093001238DF808301C
S315080009C005AA0FAB19460B4803F010FA02AA03ABA7
S315080009D01946084803F0E8FE094BD3F82033084ABD
S315080009E043F48033C2F8203300BF13B030BD00BFD4
S315080009F0002D310100400059407800088096980083
S31508000A0000C0035000B583B001210B4806F03EFA3A
S31508000A100023ADF8063004E0BDF806300133ADF822
S31508000A200630BDF80630B3F5487FF5D300BF00BFE2
S31508000A3003B05DF804FB00BF0040005930B589B02B
S31508000A4001213A2001F00AF90121292001F006F9CD
S31508000A50002304220821002003F01AF900230122AA
S31508000A600421002003F014F90123042200210120A7
S31508000A7003F00EF9104B01AC1D460FCD0FC495E8D7
S31508000A80070084E807004FF4165303930B4B4FF403
S31508000A900022C3F83827094B4FF48022C3F83027C1
S31508000AA0064B1422C3F8202701AB1946044804F064
S31508000AB0A9FC00BF09B030BD6878000800C0035023
S31508000AC000C0055000B585B001900B468DF803307F
S31508000AD000238DF80F300DE09DF80F30019A13446E
S31508000AE01B781946094806F0A5FC9DF80F30013316
S31508000AF08DF80F309DF80F209DF803309A42EBD3FE
S31508000B0000BF00BF05B05DF804FB00BF00C005507C
S31508000B1000B585B0034602910192ADF80E300199F1
S31508000B20BDF80E30034A029805F000FD00BF05B077
S31508000B305DF804FB8478000808B501F00FFE06F09E
S31508000B40C5FA304B1B6F23F007032E4A43F0030305
S31508000B50136706F0C8FA2C4B9B6A03F08073002BC8
S31508000B6006D1294B03F500531A464FF48033936296
S31508000B70244BD3F8203123F00703224A43F002031B
S31508000B80C2F820311F4BD3F8283123F007031D4A3A
S31508000B9043F00203C2F828311A4BD3F8403123F048
S31508000BA00303184A43F00203C2F84031154BD3F841
S31508000BB0603123F00303134A43F00203C2F860319D
S31508000BC0104BD3F8403223F003030E4A43F00203D6
S31508000BD0C2F840320B4BD3F8003223F00703094A18
S31508000BE043F00203C2F80032064BD3F8083223F06A
S31508000BF00703044A43F00203C2F8083200231846E2
S31508000C0008BD00BF008000500040005A00B583B000
S31508000C10034600918DF807309DF80730002B14D055
S31508000C209DF80730012B0ED09DF80730022B07D010
S31508000C309DF80730032B01D13F2308E0002306E087
S31508000C4040F2FF3303E03F2301E040F2FF33009A0E
S31508000C50D34003F00103002B04D140F2FE310A48C9
S31508000C6006F0B5F909489DF807200121009B99402F
S31508000C7013465B0013441B01034403F50153196033
S31508000C8000BF03B05DF804FB8C78000800C0035071
S31508000C9000B583B0034600918DF807309DF80730FC
S31508000CA0002B14D09DF80730012B0ED09DF8073085
S31508000CB0022B07D09DF80730032B01D13F2308E00C
S31508000CC0002306E040F2FF3303E03F2301E040F251
S31508000CD0FF33009AD34003F00103002B04D140F2FE
S31508000CE02D410A4806F073F909489DF807200121A5
S31508000CF0009B994013465B0013441B01034403F50C
S31508000D008253196000BF03B05DF804FB8C780008B5
S31508000D1000C0035030B589B0454B01AC1D460FCD18
S31508000D200FC495E8070084E8070001213A2000F07F
S31508000D3095FF0121292000F091FF01238DF812303B
S31508000D403C4B039301AB19463B4804F0F5FB0123E2
S31508000D5004220121022002F09BFF00230122022126
S31508000D60022002F095FF012304220321022002F04B
S31508000D708FFF012304220421022002F089FF2F4B52
S31508000D802F4AC3F834272D4B4FF00212C3F83027E9
S31508000D902A4B2C4AC3F83827284B1C22C3F820278D
S31508000DA04FF4487004F07CFD06F0F7F8142004F0C0
S31508000DB077FD06F0F9F8232004F072FD06F0EDF849
S31508000DC0B9211D4806F019FB06F0EEF800230022AB
S31508000DD00121022002F05CFF0023002202210220EA
S31508000DE002F056FF012300220321022002F050FFE1
S31508000DF0012300220421022002F04AFF0E4804F0D3
S31508000E001FFC0E4B0022C3F834270C4B0022C3F8F4
S31508000E1030270A4B0022C3F83827084B0022C3F8AC
S31508000E2020270021292000F019FF00BF09B030BD96
S31508000E30D878000800127A0000C0055000C0035098
S31508000E40020003000200010000B585B000F07EF83C
S31508000E501F4B039319E0002302930EE0039B1A68C5
S31508000E60029B9B001A44039B5968029B9B000B44F8
S31508000E7012681A60029B01330293039B9B68029ACD
S31508000E809A42EBD3039B0C330393039B114A934279
S31508000E90E1D3114B019314E00023009309E0019B71
S31508000EA01A68009B9B00134400221A60009B0133BA
S31508000EB00093019B5B68009A9A42F0D3019B083322
S31508000EC00193019B054A9342E6D3FFF7E3F900BF76
S31508000ED0D87D0008E47D0008E47D0008E47D00086C
S31508000EE082B003468DF807309DF90730002B0CDBDE
S31508000EF09DF8073003F01F0205499DF907305B0985
S31508000F00012000FA02F241F8232000BF02B0704720
S31508000F1000E100E082B003468DF807309DF90730FE
S31508000F20002B0DDB9DF8073003F01F0206499DF9DB
S31508000F3007305B09012000FA02F2603341F82320EA
S31508000F4000BF02B0704700BF00E100E008B51D4BC6
S31508000F501D4A9A601B4BD3F888301A4A43F470032B
S31508000F60C2F88830194B03F580531A464FF480436C
S31508000F709366174B03F500531A464FF0FF33136673
S31508000F80134B03F500531A46124B5366124B0222B3
S31508000F901A60BFF34F8F00BFBFF36F8F00BF0020EB
S31508000FA0FFF7B8FF0A4B03F500531A464FF44033D0
S31508000FB0D3600020FFF794FF054B4FF440321A61C7
S31508000FC000BF08BD00ED00E00000000800800050EA
S31508000FD000800044F7FF3700D0ED00E0014B1B68A6
S31508000FE0184670470810002000B583B00023019307
S31508000FF00E4B1B6F03F00703032B09D0032B0ED8E8
S31508001000012B09D0022B0AD1FFF7E8FF019007E070
S31508001010074B1B68019303E0064B019300E0FEE7CC
S31508001020019B184603B05DF804FB00BF0080005022
S3150800103000100020002D310100B583B0FFF7D4FF62
S3150800104001900A4B1B6F1B0B03F00F030093009BC9
S315080010500133019AB2FBF3F30193054A019B13602E
S31508001060019B184603B05DF804FB00BF00800050E2
S315080010700C100020014B1846704700BF00B4C4048A
S31508001080014B1B68184670470010002000B583B056
S315080010900190074A019B1360064B1B6F03F0070379
S315080010A0032B01D1FFF7C8FF00BF03B05DF804FBAF
S315080010B00010002000800050014B1846704700BF02
S315080010C0002D310182B0002301934FF0B4439B6891
S315080010D01B0C03F01F030C2B4CD801A252F823F06B
S315080010E0151100087511000875110008751100081A
S315080010F075110008751100085111000857110008EC
S315080011005D110008751100086311000869110008CF
S315080011106F1100084FF0B4439B6803F04073B3F1B6
S31508001120007F0ED0B3F1007F0ED8002B03D0B3F1A9
S31508001130807F03D008E0124B019308E0114B01931E
S3150800114005E0114B019302E00023019300BF12E072
S315080011500E4B01930FE00E4B01930CE00D4B0193E0
S3150800116009E00D4B019306E00C4B019303E00C4B91
S31508001170019300E000BF019B184602B0704700BF0C
S3150800118000093D0080841E0040420F00405DC600F5
S315080011900024F400C0EA210180BA8C010048E80165
S315080011A0005A6202014B1B6818467047041000205B
S315080011B084B001900B4B1A68019B13440A4A934268
S315080011C002D94FF0FF3309E0064B1B680393054B22
S315080011D01A68019B1344034A1360039B184604B01C
S315080011E0704700BF101000200000042000B587B02B
S315080011F0039002910192029B1F2B03D991210C485F
S3150800120005F0E5FE019B002B04D0039B03F58053F4
S31508001210059303E0039B03F500530593059B012102
S31508001220029A01FA02F21A6000BF07B05DF804FBE1
S31508001230F478000800B585B003468DF807309DF8A8
S315080012400730002B01D0012300E000230393039A03
S3150800125000210348FFF7CAFF00BF05B05DF804FB8D
S3150800126044C4035000B585B0002303930023ADF8AA
S315080012700A300023ADF808300023019301213A20F3
S3150800128000F0ECFC012304220321002002F000FDFB
S31508001290019805F0CAFF0120FFF7CCFF474B03F57D
S315080012A080531A464FF400235366454BDB6803F018
S315080012B08073002B14BF012300238DF803309DF89B
S315080012C00330002B05D03E4BDB683D4A23F0807384
S315080012D0D3603A4BD3F8803023F00303374A43F000
S315080012E00203C2F880309DF80330002B05D0344B3A
S315080012F0DB68334A43F08073D3604FF4607000F0C4
S31508001300E7FC03902E4B1B682D4A43F0010313603C
S315080013102B4BDB682A4A43F08073D3600123ADF870
S315080013200A300F23ADF80830BDF80A305B021A46BA
S31508001330BDF808305B001A432249234B13430B6060
S31508001340039B03F5D52303F2FC43DB081F4AA2FBE4
S3150800135003239B0A1E4A013B13611D4B0222C3F855
S31508001360F0201B4B4FF48072C3F804234FF0604300
S31508001370184AC3F8B02F4FF06043174AC3F8802EB7
S315080013804FF06043D3F8003E4FF0604243F4807359
S31508001390C2F8003E4FF06043FF2283F820204FF04A
S315080013A06043D3F8003E4FF0604223F48073C2F8DE
S315080013B0003E0023184605B05DF804FB0080005087
S315080013C0F0ED00E0001000E0E10100401791650231
S315080013D0000004E055CEACC50900010082B0034602
S315080013E08DF807309DF90730002B0CDB9DF8073088
S315080013F003F01F0205499DF907305B09012000FA31
S3150800140002F241F8232000BF02B0704700E100E075
S3150800141082B003468DF807309DF90730002B13DBA1
S315080014209DF8073003F01F0209499DF907305B094B
S31508001430012000FA02F2203341F82320BFF34F8F30
S3150800144000BFBFF36F8F00BF00BF02B0704700BF79
S3150800145000E100E082B003468DF807309DF90730B9
S31508001460002B0DDB9DF8073003F01F0206499DF996
S3150800147007305B09012000FA02F2603341F82320A5
S3150800148000BF02B0704700BF00E100E082B00190E3
S31508001490019B0E4A93420FD0019B0D4A93420BD0F3
S315080014A0019B0C4A934207D0019B0B4A934203D0F7
S315080014B0019B0A4A934201D1012300E0002303F06D
S315080014C00103DBB2184602B0704700BF0080045023
S315080014D000C004500000055000400550008005502B
S315080014E000B583B00190019B334A934214D0019B07
S315080014F0324A934210D0019B314A93420CD0019B49
S31508001500304A934208D0019B2F4A934204D040F2B6
S31508001510BE212E4805F05BFD019B274A934245D024
S31508001520019B254A934203D0019B244A93423AD011
S31508001530019B214A934207D0019B204A934203D03C
S31508001540019B1F4A93422BD0019B1B4A93420BD007
S31508001550019B1A4A934207D0019B194A934203D02A
S31508001560019B184A934218D0019B134A934212D002
S31508001570019B124A93420ED0019B114A93420AD00C
S31508001580019B104A934206D0019B0F4A934202D10F
S315080015904FF6FF730CE000230AE04FF6FF7307E0EF
S315080015A04FF6FF7304E04FF0FF3301E04FF0FF33CF
S315080015B0184603B05DF804FB0080045000C00450D0
S315080015C0000005500040055000800550407900088D
S315080015D000B583B001900B468DF803300198FFF7EC
S315080015E055FF0346002B04D140F26E31084805F03A
S315080015F0EEFC9DF80330002B03D0019B0122DA6034
S3150800160002E0019B0222DA6000BF03B05DF804FB2A
S315080016104079000800B583B0019000910198FFF762
S315080016205FFF0246009B934204D94FF494610A482F
S3150800163005F0CDFC019B1B6B03F00103002B04D1C5
S3150800164040F2A241044805F0C2FC019B009ADA6107
S3150800165000BF03B05DF804FB407900082DE9F04FA0
S315080016608BB005AB00221A605A609A60DA600123D3
S315080016708DF8143001AB00221A605A609A601A730A
S3150800168002238DF80A300121242000F0E7FA01AB85
S315080016901A460021354803F01BFD4FF6FF71334803
S315080016A0FFF7B8FF0023ADF8163005AB19462F48EB
S315080016B003F076FC4FF4806000F00AFB03462C4AE0
S315080016C013602B4B1B68BDF816200132B3FBF2F3EF
S315080016D0274A1360BDF8163001339BB2ADF81630B1
S315080016E0BDF81630B3F5806F04D2214B1B68214A2A
S315080016F09342DAD8002000F0EBFA03461E4AB2FB02
S31508001700F3F309931A4B1B68002298469146099BE6
S3150800171000221E46174606FB09F208FB07F3134488
S31508001720A8FB06452B441D46144B14EB030A45F14A
S31508001730000B134A4FF000035046594604F02EFD9D
S3150800174002460B460F4B1A600F4B00221A701021E7
S31508001750064805F07AFC0420FFF77CFE0420FFF714
S315080017603DFE002318460BB0BDE8F08F00800450FC
S31508001770AC10002080841E0000B0710B20A1070069
S3150800178040420F00B0100020CE10002008B50420FB
S31508001790FFF73EFE10210A4805F057FC10210848BD
S315080017A005F047FC0420FFF755FE00210448FFF723
S315080017B00FFF0021242000F051FA0023184608BD27
S315080017C0008004502DE9F04F85B001902049096842
S315080017D000200E460746019900200C46054604FBE4
S315080017E007F006FB05F10144A6FB042319440B4642
S315080017F0184912EB010A43F1000B174A4FF0000390
S315080018005046594604F0CAFC02460B46CDE9022367
S315080018100CE04FF6E85000F03DF8DDE902230F49E9
S3150800182012EB010843F1FF39CDE90289DDE902230C
S315080018304FF6E9518A4273F10003EAD2BDF808303F
S31508001840184600F027F80023184605B0BDE8F08FC3
S31508001850AC10002020A1070040420F001802FFFF2D
S3150800186000B583B0094805F0FDFB0190019B03F024
S315080018701003002B06D01021044805F0DAFB044BB0
S3150800188001221A7000BF03B05DF804FB0080045003
S31508001890CE10002000B585B00346ADF80630BDF879
S315080018A00630002B17D00E4805F0BCFB0346ADF8F2
S315080018B00E300B4805F0B6FB03469BB2ADF80C306C
S315080018C0BDF80C309AB2BDF80E30D31A9BB2BDF8EB
S315080018D006209A42EDD800BF05B05DF804FB00BFAC
S315080018E00080045000B587B0039002910192029BD4
S315080018F01F2B03D991210C4805F069FB019B002B8E
S3150800190004D0039B03F58053059303E0039B03F57B
S3150800191000530593059B0121029A01FA02F21A6007
S3150800192000BF07B05DF804FB9079000808B500BF52
S315080019300421044805F0A3FB0346002BF8D100BF99
S3150800194000BF08BD8440005008B5FFF7EFFF044B01
S31508001950D3F884309B0903F00303DBB2184608BDAD
S3150800196000400050054BDB6903F48033002B14BF9D
S3150800197001230023DBB21846704700BF000003505E
S31508001980024B0022DA6300BF704700BF0000035015
S31508001990024B41F67132DA6300BF7047000003500C
S315080019A0014B5B68184670470000035082B00190EF
S315080019B0024A019B536000BF02B070470000035003
S315080019C000B585B0019000230393019BB3F5607FB2
S315080019D035D0019BB3F5607F59D8019BB3F5207FBD
S315080019E04ED0019BB3F5207F51D8019BB3F5007FFC
S315080019F03ED0019BB3F5007F49D8019B002B03D04D
S31508001A00019BB3F5C07F42D1264B1B6F1B0B03F01E
S31508001A100F030393039B002B3BD0039B012B38D06A
S31508001A20039B032B35D0039B072B32D0039B0F2B2D
S31508001A302FD040F275211C4805F0C9FA29E0194B48
S31508001A40D3F880301B0903F003030393039B002B91
S31508001A5021D0039B012B1ED0039B022B1BD0039B7B
S31508001A60032B18D040F285210F4805F0B0FA12E092
S31508001A700C4BD3F890301B0E03F01F0303930BE0B7
S31508001A80084B1B6F9B0A03F00103039304E000BF96
S31508001A9002E000BF00E000BF039B0133184605B013
S31508001AA05DF804FB00800050DC79000810B584B0AE
S31508001AB001900091019BB3F5607F54D0019BB3F56B
S31508001AC0607F00F2BA80019BB3F5207F00F09F800B
S31508001AD0019BB3F5207F00F2B080019BB3F5007F30
S31508001AE07DD0019BB3F5007F00F2A780019B002BF8
S31508001AF004D0019BB3F5C07F40F09F80009B012B6B
S31508001B0010D0009B022B0DD0009B042B0AD0009B03
S31508001B10082B07D0009B102B04D040F2B6214C4866
S31508001B2005F055FA05F012FB05F008FB01F0FCF983
S31508001B30484B1B6F23F47042009B013B1B0345492E
S31508001B4013430B6705F095FA0446FFF7FDFE0346B7
S31508001B50C3F102031946204605F0DCFA01F030FC11
S31508001B6001F0EEF970E03C4BDB6803F08073002B64
S31508001B7014BF012300238DF80F309DF80F30002B7A
S31508001B8005D0354BDB68344A23F08073D360009B5D
S31508001B90012B0DD0009B022B0AD0009B032B07D0EC
S31508001BA0009B042B04D04FF43871294805F00FFA2E
S31508001BB0284BD3F8803023F03002009B013B1B01F1
S31508001BC024491343C1F880309DF80F30002B3AD0D2
S31508001BD0214BDB68204A43F08073D36033E0009BD7
S31508001BE0002B02D0009B202B04D940F2F321184881
S31508001BF005F0EDF9174BD3F8903023F0F852009B17
S31508001C00013B1B0613491343C1F890301CE0009BA7
S31508001C10012B07D0009B022B04D040F2F9210C4877
S31508001C2005F0D5F90B4B1B6F23F48062009B013B33
S31508001C309B02084913430B6706E040F2FF2104485C
S31508001C4005F0C5F900E000BF00BF04B010BD00BF35
S31508001C50DC79000800800050F0ED00E000B585B0A2
S31508001C6001900B468DF8033000230393019B5B0913
S31508001C70002B05D14FF44771124805F0A8F912E078
S31508001C80019B5B09012B02D10F4B03930BE0019BD0
S31508001C905B09022B02D10D4B039304E040F2263177
S31508001CA0084805F094F9019B03F01F0302939DF879
S31508001CB003301A4602990398FFF714FE00BF05B0D1
S31508001CC05DF804FBDC7900086480005068800050E9
S31508001CD010B584B001900023039300230293019B5F
S31508001CE0B3F5486F00F02983019BB3F5486F00F2FE
S31508001CF03683019BB3F5406F00F0EF82019BB3F585
S31508001D00406F00F22C83019BB3F5286F00F01B830C
S31508001D10019BB3F5286F00F22283019BB3F5206F70
S31508001D2000F00583019BB3F5206F00F21883019B31
S31508001D30B3F5106F00F0EF82019BB3F5106F00F258
S31508001D400E83019BB3F5F06F00F00383019BB3F597
S31508001D50F06F00F20483019BB3F5E06F00F0E182B7
S31508001D60019BB3F5E06F00F2FA82019BB3F5D06FE1
S31508001D7000F0CB82019BB3F5D06F00F2F082019B95
S31508001D80B3F5C06F00F0BB82019BB3F5C06F00F2DC
S31508001D90E682019BB3F5B06F00F0A582019BB3F50F
S31508001DA0B06F00F2DC82019BB3F5A06F00F08F8262
S31508001DB0019BB3F5A06F00F2D282019BB3F5806F49
S31508001DC000F07F82019BB3F5806F00F2C882019B09
S31508001DD0B3F5607F00F06682019BB3F5607F00F281
S31508001DE0BE82019BB3F5407F00F04F82019BB3F59D
S31508001DF0407F00F2B482019BB3F5207F00F0398260
S31508001E00019BB3F5207F00F2AA82019BB3F5007F00
S31508001E1000F02382019BB3F5007F00F2A082019BAC
S31508001E20B3F5807F00F20A82019BB3F5807F00F24A
S31508001E30968201A252F823F0512200085F23000877
S31508001E405F2300085F2300085F2300085F2300085C
S31508001E505F2300085F2300085F2300085F2300084C
S31508001E605F2300085F2300085F2300085F2300083C
S31508001E705F2300085F2300085F2300085F2300082C
S31508001E805F2300085F2300085F2300085F2300081C
S31508001E905F2300085F2300085F2300085F2300080C
S31508001EA05F2300085F2300085F2300085F230008FC
S31508001EB05F2300085F2300085122000873220008E8
S31508001EC05122000873220008C3220008C322000812
S31508001ED0C3220008C3220008C32200087322000890
S31508001EE0E72200088B220008FF2200080B230008BF
S31508001EF08B22000873220008732200087322000848
S31508001F005F2300085F2300085F2300085F2300089B
S31508001F105F2300085F2300085F2300085F2300088B
S31508001F20732200087322000873220008532300084E
S31508001F3023230008732200085F2300085F23000894
S31508001F405F2300085F2300085F2300085F2300085B
S31508001F505F2300085F2300085F2300085F2300084B
S31508001F605F2300085F2300085F230008C3220008D8
S31508001F7051220008512200085122000817230008A0
S31508001F808B2200088B2200082F230008472300080D
S31508001F90CF220008DB2200085F2300085F23000821
S31508001FA05F2300085F2300085F2300083B2300081F
S31508001FB0512200085F2300085F2300085F230008FA
S31508001FC05F2300085F2300085F2300085F230008DB
S31508001FD05F2300085F2300085F2300085F230008CB
S31508001FE05F2300085F2300085F2300085F230008BB
S31508001FF05F2300085F2300085F2300085F230008AB
S315080020005F2300085F2300085F2300085F2300089A
S315080020105F2300085F2300085F2300085F2300088A
S315080020205F2300085F2300085F2300085F2300087A
S315080020305F2300085F230008472200085F23000883
S315080020405F2300085F2300085F2300085F2300085A
S315080020505F2300085F2300085F2300085F2300084A
S315080020605F2300085F2300085F2300085F2300083A
S315080020705F2300085F2300085F2300085F2300082A
S315080020805F2300085F2300085F2300085F2300081A
S315080020905F2300085F2300085F2300085F2300080A
S315080020A05F2300085F2300085F2300085F230008FA
S315080020B05F2300085F2300085F2300085F230008EA
S315080020C05F2300085F2300085F2300085F230008DA
S315080020D05F2300085F2300085F2300085F230008CA
S315080020E05F2300085F2300085F2300085F230008BA
S315080020F05F2300085F2300085F2300085F230008AA
S315080021005F2300085F2300085F2300085F23000899
S315080021105F2300085F2300085F2300085F23000889
S315080021205F2300085F2300085F2300085F23000879
S315080021305F2300085F2300085F2300085F23000869
S315080021405F2300085F2300085F2300085F23000859
S315080021505F2300085F2300085F2300085F23000849
S315080021605F2300085F2300085F2300085F23000839
S315080021705F2300085F2300085F2300085F23000829
S315080021805F2300085F2300085F2300085F23000819
S315080021905F2300085F2300085F2300085F23000809
S315080021A05F2300085F2300085F2300085F230008F9
S315080021B05F2300085F2300085F2300085F230008E9
S315080021C05F2300085F2300085F2300085F230008D9
S315080021D05F2300085F2300085F2300085F230008C9
S315080021E05F2300085F2300085F2300085F230008B9
S315080021F05F2300085F2300085F2300085F230008A9
S315080022005F2300085F2300085F2300085F23000898
S315080022105F2300085F2300085F2300085F23000888
S315080022205F2300085F2300085F2300085F23000878
S315080022305F2300085F230008F3220008019BB3F51B
S31508002240C07F05D08BE0FEF7CFFE034603938CE0F4
S31508002250FEF7F2FE0346039387E0FEF7C5FE044643
S315080022604FF40070FFF7ACFB0346B4FBF3F303939C
S315080022707BE0FEF7E1FE04464FF42070FFF7A0FB73
S315080022800346B4FBF3F303936FE0FEF7D5FE04466B
S315080022904FF42070FFF794FB0346B4FBF3F35B0897
S315080022A0039362E002AB0021184600F05FFE029C31
S315080022B04FF46070FFF784FB0346B4FBF3F3039314
S315080022C053E003AB0021184600F0DCFE4DE003ABFB
S315080022D00021184600F092FC47E003AB002118469F
S315080022E000F0E2FC41E003AB0021184601F022F8B9
S315080022F03BE003AB0021184601F06EF935E003AB6D
S315080023000021184600F020FF2FE003AB00211846F5
S3150800231001F0BAF829E003AB0021184601F008F9E4
S3150800232023E003AB0021184601F064F81DE003AB77
S315080023300021184600F016FD17E003AB00211846E9
S3150800234000F064FD11E003AB0021184600F0B2FD71
S315080023500BE003AB0021184600F040FF05E040F211
S315080023607941044804F033FE00BF039B184604B0C5
S3150800237010BD00BFDC79000800B585B001900023C8
S315080023800393019BB3F5486F00F0CD81019BB3F52C
S31508002390486F00F2D481019BB3F5406F00F0B1811C
S315080023A0019BB3F5406F00F2CA81019BB3F5286F14
S315080023B000F0BF81019BB3F5286F00F2C081019B35
S315080023C0B3F5206F00F0A981019BB3F5206F00F2E9
S315080023D0B681019BB3F5106F00F07B81019BB3F5C5
S315080023E0106F00F2AC81019BB3F5086F00F077819E
S315080023F0019BB3F5086F00F2A281019BB3F5F06F5C
S3150800240000F05B81019BB3F5F06F00F29881019BA8
S31508002410B3F5E06F00F07B81019BB3F5E06F00F246
S315080024208E81019BB3F5D06F00F04D81019BB3F50A
S31508002430D06F00F28481019BB3F5C06F00F037813D
S31508002440019BB3F5C06F00F27A81019BB3F5B06FBB
S3150800245000F01B81019BB3F5B06F00F27081019B00
S31508002460B3F5A06F00F04781019BB3F5A06F00F2AA
S315080024706681019BB3F5806F00F00D81019BB3F572
S31508002480806F00F25C81019BB3F5607F00F02D81BF
S31508002490019BB3F5607F00F25281019B802B00F20D
S315080024A0C780019B242BC0F04A81019B243B5C2BEF
S315080024B000F2458101A252F823F000BF97260008D2
S315080024C097260008972600089726000897260008EA
S315080024D03F2700088B2600083F270008AF2600087C
S315080024E0C72600083F2700083F2700083F2700089F
S315080024F03F2700083F2700083F2700083F27000816
S315080025003F2700083F2700083F2700083F27000805
S315080025103F2700083F2700083F2700083F270008F5
S31508002520BB2600080F2700083F2700083F2700089A
S315080025303F2700083F2700083F2700083F270008D5
S315080025403F2700083F2700083F2700083F270008C5
S315080025503F2700083F2700083F2700083F270008B5
S31508002560972600083F2700083F2700083F2700084E
S31508002570D32600083F2700083F2700081B27000826
S3150800258033270008F7260008032700083F27000816
S315080025903F2700083F2700083F2700083F27000875
S315080025A0272700083F2700083F2700083F2700087D
S315080025B03F2700083F2700083F2700083F27000855
S315080025C03F2700083F2700083F2700083F27000845
S315080025D03F2700083F2700083F2700083F27000835
S315080025E03F2700083F2700083F2700083F27000825
S315080025F03F2700083F2700083F2700083F27000815
S315080026003F2700083F2700083F2700083F27000804
S315080026103F2700083F2700083F2700083F270008F4
S315080026203F2700083F2700083F2700083B260008E9
S31508002630019BB3F5807F34D081E0464B1B6F03F0D6
S315080026400703013B032B17D801A252F823F000BF5A
S315080026507326000861260008672600086D2600080C
S315080026600523039310E0032303930DE00823039344
S315080026700AE00223039307E00023039340F2AB41E9
S31508002680354804F0A4FC00BF5FE003AB1946002000
S3150800269000F050FE59E003AB1946002000F0F2FCAA
S315080026A053E003AB1946002000F096FF4DE003AB5C
S315080026B01946002000F048FD47E003AB1946002004
S315080026C000F08CFD41E003AB1946002000F0DCFE6B
S315080026D03BE003AB1946002000F02AFF35E003ABC8
S315080026E01946002000F084FC2FE003AB19460020B1
S315080026F000F03CFC29E003AB1946002000F07EFA06
S3150800270023E003AB1946002000F0CEFA1DE003AB28
S315080027101946002000F06EFE17E003AB19460020AC
S3150800272000F020FB11E003AB1946002000F06EFB19
S315080027300BE003AB1946002000F0BCFB05E040F2B5
S315080027405A51054804F043FC00BF039B184605B0E0
S315080027505DF804FB00800050DC790008074B03F5A0
S3150800276080531A464FF480135366054B03F580537E
S315080027701A464FF48033936200BF704700800050BA
S315080027800040005A00B585B00190019B1B680F2BCD
S3150800279004D940F64631964804F019FC019B5B685B
S315080027A00F2B04D940F64931914804F010FC019BDF
S315080027B09B680F2B04D940F64C318D4804F007FC72
S315080027C0019B1B7B0F2B04D940F64F31884804F038
S315080027D0FEFB019B5B7B0F2B04D940F652318448E4
S315080027E004F0F5FB019B9B7B3F2B04D940F6553142
S315080027F07F4804F0ECFB019BDB7B3F2B04D940F6BA
S3150800280058317B4804F0E3FB019B1B69032B04D971
S3150800281040F65B31764804F0DAFB019B5B69032BD3
S3150800282004D940F65E31724804F0D1FB019BDB699E
S31508002830032B04D940F661316D4804F0C8FB8020AB
S31508002840FFF79AFD0346032B00F01881694B03F541
S3150800285080531A464FF480135366674B45F60E02AB
S31508002860C3F88020644B03F580531A464FF0A063E3
S315080028709362614B03F500531A464FF48033936213
S3150800288000BF5D4B9B6D03F48033002BF9D100BF6D
S31508002890594B9B6D03F08043002BF9D1019B1B68B4
S315080028A01A06019B5B681B051343019A127B1204E7
S315080028B01343019A527B12031343019A927B9201A6
S315080028C01343019AD27B11464B4A0B4313614A4B79
S315080028D09B6903F00042019B1B699B061A43019BF7
S315080028E05B691B061343019A127E12041343019A6D
S315080028F0527E12021343019A927E11463E4A0B43B8
S3150800290093613D4B1B6A23F00F03019AD269002A93
S3150800291001D1002200E008221343019AD27E9200D8
S315080029201A43019BDB69344913430B62019BDB693C
S31508002930002B67D1304B9A6A304B1340019A92F8B4
S31508002940202052011343019A92F8212012011343C1
S31508002950019A92F82420D2001343274A43F480337D
S31508002960936200BF244B9A6D254B1340244A934229
S31508002970F8D1214B03F580531A464FF080739362C2
S315080029801D4B1B6923F47002019B9B681B051A49A2
S3150800299013430B61184B03F580531A464FF0004357
S315080029A09361019B93F8223083F00103DBB2002B7D
S315080029B006D0114B03F500531A464FF08073936205
S315080029C0019B93F8233083F00103DBB2002B4BD035
S315080029D0094B03F500531A464FF48033936200BF40
S315080029E0054B9B6D03F08043002BF9D13CE000BFFB
S315080029F0DC790008008000500040005AC7FFFEFE40
S31508002A0003000100019BDB69022B12D11D4B00223A
S31508002A101A611C4B00229A6102230393039B1A0333
S31508002A20039B1B0213431A464FF47F41164804F0D2
S31508002A3033FB144B9A6A154B1340019A92F82020DF
S31508002A4052011343019A92F8222012061343019A5F
S31508002A5092F82420D2001343019A92F823201204F4
S31508002A601146084A0B439362019B93F82530002BC5
S31508002A7005D0044B064AC3F8802000E000BF05B025
S31508002A805DF804FB0040005A3440005AC7FFFEFEBA
S31508002A90F1A7FFFF024B93F900301846704700BFB5
S31508002AA07E10002000B585B00190019B5B68072B5E
S31508002AB004D940F67C51404804F089FA019B9B688A
S31508002AC0032B04D940F67E513B4804F080FA019B5B
S31508002AD01B78032B04D94FF45861374804F077FA6A
S31508002AE0019B5B785BB2002B04DA40F682513248D0
S31508002AF004F06DFA4F230393019B5B788DF80B3036
S31508002B009DF80B20039B934228BF13468DF80A3085
S31508002B102A4B03F580531A464FF400035366284B95
S31508002B204FF4D1525A62264B03F580531A460223B4
S31508002B305360234B03F500531A460123536000BF25
S31508002B401F4B1B6903F48033002BF9D1019B1B78BB
S31508002B501A029DF80A301A4913434B61019B5B68B8
S31508002B601A02019B9B681B011343019A127B5200B0
S31508002B701343019A527B1146114A0B439360019BFA
S31508002B809B7B5A01019BDB7B1B011A43019B1B7C28
S31508002B905B001343019A527C1A43094B5A60019B06
S31508002BA09B7C002B03D0064B6FF4D1525A6200BFB0
S31508002BB005B05DF804FB00BFDC7900080080005012
S31508002BC00000025082B00346ADF80630034ABDF84D
S31508002BD00630138000BF02B0704700BF7A1000208D
S31508002BE082B00346ADF80630034ABDF806301380B6
S31508002BF000BF02B0704700BF7C10002000B585B04A
S31508002C000190009100230293254BD3F8203203F05C
S31508002C100703042B2CD801A252F823F06B2C0008CA
S31508002C20312C0008412C00084F2C00085D2C0008A8
S31508002C3002AB0021184600F037F8122303931FE071
S31508002C40FEF740FA034602930723039318E004F0BD
S31508002C50B6F9034602930A23039311E0FEF7A2FA94
S31508002C6003460293092303930AE00123039307E02B
S31508002C700023039340F6EC710A4804F0A8F900BF54
S31508002C80019B002B02D0029A019B1A60009B002B25
S31508002C9002D0009B039A1A6000BF05B05DF804FBDA
S31508002CA000800050DC79000800B585B001900091DD
S31508002CB000230393294BD3F8283103F00703013B7C
S31508002CC0052B33D801A252F823F000BFE52C0008E3
S31508002CD0092D0008212D0008FD2C0008F12C0008FC
S31508002CE0152D0008FEF77AF903900523029325E0CF
S31508002CF0FEF774F90390062302931FE0FEF7E2F944
S31508002D0003900723029319E0FEF7BAF90390032309
S31508002D10029313E0FEF7B4F90390042302930DE03F
S31508002D20FEF7CAF903900223029307E000230293F1
S31508002D3041F22D010A4804F04AF900BF019B002B15
S31508002D4002D0019B039A1A60009B002B02D0009BBD
S31508002D50029A1A6000BF05B05DF804FB00800050B7
S31508002D60DC79000800B585B0019000910023029334
S31508002D70244BD3F8603203F00703013B032B29D811
S31508002D8001A252F823F000BF992D0008A92D0008CA
S31508002D90C72D0008B92D000802AB0021184600F01F
S31508002DA071F9102303931DE002AB0021184600F0C9
S31508002DB0CBF91123039315E0FEF784F90346029332
S31508002DC0072303930EE0FEF777F9034602930223DF
S31508002DD0039307E00023039341F291010A4804F0A4
S31508002DE0F6F800BF019B002B02D0029A019B1A60DD
S31508002DF0009B002B02D0009B039A1A6000BF05B007
S31508002E005DF804FB00800050DC79000800B585B049
S31508002E100190009100230293244BD3F8943203F0D7
S31508002E200703013B032B29D801A252F823F000BF60
S31508002E30412E0008512E00086F2E0008612E00084A
S31508002E4002AB0021184600F01DF9102303931DE07C
S31508002E5002AB0021184600F077F91123039315E019
S31508002E60FEF730F903460293072303930EE0FEF7B5
S31508002E7023F9034602930223039307E000230393EF
S31508002E8041F2C4010A4804F0A2F800BF019B002BD6
S31508002E9002D0029A019B1A60009B002B02D0009B6D
S31508002EA0039A1A6000BF05B05DF804FB0080005065
S31508002EB0DC79000800B585B00190009100230293E3
S31508002EC0174BD3F8703203F00303012B02D0022B01
S31508002ED008D00CE002AB0021184600F035F91123A2
S31508002EE003930CE0002302931523039307E00023C2
S31508002EF0039341F2EF010B4804F069F800BF019B08
S31508002F00002B02D0029A019B1A60009B002B02D06C
S31508002F10009B039A1A6000BF05B05DF804FB00BF6A
S31508002F2000800050DC790008044B03F580531A46EC
S31508002F304FF48033136700BF704700BF008000500E
S31508002F4008B58020FEF7C4FE0346064A934206D813
S31508002F50054B03F500531A464FF48033136700BF39
S31508002F6008BD00BF005A62020080005000B585B057
S31508002F7001900091002303931B4BD3F8803003F094
S31508002F800303032B12D0032B16D8012B02D0022BD6
S31508002F9006D011E0FEF728F803900E23029313E0FB
S31508002FA0FEF790F80390072302930DE0FEF716F854
S31508002FB003900623029307E00023029341F2A81127
S31508002FC00A4804F004F800BF019B002B02D0019BBD
S31508002FD0039A1A60009B002B02D0009B029A1A6083
S31508002FE000BF05B05DF804FB00800050DC790008DE
S31508002FF000B585B001900091002303931F4BD3F8C9
S31508003000003103F00303032B1FD801A252F823F063
S3150800301045300008213000082D30000839300008F6
S31508003020FEF72EF803900323029316E0FEF7BAF88C
S3150800303003900923029310E003F0BEFF03900823D0
S3150800304002930AE00123029307E00023029341F268
S31508003050DE110B4803F0BBFF00BF019B002B02D01B
S31508003060019B039A1A60009B002B02D0009B029AD0
S315080030701A6000BF05B05DF804FB00BF0080005071
S31508003080DC79000800B585B0019000910023039310
S315080030902B4BD3F8203103F00703062B37D801A2B0
S315080030A052F823F0F1300008C1300008CD3000088E
S315080030B0E5300008D9300008F73000080331000869
S315080030C0FDF78CFF03900523029328E0FDF7D8FF50
S315080030D003900323029322E0FDF7F4FF03900723EE
S315080030E002931CE0FDF7E8FF03900223029316E023
S315080030F00123029313E0FDF771FF03900623029361
S315080031000DE0FDF7BDFF03900423029307E00023BB
S31508003110029341F225210B4803F059FF00BF019B9A
S31508003120002B02D0019B039A1A60009B002B02D049
S31508003130009B029A1A6000BF05B05DF804FB00BF49
S3150800314000800050DC79000800B585B00190009138
S31508003150002303931F4BD3F8403103F00303032BDB
S315080031601FD801A252F823F09D31000879310008D2
S31508003170853100089131000803F021FF03900A23E6
S31508003180029316E0FEF70EF803900923029310E067
S3150800319003F019FF03900C2302930AE0012302931C
S315080031A007E00023029341F257210B4803F00FFF73
S315080031B000BF019B002B02D0019B039A1A60009B5B
S315080031C0002B02D0009B029A1A6000BF05B05DF87A
S315080031D004FB00BF00800050DC79000800B585B00C
S315080031E001900091002303931F4BD3F8603103F03D
S315080031F00303032B1FD801A252F823F0313200082B
S315080032000D320008193200082532000803F0D7FEEF
S3150800321003900A23029316E0FDF7C4FF03900923DF
S31508003220029310E003F0CFFE03900C2302930AE00A
S315080032300123029307E00023029341F289210B48F8
S3150800324003F0C5FE00BF019B002B02D0019B039A29
S315080032501A60009B002B02D0009B029A1A6000BFDE
S3150800326005B05DF804FB00BF00800050DC7900085B
S3150800327084B0019000914FF440130393009B002BF8
S315080032800AD1019B0D4A934203D94FF48013039345
S315080032900FE0002303930CE0009B002B09DD019B44
S315080032A0074A934203D94FF48013039301E000239E
S315080032B00393039B184604B0704700BF005A620286
S315080032C0002D310100B585B001900091184B03F52A
S315080032D080531A464FF4803393660020FEF770FB3E
S315080032E00246019B02FB03F30193FEF73BFB0346F1
S315080032F08DF80F30FEF74CFBFEF752FB034623F41E
S315080033004013029300990198FFF7B2FF0246029B09
S31508003310134302930298FEF749FB9DF80F30002BE2
S3150800332001D0FEF72DFB00BF05B05DF804FB00BF1A
S315080033300080005000B585B00190009100230293EB
S315080033401D4BD3F8803103F00303032B0ED0032B58
S315080033501AD8012B02D0022B0FD015E002AB0021A0
S315080033601846FFF78FFE1023039315E0FDF7AAFE14
S3150800337003460293072303930EE0FDF79DFE0346DB
S3150800338002930223039307E00023039341F27A3161
S315080033900A4803F01CFE00BF019B002B02D0029ACC
S315080033A0019B1A60009B002B02D0009B039A1A60AF
S315080033B000BF05B05DF804FB00800050DC7900080A
S315080033C000B583B0022301934FF4C070FEF780FC6A
S315080033D00346074A934201D80123019301994FF402
S315080033E02070FEF763FB00BF03B05DF804FB00BF67
S315080033F080F0FA0200B585B001900091002303938E
S315080034001F4BD3F8403203F00303032B1FD801A246
S3150800341052F823F0493400082534000831340008EE
S315080034203D34000803F0CBFD03900A23029316E00F
S31508003430FDF7B8FE03900923029310E003F0C3FDDD
S3150800344003900C2302930AE00123029307E000236A
S31508003450029341F2F7310B4803F0B9FD00BF019B17
S31508003460002B02D0019B039A1A60009B002B02D006
S31508003470009B029A1A6000BF05B05DF804FB00BF06
S3150800348000800050DC79000800B585B001900091F5
S3150800349000230393244BD3F8003203F00703042BCD
S315080034A029D801A252F823F0F1340008BD340008E7
S315080034B0C9340008D5340008E134000803F07FFD5C
S315080034C003900A2302931EE0FDF76CFE039009237E
S315080034D0029318E003F077FD03900C23029312E0A1
S315080034E0FDF7AAFD03469B0A03930F2302930AE0FE
S315080034F00123029307E00023029341F238410B4867
S3150800350003F065FD00BF019B002B02D0019B039AC7
S315080035101A60009B002B02D0009B029A1A6000BF1B
S3150800352005B05DF804FB00BF00800050DC79000898
S3150800353000B585B00190009100230393244BD3F87E
S31508003540083203F00703042B29D801A252F823F006
S315080035509935000865350008713500087D3500087D
S315080035608935000803F02BFD03900A2302931EE019
S31508003570FDF718FE03900923029318E003F023FDD4
S3150800358003900C23029312E0FDF756FD03469B0AAF
S3150800359003930F2302930AE00123029307E0002313
S315080035A0029341F270410B4803F011FD00BF019BE5
S315080035B0002B02D0019B039A1A60009B002B02D0B5
S315080035C0009B029A1A6000BF05B05DF804FB00BFB5
S315080035D000800050DC79000800B585B001900091A4
S315080035E000230393114B1B6803F00403002B06D03A
S315080035F0FDF722FD034603930D23029305E002AA75
S3150800360003AB11461846FFF79FFD019B002B02D01E
S31508003610039A019B1A60009B002B02D0029A009B1A
S315080036201A6000BF05B05DF804FB00BF10E000E0BB
S31508003630024B034A1A6400BF704700BF0040095096
S315080036403254FFFF024B4AF6CD321A6400BF704768
S315080036500040095082B0019000BF054B5A6B019B90
S315080036601340002BF9D100BF00BF02B0704700BF5E
S315080036700040095008B500BF0421044803F08BFD3B
S315080036800346002BF8D100BF00BF08BD8440005098
S3150800369008B5FFF7EFFF044BD3F884309B0903F016
S315080036A00303DBB2184608BD00400050024B4AF639
S315080036B0E8521A6600BF70470040005000B583B054
S315080036C003468DF807300E4B1B690D4A43F0040379
S315080036D0136103F07BFD03F07BFD30BF03F07CFD37
S315080036E003F078FD9DF8073083F00103DBB2002B69
S315080036F001D003F04BFD00BF03B05DF804FB00BF2B
S3150800370000ED00E082B00190064BDB6E23F030033B
S31508003710019A12791146034A0B43D36600BF02B0D9
S31508003720704700BF0040005000B585B0234BDB6EE4
S3150800373023F0030343F002030293204BDB6E43F0AE
S3150800374003030193FFF7B2FF03F00AFD009003F0AD
S31508003750BDFC1B4B1B6F23F00703194A43F00103FB
S31508003760136703F0C0FC002000F0CCF803F036FD28
S3150800377003F036FD0023039308E0104A029BD36644
S315080037800E4A019BD366039B01330393039B032BCA
S31508003790F3DD0A4A029BD3660A4B9B6A03F0800351
S315080037A0002B04D040F2C751074803F010FC0098DC
S315080037B003F0E2FC00BF05B05DF804FB00400050D2
S315080037C00080005000400950287A000800B585B0EE
S315080037D001900B468DF80330019B002B03D1FDF7B2
S315080037E003FC039001E0019B03930D4B1B78002B10
S315080037F00AD0039B0B4A934206D89DF80330194614
S31508003800012000F011F806E09DF803301946022061
S3150800381000F00AF800BF00BF05B05DF804FB00BF62
S31508003820B4100020005A620210B586B003460A4654
S315080038308DF8073013468DF80630FFF729FF034643
S315080038401A469DF80730934252D0FDF7CDFB0590F6
S31508003850059B04939DF80730012B0CD1049B264A3F
S31508003860934204D940F24771244803F0B0FB012182
S31508003870059803F04FFC03F073FC0390204B03F507
S3150800388000531A464FF0007353669DF807301846E2
S3150800389003F0A8FC1A4C9DF80730184603F088FC7C
S315080038A0034623670BE0164BD3F8843003F0200356
S315080038B0002B04D040F25571104803F088FB104BDA
S315080038C05B6E03F00073002B06D10D4BD3F88430E2
S315080038D003F02003002BE6D0039803F04DFC9DF877
S315080038E00730022B05D10021059803F013FC00E0F0
S315080038F000BF06B010BD00BF005A6202287A000851
S315080039000040005000B587B003468DF80730002305
S315080039108DF8173000230493414B03F580531A465C
S315080039204FF0004353663F4B5B6C03F00103002BDB
S3150800393014BF012300238DF80F30FFF783FE9DF88F
S315080039400730002B29D10120FFF784FE354B5B6831
S3150800395003F001030293029B002B53D0314B03F56E
S3150800396000531A460123536002E0049B0133049373
S315080039702C4B1B6B03F00103002B03D1049B2A4A33
S315080039809342F2D9049B284A93423BD9FF238DF8E8
S31508003990173037E0049B01330493224B1B6B03F06B
S315080039A00803002B03D0049B1F4A9342F2D9049BB9
S315080039B01D4A934203D9FE238DF8173022E0194B8E
S315080039C003F500531A4620239362164B03F58053DA
S315080039D01A46012353600023049302E0049B013333
S315080039E00493104B9B6A03F02003002B03D1049B1E
S315080039F00D4A9342F2D9049B0B4A934202D9FE23FD
S31508003A008DF817309DF80F30002B01D0FFF710FE08
S31508003A1003F0EFFB9DF91730184607B05DF804FB75
S31508003A2000800050004009503F420F0000B585B0A5
S31508003A300190254B03F580531A464FF00043536611
S31508003A40224B5B6C03F00103002B14BF01230023F8
S31508003A508DF80F30FFF7F6FD019B5B785B001C4A7B
S31508003A6043F00103D3630B20FFF7F4FD174B5B68A4
S31508003A7023F4F872019B9B781B01144913434B608E
S31508003A80019BDB781B02019A527911460F4A0B43B8
S31508003A909360019B1B791B02019A927911460B4A86
S31508003AA00B431361019B1B781846FFF72BFF9DF804
S31508003AB00F30002B01D0FFF7BBFD03F09AFB012363
S31508003AC0184605B05DF804FB008000500040095018
S31508003AD00040005000B585B0019000238DF80F30E6
S31508003AE000238DF80E30019B0F2B04D940F6E351C5
S31508003AF0224803F06CFA019B0F2B01D90F2301937F
S31508003B001F4B5B6EDB0F8DF80E301D4B03F5805394
S31508003B101A464FF0004353661A4B5B6C03F00103D9
S31508003B20002B14BF012300238DF80F30FFF78AFD01
S31508003B308020FFF78FFD134B1B6A23F00F021149F4
S31508003B40019B13430B629DF80F30002B01D0FFF742
S31508003B506FFD9DF80E3083F00103DBB2002B06D013
S31508003B60074B03F500531A464FF00043536603F01C
S31508003B7040FB00BF05B05DF804FB00BF287A0008CB
S31508003B80008000500040095000B583B003460091FC
S31508003B908DF807309DF80730002B14D09DF80730B4
S31508003BA0012B0ED09DF80730022B07D09DF8073061
S31508003BB0032B01D13F2308E0002306E040F2FF3340
S31508003BC003E03F2301E040F2FF33009AD34003F0BD
S31508003BD00103002B04D140F2FE310A4803F0F7F93D
S31508003BE009489DF807200121009B994013465B0070
S31508003BF013441B01034403F50153196000BF03B0C6
S31508003C005DF804FBC07A000800C0035000B583B015
S31508003C10034600918DF807309DF80730002B14D025
S31508003C209DF80730012B0ED09DF80730022B07D0E0
S31508003C309DF80730032B01D13F2308E0002306E057
S31508003C4040F2FF3303E03F2301E040F2FF33009ADE
S31508003C50D34003F00103002B04D140F22D410A485A
S31508003C6003F0B5F909489DF807200121009B994002
S31508003C7013465B0013441B01034403F58253196082
S31508003C8000BF03B05DF804FBC07A000800C003500B
S31508003C9000B585B002910192009303468DF80F3066
S31508003CA09DF80F30002B14D09DF80F30012B0ED045
S31508003CB09DF80F30022B07D09DF80F30032B01D14A
S31508003CC03F2308E0002306E040F2FF3303E03F23EA
S31508003CD001E040F2FF33029AD34003F00103002BC0
S31508003CE004D14FF4B071314803F071F9019B002BF0
S31508003CF00FD0009B002B06D09DF80F30029918466E
S31508003D00FFF784FF05E09DF80F3002991846FFF784
S31508003D103BFF029B072B17D89DF80F2013465B0025
S31508003D2013441B011A1D224B1344029A92000F21B9
S31508003D3001FA02F0029A9200019901FA02F201468A
S31508003D40184603F058FA19E09DF80F2013465B0051
S31508003D5013441B0103F10C02154B1344029A083A4B
S31508003D6092000F2101FA02F0029A083A920001998C
S31508003D7001FA02F20146184603F03DFA019B002BB0
S31508003D800FD1009B002B06D09DF80F3002991846DC
S31508003D90FFF73CFF05E09DF80F3002991846FFF73C
S31508003DA0F3FE00BF05B05DF804FB00BF0C7B0008FE
S31508003DB030C0035082B0019000BF019B5B6903F0DD
S31508003DC08073002BF9D1019B03F500531A46012392
S31508003DD0536000BF044B5B6803F00203002BF9D164
S31508003DE000BF00BF02B070470040005930B5A5B00B
S31508003DF00590049103924FF000031C93B24B07AC55
S31508003E001D460FCD0FC495E8030084E80300059B03
S31508003E10AE4A934203D0D921AD4803F0D8F8002220
S31508003E20AC49059800F06EFE03468DF88730049B72
S31508003E305B79ADF86E309DF887309BB2BDF86E2081
S31508003E409A4203D3BDF86E308DF887300598FFF790
S31508003E50B1FF049B1B798DF886309DF88630002BC0
S31508003E6014D12A20FDF734FF1F901F9B994A9342CD
S31508003E7005D39DF887301F9AB2FBF3F31F931F995A
S31508003E80059800F0EFFD03468DF88630049BDB7835
S31508003E901B0103F030029DF886301B0403F4FE0371
S31508003EA01A439DF887301B0703F0E0431343239317
S31508003EB0049B1B78002B03D0239B43F00203239318
S31508003EC0049B5B78002B03D0239B43F004032393C6
S31508003ED0049B9B78002B03D0239B43F00803239372
S31508003EE0059B239A9A60049BDB881A46059B1A61F0
S31508003EF0049B1B891B04049A52891A43059B1A6260
S31508003F000023229300F02FBC0399229A13469B00A4
S31508003F1013449B000B441B788DF86D300399229A45
S31508003F2013469B0013449B000B4408331B68ADF8EB
S31508003F306E309DF86D30002B01D1674900E0674966
S31508003F409DF86D209DF8873000931346002205984A
S31508003F5000F01EFE1A901A9B1993BDF86E30ADF844
S31508003F606230BDF86220199B934238BF13461A93F4
S31508003F70059A229B1B01134448331A68584B134071
S31508003F8023939DF86D3003F00302239B42EA030155
S31508003F900398229A13469B0013449B00034401335B
S31508003FA01B789B0003F01C0319430398229A1346B7
S31508003FB09B0013449B00034402331B785B01DBB26E
S31508003FC019430398229A13469B0013449B00034403
S31508003FD003331B781B0303F4E04319430398229A1F
S31508003FE013469B0013449B00034404331B781B04AD
S31508003FF003F4E02319430398229A13469B001344BB
S315080040009B00034410331B785B0503F460031943D4
S315080040100398229A13469B0013449B0003440533D6
S315080040201B781B0703F0405341EA03020599229BBC
S315080040301B010B4448331A60059A229B1B01134443
S3150800404048331B681B0B03F007031793179B013BA9
S31508004050042B27D801A252F823F000BF71400008AC
S31508004060714000087D4000088B4000089740000812
S315080040701C4BD3F88031ADF8843019E0194BD3F8CE
S3150800408080311B0CADF8843012E0164BD3F884311E
S31508004090ADF884300CE0134BD3F884311B0CADF823
S315080040A0843005E00F4BD3F88031ADF8843000BF7B
S315080040B09DF86D30012B02DC002B15DA40E3022B4C
S315080040C000F0E9813CE300BFA47B000800400059EA
S315080040D0587B0008005A620280969800404B4C00B4
S315080040E0008F18CF0080E00F4FF000031E93059A4B
S315080040F0229B1B01134448331B681B0B03F0070361
S315080041001793179B012B02D0179B022B05D1D04B77
S31508004110D3F88031ADF8843073E0179B032B21D197
S31508004120CB4BD3F880311B0CADF884309DF86D303D
S31508004130002B0BD1C64BD3F88C311B0C1BB207EEE8
S31508004140903AF8EEE77ACDED1E7A5AE0C04BD3F8EE
S3150800415094311B0C1BB207EE903AF8EEE77ACDEDD8
S315080041601E7A4EE0179B042B22D1B94BD3F8843123
S31508004170ADF884309DF86D30002B0CD1B44BD3F8D4
S315080041808C311B0C1BB25B0007EE903AF8EEE77A0F
S31508004190CDED1E7A35E0AE4BD3F894311B0C1BB22D
S315080041A05B0007EE903AF8EEE77ACDED1E7A28E046
S315080041B0A74BD3F884311B0CADF884309DF86D30CD
S315080041C0002B0FD1A24BD3F88C311B0C1BB21A460D
S315080041D013465B00134407EE903AF8EEE77ACDED06
S315080041E01E7A0EE09A4BD3F894311B0C1BB21A4672
S315080041F013465B00134407EE903AF8EEE77ACDEDE6
S315080042001E7ABDF8842049F6FF7313402393239B37
S315080042109B041D93239B03F40043002B03D01D9B93
S3150800422043F000431D93059A229B1B011344483310
S315080042301B689B0803F007030133012202FA03F304
S315080042400E930E9B022B21D19DF86D30002B0ED1BB
S315080042507F4BD3F88C311BB207EE903AF8EEE77A2B
S315080042609DED1E7A77EE277ACDED1E7A50E0784BD3
S31508004270D3F894311BB207EE903AF8EEE77A9DED43
S315080042801E7A77EE277ACDED1E7A41E09DF86D30DD
S31508004290002B0ED16E4BD3F890311BB207EE903A35
S315080042A0B8EEE77ADDED1E7A77EE677ACDED1E7AFF
S315080042B011E0674BD3F898311BB207EE903AB8EE87
S315080042C0E77ADDED1E7A77EE677A9DED1E7A77EE50
S315080042D0277ACDED1E7A0E9B07EE903AF8EEE77A2E
S315080042E0F0EE006A87EEA67ADDED1E6AC6EE877ADC
S315080042F0CDED1E7A564BD3F888311BB207EE903AAD
S31508004300F8EEE77A9DED1E7A77EE277ACDED1E7ADE
S315080043100399229A13469B0013449B000B440433CB
S315080043201B78002B1ED10399229A13469B0013442F
S315080043309B000B4404331B78184600F08BFC07EEF1
S31508004340900AF8EE677ADFED476A87EEA67AF7EE07
S31508004350046AC6EE877A9DED1E7A67EE277ACDED5A
S315080043601E7A1AE00399229A13469B0013449B006F
S315080043700B440C331B6807EE903AF8EE677ADFEDCC
S31508004380396A87EEA67AF7EE046AC6EE877A9DED55
S315080043901E7A67EE277ACDED1E7ADDED1E7AB1EE2E
S315080043A0007A27EE877A0E9B07EE903AF8EEE76AD0
S315080043B09FED286AC6EE267ADFED276A67EEA67AAB
S315080043C077EE277ACDED1E7A1D9BB3F1004F17D0F5
S315080043D0BDF8843007EE903AF8EEE77ADFED1F6A0B
S315080043E087EEA67ADDED1E7ADFED1D6A77EEA67AF0
S315080043F067EE277A9FED1A7A77EEC77ACDED1E7AA1
S31508004400DDED1E7AF5EEC07AF1EE10FA0ADDDDED85
S315080044101E7AF1EE677AB6EE007A77EEC77AFDEE87
S31508004420E77A07E0B6EE007ADDED1E7A77EE677A70
S31508004430FDEEE77ACDED0D7A0D9BB3F5003F13DB64
S315080044401D9B6FEA53436FEA43431D931BE000BF6E
S315080044500080E00F00008043000020440000004771
S315080044600000004900007A440D9B13F5003F04DA6A
S315080044701D9B43F400331D9305E00D9BC3F3110305
S315080044801D9A13431D93059A229B05331B0113445A
S315080044901D9A1A605AE10399229A13469B001344FF
S315080044A09B000B4404331B78184600F0D3FB07EE39
S315080044B0900AB8EE677A5FED156AC7EE267ACDEDF3
S315080044C01C7A059A229B1B01134448331B685B0917
S315080044D0DBB203F007038DF85B309DF85B309B0079
S315080044E090336B44743BD3ED007AFCEEE77A17EE13
S315080044F0903A5C2B02D1A44B209317E09DF85B30D1
S315080045009B0090336B44743BD3ED006A9DF85B3097
S315080045109B0090336B44743BD3ED007AB7EE007A78
S3150800452037EE877AC6EE877ACDED207ABDF88430E5
S3150800453007EE903AB8EE677ADFED946AC7EE267A08
S315080045409DED207A67EE277ACDED157ADDED157AA1
S315080045509FED8E7A67EE877AF5EEC07AF1EE10FA5D
S315080045600CD5DDED157A9FED897A67EE877AB6EE7A
S31508004570007A77EEC77AFDEEE77A0BE0DDED157A7D
S315080045809FED827A67EE877AB6EE007A77EE877ABB
S31508004590FDEEE77ACDED147A7D4A229B05331B01A1
S315080045A013441B687A4A229B05331B0113440022D5
S315080045B01A60149B03F40043002B0ED0744A229B06
S315080045C005331B0113441B68714943F00042229BC3
S315080045D005331B010B441A600BE06D4A6C49229B9C
S315080045E005331B0113441A68229B05331B010B4430
S315080045F01A60674A229B05331B0113441A68149BE9
S315080046009904644B0B4062491A43229B05331B01EC
S315080046100B441A60604BD3F88831002313935E4B22
S31508004620D3F888311BB207EE903AF8EEE77ACDED6B
S31508004630127A9DF85B30012202FA03F3139A92FB71
S31508004640F3F307EE903AF8EEE77A9DED127A77EEF5
S31508004650277ACDED117AF7EE046A9DED1C7AC6EE3F
S31508004660877A9DED117A67EE277ACDED117A9DF856
S315080046705B309B0090336B44743BD3ED007A9FED1F
S31508004680477AC7EE276A9DF85B309B0090336B44E8
S31508004690743BD3ED007AB7EE007A77EE877A86EE2A
S315080046A0A77ADDED117AF1EE006A67EEA67A77EE63
S315080046B0277A9FED3B7A77EE877ACDED107ABDF8AB
S315080046C0843007EE903AB8EEE77ADFED306AC7EE47
S315080046D0267AB1EE677ADDED107A67EE277A9FEDD6
S315080046E0307A77EE877ACDED107ADDED107AF5EE31
S315080046F0C07AF1EE10FA08D5DDED107AB6EE007A3A
S3150800470077EEC77AFDEEE77A07E0DDED107AB6EECA
S31508004710007A77EE877AFDEEE77ACDED0F7A1C4AB6
S31508004720229B05331B0113441A680F9BC3F311031D
S3150800473017491A43229B05331B010B441A6005E0EF
S3150800474040F2DF11174802F042FC00BF1A9BC3F380
S3150800475009020599229B05331B010B4404331A6091
S31508004760229B01332293059B094A934201D10222D7
S3150800477000E00022229B9A423FF6C6AB059802F05B
S3150800478098FD00BF25B030BDE71B753F0000004708
S31508004790004000590000FC7F0080E00F00008048C0
S315080047A000000049587B000800B585B003900291C7
S315080047B00192039B2B4A934204D040F252212A4885
S315080047C002F005FC0398FFF7F5FA029B1B7803F045
S315080047D00703029A5278002A01D0082200E0002234
S315080047E01A43029B9B781B0103F070031343029A3A
S315080047F0D278002A02D04FF4807200E000221A43D1
S31508004800039B1A67039BDB6A23F48B3323F48073B9
S31508004810029A1279120202F4E0621A43029B5B7949
S315080048201B0303F480531343029A9279002A02D099
S315080048304FF4803200E000221A43039BDA620199A2
S31508004840039800F013F8039802F033FD029BDB7916
S31508004850002B03D00121039802F022FD00BF05B00A
S315080048605DF804FB00400059587B000800B585B088
S3150800487001900091019B1E4A934204D040F28A217E
S315080048801C4802F0A4FB019B5B6803F00103002BA4
S3150800489014BF012300238DF80F30019802F009FD9B
S315080048A0009B1B781A46009B5B781B029BB21A4337
S315080048B0009B9B781B0403F480331343009AD27839
S315080048C0002A02D04FF4003200E000221A43019B6E
S315080048D0C3F898209DF80F3083F00103DBB2002B54
S315080048E002D00198FFF766FA00BF05B05DF804FB31
S315080048F000400059587B000800B585B00190019B1F
S31508004900524A934204D040F20731514802F05FFB05
S31508004910019802F0CEFC019B4E4ADA6000BF019B6B
S315080049205A694D4B1340002BF9D1019B00229A611D
S31508004930019B0022C3F8982000BF019B5B6903F422
S315080049404013002BF9D102E0019802F073FC019B99
S315080049505B6903F48073002BF6D1019B9B6F002BD8
S31508004960F2D102E0019802F073FC019B5B6903F443
S315080049700073002BF6D1019BD3F88830002BF1D1B8
S31508004980019802F05EFC019802F06AFC0198FFF7B4
S3150800499011FA019B00229A60019B00221A61019B71
S315080049A00022DA62019B00221A62019B30221A67F2
S315080049B0019B3022C3F880200023039319E0019A53
S315080049C0039B1B011344483342F260021A60019AA2
S315080049D0039B05331B011344204A1A60019A039B63
S315080049E005331B011344043300221A60039B013369
S315080049F00393019B154A934201D1022200E000224B
S31508004A00039B9A42DBD80023039308E0019B039A91
S31508004A102832002143F82210039B01330393019B9C
S31508004A200A4A934201D1102200E00022039B9A42CF
S31508004A30ECD80B49019802F01BFC0949019802F0D1
S31508004A4023FC00BF05B05DF804FB00BF0040005919
S31508004A50587B0008120002005200010000C00280C4
S31508004A608F330F8000B587B001900091019B214AD2
S31508004A70934204D040F25D311F4802F0A8FA009B29
S31508004A80002B18D12A20FDF723F90090009B002B54
S31508004A9001D101230093009B184A93420BD9154B69
S31508004AA09B681B0F03F007030593059B0133009AC8
S31508004AB0B2FBF3F30093009B03F5742303F23F2341
S31508004AC00093009B0E4AA2FB03239B0C0093009BBA
S31508004AD0013B0093009B04937F230393039A049B53
S31508004AE0934228BF13460093009BDBB2184607B0D3
S31508004AF05DF804FB00400059587B0008005A620222
S31508004B0083DE1B4300B589B0039002910192039B93
S31508004B101C4A934204D04FF466711B4802F057FAB8
S31508004B20029B002B04D140F29931174802F04FFA44
S31508004B30029B0693154B0593059A069B934228BF3D
S31508004B4013460293019B002B03D12A20FDF7C0F8D8
S31508004B500190019A029B13445A1E029BB2FBF3F37F
S31508004B600793079B002B02D0079B013B0793079BE4
S31508004B70032B01D903230793079BDBB2184609B019
S31508004B805DF804FB00400059587B0008005A620291
S31508004B9000B589B00390029101928DF80330039B0A
S31508004BA0284A934204D040F2D231274802F00FFA3D
S31508004BB0029B002B04D140F2D331234802F007FAB6
S31508004BC09DF80330002B01D1204A00E0204A029BC1
S31508004BD09A4207D29DF80330002B01D11B4B00E007
S31508004BE01B4B0293019B002B04D12A20FDF770F87A
S31508004BF0069001E0019B06939DF828300133069A3A
S31508004C00B2FBF3F30693069A029B13445A1E029BC1
S31508004C10B2FBF3F30793079B002B02D0079B013BDC
S31508004C200793079B059340F2FF330493049A059B69
S31508004C30934228BF13460793079B9BB2184609B0B1
S31508004C405DF804FB00400059587B000880969800E0
S31508004C50404B4C0000B585B003468DF8073000235D
S31508004C60039302AB184600F0E9F89DF80730042BC9
S31508004C7020D801A252F823F08D4C0008954C000864
S31508004C809D4C0008A54C0008AD4C000840F2BA43FC
S31508004C90039315E040F2E243039311E040F6C41390
S31508004CA003930DE040F6B833039309E04FF4166317
S31508004CB0039305E040F27F41044802F088F900BFFB
S31508004CC0039B184605B05DF804FB00BF587B000837
S31508004CD000B583B001900B468DF80330019BB3F104
S31508004CE0B24F04D040F209110A4802F070F9602167
S31508004CF0019802F037FB9DF80330002B03D0019B87
S31508004D0001221A6102E0019B02221A6100BF03B068
S31508004D105DF804FBBC7B000800B585B001900091E6
S31508004D2000230393019BB3F1B24F04D04FF4B37140
S31508004D303E4802F04CF9019B03F580531A460123BD
S31508004D405360009B1B7883F00103DBB2002B0CD069
S31508004D50019B5B6903F00103002B06D040210198F3
S31508004D6002F000FB019B02221A61009B5B78002B74
S31508004D7003D0039B43F480530393009B9B78002B3B
S31508004D8003D1009BDB68002B0BD0039B43F4007315
S31508004D900393009BDB68002B03D0009BDA68019B1A
S31508004DA05A62009BDB78002B03D0039B43F4807385
S31508004DB00393009B1B79002B03D0039B43F040030E
S31508004DC00393009B5B79002B03D0039B43F080037E
S31508004DD00393009B9B799B001A46039B13430393FB
S31508004DE0009BDB791B011A46039B13430393009B25
S31508004DF01B7A1A46039B13430393019B039ADA60B3
S31508004E00009B1B78002B0CD0019B5B6903F0010308
S31508004E10002B06D12021019802F0A4FA019B012259
S31508004E201A6100BF05B05DF804FB00BFBC7B000833
S31508004E30014B9B691846704700C0075000B585B0FE
S31508004E400190114B03F580531A464FF4803353668D
S31508004E50FFF7EEFF0390039B9B09DBB203F03F03CA
S31508004E60DAB2019B9A70039BDBB203F03F03DAB216
S31508004E70019B5A70039B1B0BDAB2019B1A7000BF89
S31508004E8005B05DF804FB00BF0080005082B00190B9
S31508004E90019B0E4A93420FD0019B0D4A93420BD0B9
S31508004EA0019B0C4A934207D0019B0B4A934203D0BD
S31508004EB0019B0A4A934201D1012300E0002303F033
S31508004EC00103DBB2184602B0704700BF00800450E9
S31508004ED000C00450000005500040055000800550F1
S31508004EE000B587B00390029101928DF80330039BB9
S31508004EF0244A93421AD0039B234A934214D0039B15
S31508004F00224A93420ED0039B214A934208D0039B20
S31508004F10204A934201D1042309E04FF0FF3306E00B
S31508004F20032304E0022302E0012300E000230593A3
S31508004F30194B0493059BB3F1FF3F03D18221174810
S31508004F4002F045F89DF80330002B0BD00499059A1A
S31508004F5013465B0013445B00029A1344019A41F816
S31508004F6023200BE0019B18020499059A13465B005F
S31508004F7013445B00029A134441F8230000BF07B0AC
S31508004F805DF804FB0080045000C004500000055082
S31508004F900040055000800550488103505C7C00089D
S31508004FA000B585B0019000910198FFF76FFF0346A1
S31508004FB0002B03D1A521454802F009F800230393E5
S31508004FC0019802F0F9F9019B03F500531A460123EB
S31508004FD0136300BF019B1B6B03F00203002BF9D17F
S31508004FE0009B5B889A04009B1B791B021343009A5B
S31508004FF0527A1343009A5278002A01D0402200E0E0
S3150800500000221343009A927A002A01D0802200E0F7
S3150800501000221343009AD27A002A01D0202200E007
S3150800502000221343009A127B002A01D0102200E0C6
S3150800503000221343009A527B002A01D0082200E07E
S3150800504000221343009A927B002A02D04FF4006292
S3150800505000E000221343009A9279002A02D04FF406
S31508005060803200E000221A43019B5A60019B03F537
S3150800507080531A4601231363009B1B7883F00103B0
S31508005080DBB2002B02D0019B0222DA60019B0022D0
S315080050905A62009BDB799B00009A127A1343009AA6
S315080050A05279002A01D0102200E00022134303930C
S315080050B0019B039A9A60009B1B78002B02D0019BE8
S315080050C00122DA6000BF05B05DF804FB5C7C0008CD
S315080050D000B587B00390029101920398FFF7D6FEB8
S315080050E00346002B03D1FB214A4801F070FF029BBF
S315080050F0022B03D9FC21474801F069FF039802F007
S315080051005BF9039B03F500531A460123136300BF9B
S31508005110039B1B6B03F00203002BF9D1019B9B79C0
S315080051201A46019BDB79002B02D04FF4801300E06E
S3150800513000231343019A527A002A01D0102200E074
S3150800514000221A43019BDB7ADB041A430399029B6C
S3150800515003335B010B441A60019B1B7A002B21D099
S31508005160039A029B03335B0113441A68019B1B7B5A
S315080051705B041A430399029B03335B010B441A60D1
S31508005180019B1B7B012B14BF012300238DF81730CD
S31508005190019B9B781A469DF8173002990398FFF7EA
S315080051A09FFE0BE0039A029B03335B0113441A68C4
S315080051B00399029B03335B010B441A60039B03F5B7
S315080051C080531A4601231363019B1B789A06019B99
S315080051D05B781B061A43019BDB781B031A43019B6A
S315080051E01B799B021A43019B5B791B021343019AA5
S315080051F0927A002A01D0042200E000221A43039979
S31508005200029B03335B010B4404331A6000BF07B0EB
S315080052105DF804FB5C7C000882B001900B468DF8B3
S315080052200330019B084A934204D1084A9DF803308B
S31508005230C2F8C831019BDB6D43F08002019BDA6539
S3150800524000BF02B0704700BF00C005500080035081
S3150800525000B587B00390029101928DF803300023C0
S315080052600593019B002B04D14FF4A171484801F026
S31508005270AEFE029B002B04D14FF42070FCF728FDEC
S3150800528002909DF80330602B34D0602B3FDC402B16
S3150800529020D0402B3BDC002B02D0202B0DD036E053
S315080052A0029B1B09019A9A4204D94FF4BA713848ED
S315080052B001F08DFE102305932FE0029BDB08019A6F
S315080052C09A4204D940F27911314801F080FE082348
S315080052D0059322E0029B2F4AA2FB03239B08019A0F
S315080052E09A4204D94FF4BF71294801F070FE06238B
S315080052F0059312E0029B9B08019A9A4204D940F250
S315080053008311234801F063FE0423059305E040F268
S3150800531089111F4801F05BFE00BF059B002B33D0A7
S31508005320029B5A01059B019901FB03F35B08134491
S315080053300493059B019A02FB03F3049AB2FBF3F369
S315080053400493049B203B0493049BDB000493049B77
S31508005350114A934204D94FF4D0710D4801F037FE33
S31508005360049A0D4B13400493039B9B6823F0600239
S31508005370039B9A60039B9A689DF803301A43039B24
S315080053809A60039B049ADA6100BF07B05DF804FBD4
S31508005390AC7C0008ABAAAAAAF8FF7F0000B587B0C4
S315080053A0039002910192019B002B04D140F28E21B9
S315080053B0124801F00CFE029B002B04D14FF420701A
S315080053C0FCF786FC0290029B5A1E019B5B00B2FB0F
S315080053D0F3F30593059B1B020593059A084B1340A7
S315080053E0002B04D040F2B321044801F0F0FD039BE2
S315080053F0059ADA6100BF07B05DF804FBAC7C0008CB
S31508005400070080FF00B583B001900091019B474AD1
S31508005410934204D040F2FD21454801F0D8FD019899
S3150800542000F00EF9019B03F580531A4601235360D9
S31508005430009B9B7C002B05D0019B9B6843F0804218
S31508005440019B9A60009BDB7C002B05D0009B1B7D93
S3150800545019460198FFF7E0FE009B5B7B1A46009B06
S315080054601B8A1343009AD2891A43019BDA60009B70
S315080054705968009B9A68009B1B7B0198FFF7E8FE1A
S31508005480009B5B7D002B05D0019B9B6843F4803213
S31508005490019B9A60009B9B7D002B05D0019B9B6816
S315080054A043F40042019B9A60009BDB7D1B0703F0D7
S315080054B0E042009B1B7E1B0503F4E0031A43019B95
S315080054C09A65009B5B7E022B03D0009B5B7E032BB9
S315080054D007D1184B03F580531A460223C2F8203722
S315080054E006E0144B03F500531A460223C2F8203788
S315080054F0009B5B7E012B03D0009B5B7E032B06D1B2
