S01800004E6F64652D53656E736F725F46696E616C2E73333766
S315080000000010002011110008CB8A0008CB8A0008CE
S31508000010CB8A0008CB8A0008CB8A0008CB8A00085E
S31508000020CB8A0008CB8A0008CB8A0008CB8A00084E
S31508000030CB8A0008CB8A0008CB8A0008CB8A00083E
S31508000040CB8A0008CB8A0008CB8A0008CB8A00082E
S315080000503D1B0008CB8A0008CB8A0008CB8A00081B
S31508000060CB8A0008CB8A0008CB8A0008850C0008D2
S31508000070CB8A0008CB8A0008CB8A0008CB8A0008FE
S31508000080CB8A0008CB8A000889050008CB8A0008B5
S31508000090CB8A0008CB8A0008CB8A0008CB8A0008DE
S315080000A0CB8A000809090008CB8A0008CB8A000811
S315080000B0CB8A0008CB8A0008CB8A0008CB8A0008BE
S315080000C0CB8A0008CB8A0008CB8A0008CB8A0008AE
S315080000D0CB8A0008CB8A0008CB8A0008CB8A00089E
S315080000E0CB8A0008CB8A0008CB8A0008CB8A00088E
S315080000F0CB8A0008CB8A0008CB8A0008CB8A00087E
S31508000100CB8A0008CB8A0008CB8A0008CB8A00086D
S31508000110CB8A0008CB8A0008CB8A0008CB8A00085D
S31508000120CB8A0008CB8A0008CB8A0008CB8A00084D
S31508000130CB8A0008CB8A0008CB8A0008CB8A00083D
S31508000140CB8A0008CB8A0008CB8A0008CB8A00082D
S31508000150CB8A0008CB8A0008CB8A0008CB8A00081D
S31508000160CB8A0008CB8A0008CB8A0008CB8A00080D
S31508000170013800D0FCE7704730B587B04FF0000370
S31508000180059300238DF8133039E001213C4808F027
S31508000190ECFB00BF9DF81330012B2BD96B46384971
S315080001A0184608F076FE009B184607F013FA30A3A7
S315080001B0D3E9002307F088FA02460B46104619468B
S315080001C02DA3D3E9002307F0A9FB02460B461446E4
S315080001D01D46059807F020FA02460B462046294692
S315080001E007F0BCF802460B461046194607F09EFC77
S315080001F0034605939DF8133001338DF813309DF8A7
S315080002001330062BC1D99DED057AF1EE046AC7EEC7
S31508000210267ACDED037A039807F0FEF902460B46D7
S315080002204FF00000174907F097F802460B461046AC
S3150800023019464FF00002134B07F070FB02460B46B7
S31508000240104619464FF000020F4B07F03DFA0246DA
S315080002500B461046194607F049FC0346ADF80A3026
S31508000260BDF80A30184607B030BD00BFAFF30080AE
S315080002705C8FC2F5285C03400000000000FEAF401A
S31508000280004000590000084000408F4010B5054C5A
S31508000290237833B9044B13B1044800E000BF0123A7
S315080002A0237010BDAC100020000000000C9D000853
S315080002B008B5034B1BB10349034800E000BF08BD5E
S315080002C000000000B01000200C9D0008A3F5803A3D
S315080002D0704700BF174B002B08BF134B9D46FFF70F
S315080002E0F5FF00218B460F461348144A121A08F0E8
S315080002F086FF0E4B002B00D098470D4B002B00D0E5
S3150800030098470020002104000D000D48002802D05F
S315080003100C4800E000BF07F0FDFD2000290008F0AA
S315080003202DFB07F0E3FD00BF0000080000000000F9
S315080003300000000000100020AC1000201C11002056
S31508000340000000000000000000B583B003460091DD
S315080003508DF807309DF80730002B14D09DF807302C
S31508000360012B0ED09DF80730022B07D09DF80730D9
S31508000370032B01D13F2308E0002306E040F2FF33B8
S3150800038003E03F2301E040F2FF33009AD34003F035
S315080003900103002B04D140F2CF310B4808F0A1FB32
S315080003A09DF8072013465B0013441B0103F1140252
S315080003B0064B13440099184608F028F903461846D0
S315080003C003B05DF804FB00BF4C94000830C003502E
S315080003D000B583B0019008F026F908F042F9034603
S315080003E01A46274B1A7008F06AF903461A46254B2F
S315080003F01A7008F064F903461A46234B1A7008F077
S315080004005EF903461A46214B1A7008F058F9034656
S315080004101A461F4B1A7008F052F903469AB21D4B3A
S315080004201A801C4B1B881946164B1B781A46164B06
S315080004301B781344154A12781344154A1278134444
S31508000440994217D1114B1B781B021AB2104B1B7815
S315080004501BB213431BB29AB2019B1A80094B1B7835
S315080004601B021AB2084B1B781BB213431BB29AB273
S31508000470019B5A8001F0F8FA00BF03B05DF804FB4F
S31508000480121100200E1100200F110020101100205B
S31508000490111100200C11002082B003468DF8073098
S315080004A09DF90730002B0CDB9DF8073003F01F027F
S315080004B005499DF907305B09012000FA02F241F867
S315080004C0232000BF02B0704700E100E082B0034677
S315080004D08DF807309DF90730002B0DDB9DF80730A6
S315080004E003F01F0206499DF907305B09012000FA4F
S315080004F002F2603341F8232000BF02B0704700BF04
S3150800050000E100E000B583B0034600918DF807309E
S315080005109DF80730002B14D09DF80730012B0ED01C
S315080005209DF80730022B07D09DF80730032B01D121
S315080005303F2308E0002306E040F2FF3303E03F23B1
S3150800054001E040F2FF33009AD34003F00103002B89
S3150800055004D14FF489610A4808F0C3FA09489DF89E
S3150800056007200121009B994013465B0013441B0199
S31508000570034403F54153196000BF03B05DF804FB5B
S315080005809894000800C0035000B58FB04FF0B240F1
S3150800059008F0FBF80D900D994FF0B24008F0DDF821
S315080005A0644B1B780133DAB2624B1A70624B1B78C4
S315080005B0002B1BD15F4B1B78032B17D804215F48F0
S315080005C008F0EAF85E4A0AAB92E8030018600433BA
S315080005D0198002330A0C1A700AAB0721184600F074
S315080005E0E7FB0421554808F0E3F89EE0524B1B78D8
S315080005F0002B1CD14F4B1B78042B18D104214F48D4
S3150800060008F0CAF804210120FFF77CFF01F094F9ED
S315080006104C4801F045FA01F027FA04210120FFF7BA
S3150800062071FF444B00221A7008F01CF97DE0424B1A
S315080006301B78012B65D13F4B1B78032B61D1FFF744
S315080006409BFD0346ADF8323009AB1846FFF7C0FEEE
S315080006503D493E4808F01BF93B4B1B88ADF8303046
S315080006603B4B17229A703A4B3122DA70BDF832307A
S3150800067004223849184600F0C1FBBDF8243004228C
S315080006803549184600F0BAFBBDF82630042233492E
S31508000690184600F0B3FBBDF830300422304918463E
S315080006A000F0ACFB2A4B32221A74294B35225A74B5
S315080006B0274B39229A74264B45221A751021294848
S315080006C008F07FF903461A46214BDA7405AB102267
S315080006D02049184608F06CFD01AA05AB11461846D4
S315080006E000F06CF901AB102219461A4808F060FDB3
S315080006F01521174800F05CFB0421104808F058F84B
S3150800070013E00D4B1B78012B0FD10A4B1B78042BDA
S315080007100BD115210E4800F04BFB0421074808F0C1
S315080007203BF8044B00221A70FFE700BF0FB05DF8D4
S3150800073004FB00BF13110020151100200000015B07
S31508000740E4940008C0C62D009C1000201411002057
S31508000750C8100020CC100020CF100020D210002096
S31508000760D5100020CB10002082B003468DF8073044
S315080007709DF90730002B0CDB9DF8073003F01F02AC
S3150800078005499DF907305B09012000FA02F241F894
S31508000790232000BF02B0704700E100E082B00346A4
S315080007A08DF807309DF90730002B0DDB9DF80730D3
S315080007B003F01F0206499DF907305B09012000FA7C
S315080007C002F2603341F8232000BF02B0704700BF31
S315080007D000E100E082B00190044B03F500531A468D
S315080007E0019BC2F8203400BF02B0704700C0035016
S315080007F0024BD3F820341846704700BF00C0035098
S3150800080000B583B0034600918DF807309DF8073090
S31508000810002B14D09DF80730012B0ED09DF8073019
S31508000820022B07D09DF80730032B01D13F2308E0A0
S31508000830002306E040F2FF3303E03F2301E040F2E5
S31508000840FF33009AD34003F00103002B04D140F292
S31508000850FE310A4808F045F909489DF807200121A4
S31508000860009B994013465B0013441B01034403F5A0
S315080008700153196000BF03B05DF804FBEC9400084F
S3150800088000C0035000B583B0034600918DF80730C9
S315080008909DF80730002B14D09DF80730012B0ED099
S315080008A09DF80730022B07D09DF80730032B01D19E
S315080008B03F2308E0002306E040F2FF3303E03F232E
S315080008C001E040F2FF33009AD34003F00103002B06
S315080008D004D140F22D410A4808F003F909489DF869
S315080008E007200121009B994013465B0013441B0116
S315080008F0034403F58253196000BF03B05DF804FB97
S31508000900EC94000800C0035000B585B0FFF770FFEF
S3150800091003900398FFF75EFF039B03F00203002B87
S3150800092026D04FF0B24008F0D7FA07F04DFF204B1B
S315080009301B78012B06D11E4B00221A7004210120B8
S31508000940FFF75EFF1B4A01AB92E803001860043309
S31508000950198002330A0C1A7001AB0721184600F0F9
S3150800096027FA0421144807F0B8FF07F066FF1BE0D2
S31508000970039B03F00803002B16D00D4B1B78002BA6
S3150800098009D107F05AFF0A4B01221A7004210120E7
S31508000990FFF778FF08E007F065FF054B00221A709D
S315080009A004210120FFF72CFF00BF05B05DF804FB0A
S315080009B015110020389500080000015B00B58DB0C0
S315080009C00190009103AB184608F080FB03AB802228
S315080009D00849184608F096FB03A8009B019A0121CE
S315080009E006F000FB03AB184608F07CFB00BF0DB011
S315080009F05DF804FB0010002030B593B00FAB002261
S31508000A001A605A609A60344B05AC1D460FCD0FC468
S31508000A100FCD0FC495E8030084E8030003AB00225A
S31508000A201A605A6003238DF80E3001238DF80830BA
S31508000A3000238DF8093000238DF80A3000238DF83D
S31508000A400B3001212A2001F08BFA02214FF4B06005
S31508000A5002F006F800222149214805F061FD034607
S31508000A608DF8413000238DF83F3000238DF818307B
S31508000A7040F2BA43089300238DF8153001238DF808
S31508000A8017309DF841300093002300221549144879
S31508000A9005F08CFD0346079300238DF81130852356
S31508000AA08DF8093001238DF808300F4BD3F8203321
S31508000AB00D4A43F48033C2F8203305AA0FAB194612
S31508000AC0074804F057FF02AA03AB1946044805F085
S31508000AD02FFC00BF13B030BD40950008002D310132
S31508000AE0004000598096980000C0035082B0034623
S31508000AF08DF807309DF90730002B0CDB9DF8073081
S31508000B0003F01F0205499DF907305B09012000FA29
S31508000B1002F241F8232000BF02B0704700E100E06E
S31508000B2082B003468DF807309DF90730002B0DDBA0
S31508000B309DF8073003F01F0206499DF907305B0947
S31508000B40012000FA02F2603341F8232000BF02B008
S31508000B50704700BF00E100E000B583B0034600918E
S31508000B608DF807309DF80730002B14D09DF8073014
S31508000B70012B0ED09DF80730022B07D09DF80730C1
S31508000B80032B01D13F2308E0002306E040F2FF33A0
S31508000B9003E03F2301E040F2FF33009AD34003F01D
S31508000BA00103002B04D14FF489610A4807F099FF25
S31508000BB009489DF807200121009B994013465B00D0
S31508000BC013441B01034403F54153196000BF03B0E6
S31508000BD05DF804FB6895000800C0035030B58FB077
S31508000BE0244B09AC1D460FCD0FC42B68236009ABF7
S31508000BF0184602F03FFF0921562001F031FF012176
S31508000C00562001F0ADF9012304220821002004F042
S31508000C1003FE002301220421002004F0FDFD012328
S31508000C2004220021012004F0F7FD134B01AC1D46F8
S31508000C300FCD0FC495E80F0084E80F000F4B4FF453
S31508000C400022C3F8AC240D4B4FF48022C3F8A42429
S31508000C500A4B1422C3F8942401AB1946084803F03A
S31508000C60FBFF0B20FFF75CFF0B20FFF73FFF00BFE2
S31508000C700FB030BDB4950008C895000800C00350F1
S31508000C800000015B08B5444BD96B444B1B781A46E8
S31508000C90C9B2434B9954414B1B781A46404B9B5C4F
S31508000CA0452B06D03D4B1B780133DAB23B4B1A7005
S31508000CB06CE03A4B1B78012B1BD1394B1B78312B37
S31508000CC004D10421344807F070FE0BE0344B1B783E
S31508000CD0302B07D11521334800F06AF804212E4835
S31508000CE007F063FE2D4B00221A702F4B00221A7054
S31508000CF04CE02A4B1B78042B24D1294B1B78312B2B
S31508000D0020D1274B5B78312B1CD107F0ABFD244B48
S31508000D109A78244B1A70224BDA78224B5A700221A1
S31508000D200120FFF719FF00F007FE204800F0B8FE83
S31508000D3002210120FFF710FF00F096FE1A4B002251
S31508000D401A7023E0154B1B78022B1CD1144B1B7809
S31508000D50312B18D1124B5B78302B14D107F082FD5A
S31508000D6004210120FFF7F8FE00F0E6FD0F4800F029
S31508000D7097FE00F079FE04210120FFF7EDFE0A4BED
S31508000D8000221A7002E0054B00221A70042102485C
S31508000D9007F0FFFD00BF08BD0000015B161100202B
S31508000DA0E0100020C810002013110020C0C62D0036
S31508000DB000B585B001900B468DF8033000238DF8F9
S31508000DC00F300DE09DF80F30019A13441B78194631
S31508000DD0094807F0ABFF9DF80F3001338DF80F3047
S31508000DE09DF80F209DF803309A42EBD300BF00BF51
S31508000DF005B05DF804FB00BF0000015B00B585B0D7
S31508000E00034602910192ADF80E300199BDF80E30F5
S31508000E10034A029807F092F900BF05B05DF804FB93
S31508000E20E895000808B507F0DBFE294B1B6F23F091
S31508000E300703274A43F00203136707F0DEFE244B35
S31508000E40D3F8203123F00703214A43F00103C2F8FF
S31508000E5020311F4BD3F8283123F007031C4A43F0EF
S31508000E600103C2F828311A4BD3F8403123F00303A3
S31508000E70174A43F00203C2F84031154BD3F86031E4
S31508000E8023F00303124A43F00203C2F86031104B01
S31508000E90D3F8403223F003030D4A43F00203C2F8A5
S31508000EA040320B4BD3F8003223F00703084A43F0CD
S31508000EB00203C2F80032064BD3F8083223F00703C0
S31508000EC0034A43F00203C2F808320023184608BD55
S31508000ED00080005000B583B0034600918DF80730B6
S31508000EE09DF80730002B14D09DF80730012B0ED043
S31508000EF09DF80730022B07D09DF80730032B01D148
S31508000F003F2308E0002306E040F2FF3303E03F23D7
S31508000F1001E040F2FF33009AD34003F00103002BAF
S31508000F2004D140F2FE310A4807F0DBFD09489DF876
S31508000F3007200121009B994013465B0013441B01BF
S31508000F40034403F50153196000BF03B05DF804FBC1
S31508000F50F095000800C0035000B583B00346009121
S31508000F608DF807309DF80730002B14D09DF8073010
S31508000F70012B0ED09DF80730022B07D09DF80730BD
S31508000F80032B01D13F2308E0002306E040F2FF339C
S31508000F9003E03F2301E040F2FF33009AD34003F019
S31508000FA00103002B04D140F22D410A4807F099FDB0
S31508000FB009489DF807200121009B994013465B00CC
S31508000FC013441B01034403F58253196000BF03B0A1
S31508000FD05DF804FBF095000800C0035030B589B0F1
S31508000FE0454B01AC1D460FCD0FC495E8070084E8B4
S31508000FF0070001213A2000F0B3FF0121292000F063
S31508001000AFFF01238DF812303C4B039301AB194611
S315080010103B4805F0CFFE012304220121022004F0FB
S31508001020FBFB002301220221022004F0F5FB012329
S3150800103004220321022004F0EFFB012304220421E9
S31508001040022004F0E9FB2F4B2F4AC3F834272D4B17
S315080010504FF00212C3F830272A4B2C4AC3F8382718
S31508001060284B1C22C3F820274FF4487006F030F9A5
S3150800107007F01DFD142006F02BF907F01FFD2320AD
S3150800108006F026F907F013FDB9211D4807F0BFFF42
S3150800109007F014FD002300220121022004F0BCFB06
S315080010A0002300220221022004F0B6FB01230022BD
S315080010B00321022004F0B0FB0123002204210220B0
S315080010C004F0AAFB0E4805F0F9FE0E4B0022C3F801
S315080010D034270C4B0022C3F830270A4B0022C3F8EA
S315080010E03827084B0022C3F820270021292000F0C2
S315080010F037FF00BF09B030BD3C96000800127A00E1
S3150800110000C0055000C003500200030002000100A1
S3150800111000B585B000F07EF81F4B039319E0002355
S3150800112002930EE0039B1A68029B9B001A44039BDA
S315080011305968029B9B000B4412681A60029B013394
S315080011400293039B9B68029A9A42EBD3039B0C3348
S315080011500393039B114A9342E1D3114B019314E085
S315080011600023009309E0019B1A68009B9B00134427
S3150800117000221A60009B01330093019B5B68009A6A
S315080011809A42F0D3019B08330193019B054A934287
S31508001190E6D3FFF79FF800BF149D0008209D0008BE
S315080011A0209D0008209D000882B003468DF8073070
S315080011B09DF90730002B0CDB9DF8073003F01F0262
S315080011C005499DF907305B09012000FA02F241F84A
S315080011D0232000BF02B0704700E100E082B003465A
S315080011E08DF807309DF90730002B0DDB9DF8073089
S315080011F003F01F0206499DF907305B09012000FA32
S3150800120002F2603341F8232000BF02B0704700BFE6
S3150800121000E100E008B51D4B1D4A9A601B4BD3F848
S3150800122088301A4A43F47003C2F88830194B03F51C
S3150800123080531A464FF480439366174B03F50053C1
S315080012401A464FF0FF331366134B03F500531A463D
S31508001250124B5366124B02221A60BFF34F8F00BF20
S31508001260BFF36F8F00BF0020FFF7B8FF0A4B03F5E7
S3150800127000531A464FF44033D3600020FFF794FF1B
S31508001280054B4FF440321A6100BF08BD00ED00E07F
S31508001290000000080080005000800044F7FF370077
S315080012A0D0ED00E0014B1B68184670471810002067
S315080012B082B00190024A019B136000BF02B07047DA
S315080012C01810002000B583B0002301930E4B1B6F46
S315080012D003F00703032B09D0032B0ED8012B09D0E3
S315080012E0022B0AD1FFF7DEFF019007E0074B1B68C8
S315080012F0019303E0064B019300E0FEE7019B1846C5
S3150800130003B05DF804FB00BF0080005010100020F9
S31508001310002D310100B583B0FFF7D4FF01900A4BC9
S315080013201B6F1B0B03F00F030093009B0133019AFD
S31508001330B2FBF3F30193054A019B1360019B184620
S3150800134003B05DF804FB00BF008000501C100020AD
S31508001350014B1846704700BF00B4C404014B1B6814
S31508001360184670471010002000B583B00190074A50
S31508001370019B1360064B1B6F03F00703032B01D178
S31508001380FFF7C8FF00BF03B05DF804FB101000208C
S3150800139000800050014B1846704700BF002D3101F0
S315080013A082B0002301934FF0B4439B681B0C03F0F3
S315080013B01F030C2B4CD801A252F823F0F113000896
S315080013C0511400085114000851140008511400085B
S315080013D0511400082D1400083314000839140008A5
S315080013E0511400083F140008451400084B1400085F
S315080013F04FF0B4439B6803F04073B3F1007F0ED0FF
S31508001400B3F1007F0ED8002B03D0B3F1807F03D051
S3150800141008E0124B019308E0114B019305E0114BCC
S31508001420019302E00023019300BF12E00E4B0193E3
S315080014300FE00E4B01930CE00D4B019309E00D4BA9
S31508001440019306E00C4B019303E00C4B019300E07B
S3150800145000BF019B184602B0704700BF00093D0057
S3150800146080841E0040420F00405DC6000024F40040
S31508001470C0EA210180BA8C010048E801005A6202DC
S31508001480014B1B68184670471410002084B0019061
S315080014900B4B1A68019B13440A4A934202D94FF030
S315080014A0FF3309E0064B1B680393054B1A68019B3B
S315080014B01344034A1360039B184604B0704700BFE1
S315080014C0201000200000042000B587B00390029188
S315080014D00192029B1F2B03D991210C4807F001FBAF
S315080014E0019B002B04D0039B03F58053059303E06F
S315080014F0039B03F500530593059B0121029A01FA04
S3150800150002F21A6000BF07B05DF804FB589600089F
S3150800151000B585B003468DF807309DF80730002BD7
S3150800152001D0012300E000230393039A0021034816
S31508001530FFF7CAFF00BF05B05DF804FB44C40350BB
S3150800154000B585B0002303930023ADF80A300023C5
S31508001550ADF808300023019301213A2000F000FD80
S31508001560012304220321002004F056F9019807F00C
S315080015703EFC0120FFF7CCFF474B03F580531A4684
S315080015804FF400235366454BDB6803F08073002B4A
S3150800159014BF012300238DF803309DF80330002B78
S315080015A005D03E4BDB683D4A23F08073D3603A4B47
S315080015B0D3F8803023F00303374A43F00203C2F816
S315080015C080309DF80330002B05D0344BDB68334A56
S315080015D043F08073D3604FF4607000F0FBFC039017
S315080015E02E4B1B682D4A43F0010313602B4BDB6817
S315080015F02A4A43F08073D3600123ADF80A300F23DB
S31508001600ADF80830BDF80A305B021A46BDF8083056
S315080016105B001A432249234B13430B60039B03F5D4
S31508001620D52303F2FC43DB081F4AA2FB03239B0ACC
S315080016301E4A013B13611D4B0222C3F8F0201B4BC7
S315080016404FF48072C3F804234FF06043184AC3F876
S31508001650B02F4FF06043174AC3F8802E4FF060430F
S31508001660D3F8003E4FF0604243F48073C2F8003E60
S315080016704FF06043FF2283F820204FF06043D3F8F1
S31508001680003E4FF0604223F48073C2F8003E002308
S31508001690184605B05DF804FB00800050F0ED00E048
S315080016A0001000E0E101004017916502000004E027
S315080016B055CEACC50900010082B003468DF8073047
S315080016C09DF90730002B0CDB9DF8073003F01F024D
S315080016D005499DF907305B09012000FA02F241F835
S315080016E0232000BF02B0704700E100E082B0034645
S315080016F08DF807309DF90730002B13DB9DF807306E
S3150800170003F01F0209499DF907305B09012000FA19
S3150800171002F2203341F82320BFF34F8F00BFBFF3F7
S315080017206F8F00BF00BF02B0704700BF00E100E046
S3150800173082B003468DF807309DF90730002B0DDB84
S315080017409DF8073003F01F0206499DF907305B092B
S31508001750012000FA02F2603341F8232000BF02B0EC
S31508001760704700BF00E100E082B00190019B0E4A7D
S3150800177093420FD0019B0D4A93420BD0019B0C4A12
S31508001780934207D0019B0B4A934203D0019B0A4A16
S31508001790934201D1012300E0002303F00103DBB2E9
S315080017A0184602B0704700BF0080045000C00450BD
S315080017B000000550004005500080055000B583B074
S315080017C00190019B334A934214D0019B324A9342BB
S315080017D010D0019B314A93420CD0019B304A934268
S315080017E008D0019B2F4A934204D040F2BE212E48CE
S315080017F007F077F9019B274A934245D0019B254A72
S31508001800934203D0019B244A93423AD0019B214A32
S31508001810934207D0019B204A934203D0019B1F4A5B
S3150800182093422BD0019B1B4A93420BD0019B1A4A29
S31508001830934207D0019B194A934203D0019B184A49
S31508001840934218D0019B134A934212D0019B124A25
S3150800185093420ED0019B114A93420AD0019B104A2B
S31508001860934206D0019B0F4A934202D14FF6FF736B
S315080018700CE000230AE04FF6FF7307E04FF6FF730C
S3150800188004E04FF0FF3301E04FF0FF33184603B092
S315080018905DF804FB0080045000C0045000000550A9
S315080018A00040055000800550A496000800B583B096
S315080018B001900B468DF803300198FFF755FF034654
S315080018C0002B04D140F26E31084807F00AF99DF85A
S315080018D00330002B03D0019B0122DA6002E0019B52
S315080018E00222DA6000BF03B05DF804FBA496000884
S315080018F000B583B0019000910198FFF75FFF02469B
S31508001900009B934204D94FF494610A4807F0E9F81A
S31508001910019B1B6B03F00103002B04D140F2A2418B
S31508001920044807F0DEF8019B009ADA6100BF03B0AD
S315080019305DF804FBA49600082DE9F04F8BB005ABC3
S3150800194000221A605A609A60DA6001238DF8143012
S3150800195001AB00221A605A609A601A7302238DF846
S315080019600A300121242000F0FBFA01AB1A460021B7
S31508001970354805F02BF94FF6FF713348FFF7B8FFE6
S315080019800023ADF8163005AB19462F4805F086F842
S315080019904FF4806000F01EFB03462C4A13602B4B65
S315080019A01B68BDF816200132B3FBF2F3274A136011
S315080019B0BDF8163001339BB2ADF81630BDF81630B7
S315080019C0B3F5806F04D2214B1B68214A9342DAD8BB
S315080019D0002000F0FFFA03461E4AB2FBF3F3099310
S315080019E01A4B1B68002298469146099B00221E4600
S315080019F0174606FB09F208FB07F31344A8FB06453E
S31508001A002B441D46144B14EB030A45F1000B134AED
S31508001A104FF000035046594606F0D8F802460B46E2
S31508001A200F4B1A600F4B00221A701021064807F058
S31508001A3096F80420FFF77CFE0420FFF73DFE0023FE
S31508001A4018460BB0BDE8F08F00800450EC1000205B
S31508001A5080841E0000B0710B20A1070040420F00D1
S31508001A60F01000201711002008B50420FFF73EFEED
S31508001A7010210A4807F073F81021084807F063F8A0
S31508001A800420FFF755FE00210448FFF70FFF002149
S31508001A90242000F065FA0023184608BD008004508B
S31508001AA02DE9F04F85B001902049096800200E46BF
S31508001AB00746019900200C46054604FB07F006FB7D
S31508001AC005F10144A6FB042319440B46184912EBF9
S31508001AD0010A43F1000B174A4FF0000350465946D6
S31508001AE006F074F802460B46CDE902230CE04FF6E1
S31508001AF0E85000F03DF8DDE902230F4912EB010832
S31508001B0043F1FF39CDE90289DDE902234FF6E951B0
S31508001B108A4273F10003EAD2BDF80830184600F08D
S31508001B2027F80023184605B0BDE8F08FEC10002012
S31508001B3020A1070040420F001802FFFF00B583B03E
S31508001B40094807F019F80190019B03F01003002BD0
S31508001B5006D01021044806F0F6FF044B01221A703D
S31508001B6000BF03B05DF804FB008004501711002085
S31508001B7000B585B00346ADF80630BDF80630002B33
S31508001B8017D00E4806F0D8FF0346ADF80E300B48BE
S31508001B9006F0D2FF03469BB2ADF80C30BDF80C3008
S31508001BA09AB2BDF80E30D31A9BB2BDF806209A42F7
S31508001BB0EDD800BF05B05DF804FB00BF00800450F7
S31508001BC000B587B0039002910192029B1F2B03D99F
S31508001BD091210C4806F085FF019B002B04D0039B3E
S31508001BE003F58053059303E0039B03F50053059320
S31508001BF0059B0121029A01FA02F21A6000BF07B09A
S31508001C005DF804FBF496000808B500BF04210448F3
S31508001C1006F0BFFF0346002BF8D100BF00BF08BD82
S31508001C208440005008B5FFF7EFFF044BD3F8843023
S31508001C309B0903F00303DBB2184608BD00400050B9
S31508001C40034B5B6A024A43F00103536200BF7047C5
S31508001C5000C00750034B5B6A024A23F00103536234
S31508001C6000BF704700C00750054BDB6903F480339B
S31508001C70002B14BF01230023DBB21846704700BFB0
S31508001C8000000350024B0022DA6300BF704700BF12
S31508001C9000000350024B41F67132DA6300BF704709
S31508001CA000000350014B5B6818467047000003505C
S31508001CB082B00190024A019B536000BF02B0704790
S31508001CC00000035000B585B0019000230393019BE3
S31508001CD0B3F5607F35D0019BB3F5607F59D8019B7A
S31508001CE0B3F5207F4ED0019BB3F5207F51D8019BD9
S31508001CF0B3F5007F3ED0019BB3F5007F49D8019B21
S31508001D00002B03D0019BB3F5C07F42D1264B1B6F36
S31508001D101B0B03F00F030393039B002B3BD0039B82
S31508001D20012B38D0039B032B35D0039B072B32D0CE
S31508001D30039B0F2B2FD040F275211C4806F0D1FECD
S31508001D4029E0194BD3F880301B0903F003030393EA
S31508001D50039B002B21D0039B012B1ED0039B022B38
S31508001D601BD0039B032B18D040F285210F4806F0A1
S31508001D70B8FE12E00C4BD3F890301B0E03F01F038D
S31508001D8003930BE0084B1B6F9B0A03F001030393B5
S31508001D9004E000BF02E000BF00E000BF039B013380
S31508001DA0184605B05DF804FB00800050409700080F
S31508001DB010B584B001900091019BB3F5607F54D0B3
S31508001DC0019BB3F5607F00F2BA80019BB3F5207FD3
S31508001DD000F09F80019BB3F5207F00F2B080019B45
S31508001DE0B3F5007F7DD0019BB3F5007F00F2A78095
S31508001DF0019B002B04D0019BB3F5C07F40F09F8068
S31508001E00009B012B10D0009B022B0DD0009B042BAE
S31508001E100AD0009B082B07D0009B102B04D040F259
S31508001E20B6214C4806F05DFE06F01AFF06F010FFD4
S31508001E3002F062F8484B1B6F23F47042009B013B8B
S31508001E401B03454913430B6706F09DFE0446FFF73F
S31508001E50E9FE0346C3F102031946204606F0E4FEEE
S31508001E6002F074FB02F054F870E03C4BDB6803F0B8
S31508001E708073002B14BF012300238DF80F309DF8C3
S31508001E800F30002B05D0354BDB68344A23F08073BE
S31508001E90D360009B012B0DD0009B022B0AD0009B20
S31508001EA0032B07D0009B042B04D04FF43871294824
S31508001EB006F017FE284BD3F8803023F03002009B3B
S31508001EC0013B1B0124491343C1F880309DF80F30AC
S31508001ED0002B3AD0214BDB68204A43F08073D3604D
S31508001EE033E0009B002B02D0009B202B04D940F244
S31508001EF0F321184806F0F5FD174BD3F8903023F078
S31508001F00F852009B013B1B0613491343C1F8903056
S31508001F101CE0009B012B07D0009B022B04D040F24B
S31508001F20F9210C4806F0DDFD0B4B1B6F23F480628C
S31508001F30009B013B9B02084913430B6706E040F2EE
S31508001F40FF21044806F0CDFD00E000BF00BF04B045
S31508001F5010BD00BF4097000800800050F0ED00E07B
S31508001F6000B585B001900B468DF803300023039326
S31508001F70019B5B09002B05D14FF44771124806F007
S31508001F80B0FD12E0019B5B09012B02D10F4B0393B5
S31508001F900BE0019B5B09022B02D10D4B039304E076
S31508001FA040F22631084806F09CFD019B03F01F030A
S31508001FB002939DF803301A4602990398FFF700FE2C
S31508001FC000BF05B05DF804FB409700086480005028
S31508001FD06880005010B584B0019000230393002355
S31508001FE00293019BB3F5486F00F02983019BB3F573
S31508001FF0486F00F23683019BB3F5406F00F0EF821D
S31508002000019BB3F5406F00F22C83019BB3F5286F53
S3150800201000F01B83019BB3F5286F00F22283019B16
S31508002020B3F5206F00F00583019BB3F5206F00F22E
S315080020301883019BB3F5106F00F0EF82019BB3F58F
S31508002040106F00F20E83019BB3F5F06F00F0038367
S31508002050019BB3F5F06F00F20483019BB3F5E06FC3
S3150800206000F0E182019BB3F5E06F00F2FA82019B72
S31508002070B3F5D06F00F0CB82019BB3F5D06F00F2B9
S31508002080F082019BB3F5C06F00F0BB82019BB3F5EC
S31508002090C06F00F2E682019BB3F5B06F00F0A5822F
S315080020A0019BB3F5B06F00F2DC82019BB3F5A06F1C
S315080020B000F08F82019BB3F5A06F00F2D282019BDC
S315080020C0B3F5806F00F07F82019BB3F5806F00F255
S315080020D0C882019BB3F5607F00F06682019BB3F569
S315080020E0607F00F2BE82019BB3F5407F00F04F820D
S315080020F0019BB3F5407F00F2B482019BB3F5207FC4
S3150800210000F03982019BB3F5207F00F2AA82019B79
S31508002110B3F5007F00F02382019BB3F5007F00F240
S31508002120A082019BB3F5807F00F20A82019BB3F57A
S31508002130807F00F2968201A252F823F05525000806
S31508002140632600086326000863260008632600083D
S31508002150632600086326000863260008632600082D
S31508002160632600086326000863260008632600081D
S31508002170632600086326000863260008632600080D
S3150800218063260008632600086326000863260008FD
S3150800219063260008632600086326000863260008ED
S315080021A063260008632600086326000863260008DD
S315080021B063260008632600086326000855250008DC
S315080021C0772500085525000877250008C725000843
S315080021D0C7250008C7250008C7250008C725000821
S315080021E077250008EB2500088F2500080326000838
S315080021F00F2600088F250008772500087725000890
S315080022007725000863260008632600086326000869
S31508002210632600086326000863260008632600086C
S315080022206326000877250008772500087725000823
S315080022305726000827260008772500086326000881
S31508002240632600086326000863260008632600083C
S31508002250632600086326000863260008632600082C
S31508002260632600086326000863260008632600081C
S31508002270C7250008552500085525000855250008D6
S315080022801B2600088F2500088F250008332600081E
S315080022904B260008D3250008DF250008632600081A
S315080022A063260008632600086326000863260008DC
S315080022B03F260008552500086326000863260008FF
S315080022C063260008632600086326000863260008BC
S315080022D063260008632600086326000863260008AC
S315080022E0632600086326000863260008632600089C
S315080022F0632600086326000863260008632600088C
S31508002300632600086326000863260008632600087B
S31508002310632600086326000863260008632600086B
S31508002320632600086326000863260008632600085B
S315080023306326000863260008632600084B25000864
S31508002340632600086326000863260008632600083B
S31508002350632600086326000863260008632600082B
S31508002360632600086326000863260008632600081B
S31508002370632600086326000863260008632600080B
S3150800238063260008632600086326000863260008FB
S3150800239063260008632600086326000863260008EB
S315080023A063260008632600086326000863260008DB
S315080023B063260008632600086326000863260008CB
S315080023C063260008632600086326000863260008BB
S315080023D063260008632600086326000863260008AB
S315080023E0632600086326000863260008632600089B
S315080023F0632600086326000863260008632600088B
S31508002400632600086326000863260008632600087A
S31508002410632600086326000863260008632600086A
S31508002420632600086326000863260008632600085A
S31508002430632600086326000863260008632600084A
S31508002440632600086326000863260008632600083A
S31508002450632600086326000863260008632600082A
S31508002460632600086326000863260008632600081A
S31508002470632600086326000863260008632600080A
S3150800248063260008632600086326000863260008FA
S3150800249063260008632600086326000863260008EA
S315080024A063260008632600086326000863260008DA
S315080024B063260008632600086326000863260008CA
S315080024C063260008632600086326000863260008BA
S315080024D063260008632600086326000863260008AA
S315080024E0632600086326000863260008632600089A
S315080024F0632600086326000863260008632600088A
S315080025006326000863260008632600086326000879
S315080025106326000863260008632600086326000869
S315080025206326000863260008632600086326000859
S31508002530632600086326000863260008F7250008B6
S31508002540019BB3F5C07F05D08BE0FEF7BBFE0346C3
S3150800255003938CE0FEF7DEFE0346039387E0FEF75F
S31508002560B1FE04464FF40070FFF7ACFB0346B4FB1C
S31508002570F3F303937BE0FEF7CDFE04464FF4207099
S31508002580FFF7A0FB0346B4FBF3F303936FE0FEF7F4
S31508002590C1FE04464FF42070FFF794FB0346B4FBD4
S315080025A0F3F35B08039362E002AB0021184601F0DF
S315080025B0C5FC029C4FF46070FFF784FB0346B4FB2E
S315080025C0F3F3039353E003AB0021184601F042FDF1
S315080025D04DE003AB0021184601F0F8FA47E003ABDB
S315080025E00021184601F048FB41E003AB00211846DC
S315080025F001F066FF3BE003AB0021184602F0B2F893
S3150800260035E003AB0021184601F086FD2FE003AB49
S315080026100021184601F0FEFF29E003AB0021184609
S3150800262002F04CF823E003AB0021184601F0A8FF9E
S315080026301DE003AB0021184601F07CFB17E003AB55
S315080026400021184601F0CAFB11E003AB0021184629
S3150800265001F018FC0BE003AB0021184601F0A6FDBB
S3150800266005E040F27941044806F03BFA00BF039BB7
S31508002670184604B010BD00BF4097000800B585B0E5
S31508002680019000230393019BB3F5486F00F0CD81B9
S31508002690019BB3F5486F00F2D481019BB3F5406FF7
S315080026A000F0B181019BB3F5406F00F2CA81019B2E
S315080026B0B3F5286F00F0BF81019BB3F5286F00F2D0
S315080026C0C081019BB3F5206F00F0A981019BB3F58A
S315080026D0206F00F2B681019BB3F5106F00F07B8185
S315080026E0019BB3F5106F00F2AC81019BB3F5086F3F
S315080026F000F07781019BB3F5086F00F2A281019B78
S31508002700B3F5F06F00F05B81019BB3F5F06F00F253
S315080027109881019BB3F5E06F00F07B81019BB3F5CF
S31508002720E06F00F28E81019BB3F5D06F00F04D810A
S31508002730019BB3F5D06F00F28481019BB3F5C06F9E
S3150800274000F03781019BB3F5C06F00F27A81019BD7
S31508002750B3F5B06F00F01B81019BB3F5B06F00F2C3
S315080027607081019BB3F5A06F00F04781019BB3F51B
S31508002770A06F00F26681019BB3F5806F00F00D81B2
S31508002780019BB3F5806F00F25C81019BB3F5607F16
S3150800279000F02D81019BB3F5607F00F25281019B09
S315080027A0802B00F2C780019B242BC0F04A81019B35
S315080027B0243B5C2B00F2458101A252F823F000BFAE
S315080027C09B2900089B2900089B2900089B290008CB
S315080027D09B290008432A00088F290008432A000875
S315080027E0B3290008CB290008432A0008432A000811
S315080027F0432A0008432A0008432A0008432A0008F7
S31508002800432A0008432A0008432A0008432A0008E6
S31508002810432A0008432A0008432A0008432A0008D6
S31508002820432A0008BF290008132A0008432A00087B
S31508002830432A0008432A0008432A0008432A0008B6
S31508002840432A0008432A0008432A0008432A0008A6
S31508002850432A0008432A0008432A0008432A000896
S31508002860432A00089B290008432A0008432A00082F
S31508002870432A0008D7290008432A0008432A0008E3
S315080028801F2A0008372A0008FB290008072A00081B
S31508002890432A0008432A0008432A0008432A000856
S315080028A0432A00082B2A0008432A0008432A00085E
S315080028B0432A0008432A0008432A0008432A000836
S315080028C0432A0008432A0008432A0008432A000826
S315080028D0432A0008432A0008432A0008432A000816
S315080028E0432A0008432A0008432A0008432A000806
S315080028F0432A0008432A0008432A0008432A0008F6
S31508002900432A0008432A0008432A0008432A0008E5
S31508002910432A0008432A0008432A0008432A0008D5
S31508002920432A0008432A0008432A0008432A0008C5
S315080029303F290008019BB3F5807F34D081E0464BE0
S315080029401B6F03F00703013B032B17D801A252F8AC
S3150800295023F000BF77290008652900086B290008BD
S31508002960712900080523039310E0032303930DE060
S31508002970082303930AE00223039307E00023039343
S3150800298040F2AB41354806F0ACF800BF5FE003AB58
S315080029901946002001F094FD59E003AB19460020C2
S315080029A001F058FB53E003AB1946002001F0DAFEAC
S315080029B04DE003AB1946002001F0AEFB47E003AB40
S315080029C01946002001F0F2FB41E003AB194600204E
S315080029D001F020FE3BE003AB1946002001F06EFE35
S315080029E035E003AB1946002001F0EAFA2FE003AB05
S315080029F01946002001F0A2FA29E003AB1946002087
S31508002A0001F0E4F823E003AB1946002001F034F99D
S31508002A101DE003AB1946002001F0B2FD17E003AB39
S31508002A201946002001F086F911E003AB194600208B
S31508002A3001F0D4F90BE003AB1946002001F022FAA5
S31508002A4005E040F25A51054806F04BF800BF039BD3
S31508002A50184605B05DF804FB008000504097000852
S31508002A6010B584B0019000910023039300238DF8DC
S31508002A700B3000238DF80A30019BB3F5486F00F040
S31508002A803C85019BB3F5486F00F29985019BB3F528
S31508002A90406F00F07384019BB3F5406F00F28F8599
S31508002AA0019BB3F5286F00F06C85019BB3F5286F81
S31508002AB000F28585019BB3F5206F00F0DA84019B4F
S31508002AC0B3F5206F00F27B85019BB3F5106F00F01C
S31508002AD04783019BB3F5106F00F27185019BB3F52F
S31508002AE0086F00F08383019BB3F5086F00F26785D2
S31508002AF0019BB3F5F06F00F0B182019BB3F5F06F5F
S31508002B0000F25D85019BB3F5E06F00F07584019BCB
S31508002B10B3F5E06F00F25385019BB3F5D06F00F073
S31508002B20DA82019BB3F5D06F00F24985019BB3F5B4
S31508002B30C06F00F04E82019BB3F5C06F00F23F856F
S31508002B40019BB3F5B06F00F07681019BB3F5B06FCA
S31508002B5000F23585019BB3F5A06F00F0C483019B95
S31508002B60B3F5A06F00F22B85019BB3F5806F00F0DB
S31508002B708981019BB3F5806F00F22185019BB3F52E
S31508002B80607F00F06A83019BB3F5607F00F21785CA
S31508002B90019B802B00F2C680019B242BC0F00F8579
S31508002BA0019B243B5C2B00F20A8501A252F823F014
S31508002BB0852E0008852E0008852E0008852E00081B
S31508002BC0852E0008BF350008372E0008BF350008D7
S31508002BD0D32F0008D7300008BF350008BF350008D6
S31508002BE0BF350008BF350008BF350008BF350008E7
S31508002BF0BF350008BF350008BF350008BF350008D7
S31508002C00BF350008BF350008BF350008BF350008C6
S31508002C10BF3500085D300008F9330008BF350008E5
S31508002C20BF350008BF350008BF350008BF350008A6
S31508002C30BF350008BF350008BF350008BF35000896
S31508002C40BF350008BF350008BF350008BF35000886
S31508002C50BF350008852E0008BF350008BF350008B7
S31508002C60BF35000861310008BF350008BF350008C8
S31508002C707334000883350008E73200087D330008FE
S31508002C80BF350008BF350008BF350008BF35000846
S31508002C90BF350008FB340008BF350008BF350008FB
S31508002CA0BF350008BF350008BF350008BF35000826
S31508002CB0BF350008BF350008BF350008BF35000816
S31508002CC0BF350008BF350008BF350008BF35000806
S31508002CD0BF350008BF350008BF350008BF350008F6
S31508002CE0BF350008BF350008BF350008BF350008E6
S31508002CF0BF350008BF350008BF350008BF350008D6
S31508002D00BF350008BF350008BF350008BF350008C5
S31508002D10BF350008BF350008BF350008BF350008B5
S31508002D20332D0008019BB3F5807F00F0E78000F0A3
S31508002D3046BC009B023B062B34D801A252F823F06E
S31508002D409F2D0008632D0008A52D00085D2D00089D
S31508002D50A52D0008A52D0008992D00080223039328
S31508002D6026E003230393B94B03F580531A464FF421
S31508002D7080135366B64B9B6A03F08073002B14BF0F
S31508002D80012300238DF80B30B14B03F580531A4607
S31508002D904FF4803393620BE00423039308E0012386
S31508002DA0039305E040F21161AA4805F09AFE00BFB8
S31508002DB00121022001F0A4FD05F052FF05F048FFAD
S31508002DC001F09AF8A14B1B6F23F007029F49039B5A
S31508002DD013430B6705F0D7FE0446FEF723FF0346A9
S31508002DE0C3F102031946204605F01EFF0121002003
S31508002DF001F058FD01F0AAFB01F08AF89DF80B30A6
S31508002E0083F00103DBB2002B11D0009B032B10D1FA
S31508002E108F4B03F500531A464FF48033936200BF75
S31508002E208B4B9B6D03F08043002BF9D102E000BF6A
S31508002E30CCE300BFCAE3009B102B09D0009B102BE4
S31508002E400FD8009B022B09D0009B072B03D008E064
S31508002E50012303930BE00323039308E00223039360
S31508002E6005E040F25A617B4805F03BFE00BF774B10
S31508002E70D3F8803123F003027449039B1343C1F846
S31508002E808031A3E3009B013B062B26D801A252F80A
S31508002E9023F000BFC92E0008C32E0008B72E00086D
S31508002EA0D52E0008B12E0008CF2E0008BD2E00082A
S31508002EB00123039317E00223039314E004230393E7
S31508002EC011E0032303930EE0002303930BE005238D
S31508002ED0039308E00623039305E040F295615D48F5
S31508002EE005F0FFFD00BF594BD3F8203123F0070248
S31508002EF05649039B1343C1F8203167E3009B093BFE
S31508002F00082B5FD801A252F823F000BF312F000822
S31508002F10312F0008C52F0008312F00087B2F000825
S31508002F20C52F0008C52F0008C52F0008312F000837
S31508002F30464B5B6E03F48033002B0CBF0123002342
S31508002F408DF80A30414B03F580531A464FF4803307
S31508002F505366FEF775FE9DF80A30002B06D03B4BEC
S31508002F6003F500531A464FF4803353663A4B1B68F1
S31508002F70394A23F0040313602AE0344B5B6E03F4EA
S31508002F808033002B0CBF012300238DF80A302F4B0A
S31508002F9003F580531A464FF480335366FEF75AFEFC
S31508002FA09DF80A30002B06D0284B03F500531A4625
S31508002FB04FF480335366284B1B68274A43F00403B3
S31508002FC0136005E040F2BD61224805F08AFD00BFA6
S31508002FD0FCE2009B013B0B2B26D801A252F823F0FA
S31508002FE02330000829300008293000082930000855
S31508002FF0293000082930000829300008293000083F
S315080030001730000811300008113000081D3000087C
S31508003010012303930EE0022303930BE00323039398
S3150800302008E00023039305E040F2DD61094805F056
S3150800303058FD00BF054BD3F8403123F0030203497E
S31508003040039B1343C1F84031C0E200BF0080005023
S315080030500040005A4097000810E000E0009B013B42
S315080030600B2B27D801A252F823F000BFAF30000877
S31508003070B5300008B5300008B5300008B53000088E
S31508003080B5300008B5300008B5300008A330000890
S315080030909D3000089D300008A930000801230393DD
S315080030A00EE0022303930BE00323039308E00023B7
S315080030B0039305E040F2FF61BC4805F012FD00BF2E
S315080030C0BB4BD3F8603123F00302B949039B134382
S315080030D0C1F860317AE2009B013B0E2B2FD801A282
S315080030E052F823F0393100083F3100083F31000813
S315080030F03F3100083F3100083F3100083F310008E2
S315080031003F31000827310008213100082131000825
S315080031102D3100083F3100083F31000833310008DF
S315080031200123039311E0022303930EE00323039381
S315080031300BE00423039308E00023039305E040F221
S315080031404C719A4805F0CDFC00BF994BD3F8003274
S3150800315023F007029649039B1343C1F8003235E270
S31508003160009B013B0E2B30D801A252F823F000BF7A
S31508003170C5310008CB310008CB310008CB31000837
S31508003180CB310008CB310008CB310008CB31000821
S31508003190B3310008AD310008AD310008B931000877
S315080031A0CB310008CB310008BF3100080123039357
S315080031B011E0022303930EE0032303930BE0042399
S315080031C0039308E00023039305E04FF4EE61774884
S315080031D005F087FC00BF764BD3F8083223F00702C8
S315080031E07349039B1343C1F80832EFE1009B013B87
S315080031F0082B21D801A252F823F000BF3332000869
S3150800320039320008213200083932000839320008FC
S3150800321039320008393200082D32000827320008F2
S31508003220012303930EE0022303930BE00323039386
S3150800323008E00023039305E040F28C715B4805F033
S3150800324050FC00BF5A4BD3F8003123F0030258490B
S31508003250039B1343C1F80031B8E1564BDB6803F012
S315080032608073002B14BF012300238DF809309DF8C5
S315080032700930002B05D04F4BDB684E4A23F080738C
S31508003280D360009B0E2B09D0009B0E2B0FD8009BFA
S31508003290062B06D0009B072B06D008E001230393D4
S315080032A00BE00323039308E00223039305E040F2AF
S315080032B0BB713E4805F015FC00BF3D4BD3F8803086
S315080032C023F003023A49039B1343C1F880309DF863
S315080032D00930002B00F07981364BDB68354A43F01C
S315080032E08073D36071E1009B013B112B35D801A295
S315080032F052F823F0553300085B3300085B330008A7
S315080033005B3300085B3300085B330008433300086F
S315080033105B3300084F330008493300084933000877
S315080033205B3300085B3300085B3300085B33000837
S315080033305B3300085B3300083D3300080123039321
S3150800334011E0022303930EE0032303930BE0042307
S31508003350039308E00023039305E040F6160113489B
S3150800336005F0BFFB00BF124BD3F8203223F007024B
S315080033700F49039B1343C1F8203227E1009B023B08
S31508003380052B28D801A252F823F000BFC533000840
S31508003390CB330008D1330008A5330008B933000839
S315080033A0BF330008012303931BE000BF40970008C2
S315080033B000800050F0ED00E00523039311E004239C
S315080033C003930EE0032303930BE00223039308E021
S315080033D00623039305E040F647017E4805F081FB86
S315080033E000BF7D4BD3F8283123F007027A49039BA7
S315080033F01343C1F82831E9E0009B013B0B2B27D882
S3150800340001A252F823F000BF4B34000851340008DB
S31508003410513400085134000851340008513400086A
S3150800342051340008513400083F3400083934000884
S315080034303934000845340008012303930EE00223BB
S3150800344003930BE00323039308E00023039305E0AB
S3150800345040F685015F4805F044FB00BF5E4BD3F894
S31508003460403223F003025C49039B1343C1F8403200
S31508003470ACE0009B023B0F2B2ED801A252F823F09A
S31508003480C1340008D9340008D9340008D9340008F2
S31508003490D9340008C7340008D9340008D9340008DC
S315080034A0D9340008D9340008D9340008D9340008BA
S315080034B0D9340008D9340008CD340008D3340008BC
S315080034C0032303930EE0042303930BE001230393E2
S315080034D008E00223039305E040F6BB013D4805F0EA
S315080034E000FB00BF3C4BD3F8603223F007023A4991
S315080034F0039B1343C1F8603268E0009B023B0F2B25
S315080035002ED801A252F823F0493500086135000883
S315080035106135000861350008613500084F35000837
S315080035206135000861350008613500086135000815
S315080035306135000861350008613500086135000805
S31508003540553500085B350008032303930EE0042372
S3150800355003930BE00123039308E00223039305E09A
S3150800356040F6D3011B4805F0BCFA00BF1A4BD3F846
S31508003570943223F007021849039B1343C1F8943287
S3150800358024E0009B112B03D0009B152B03D005E0EC
S315080035900123039308E00223039305E040F6E901BB
S315080035A00C4805F09EFA00BF0B4BD3F8703223F097
S315080035B003020949039B1343C1F8703206E040F63B
S315080035C01B11044805F08DFA00E000BF00BF04B0E7
S315080035D010BD00BF409700080080005000B589B0B4
S315080035E00190019800F08EFE0790079B002B03D0F0
S315080035F0079BB3F1FF3F04D140F69E114F4805F0F3
S3150800360070FA4F4B03F580531A464FF4C02353669E
S315080036104C4B5B68012B0CD14A4B03F500531A46F9
S315080036200123536000BF474B5B6803F00203002B7E
S31508003630F9D18020FFF722F80346052B05D105F0BE
S315080036400FFB05F005FB00F057FC079B23F04073C2
S315080036500793019B3C4A934204D0019B3B4A934201
S3150800366005D009E0079B43F00073079304E0079B26
S3150800367043F08073079300BFFDF714FE0690019A86
S31508003680069B9A4203D90121019801F00BF900BF64
S315080036902F4BDB6803F00603002BF9D12C4B9B68F4
S315080036A005932B4A079B9360079B03F4F81304932F
S315080036B0274B9B6803F4F8130393049A039B9A42D7
S315080036C004D040F6E6111D4805F00BFA049A039B50
S315080036D09A4203D10198FDF7EBFD04E01C4A059BCD
S315080036E09360069B01938020FEF7C8FF0346052BCF
S315080036F018D105F048FA0290029A019B9A4204D919
S3150800370040F6F7110D4805F0ECF9FEF78BFA03467B
S31508003710C3F102031946029805F086FA00F016FF6F
S3150800372000F0F6FB019A069B9A4203D80121002075
S3150800373001F0B8F800BF09B05DF804FB409700082F
S315080037400080005000C0015040420F0080841E00D7
S315080037500000015000B585B00190019B1B680F2B36
S3150800376004D940F64631964805F0BBF9019B5B68DB
S315080037700F2B04D940F64931914805F0B2F9019B5F
S315080037809B680F2B04D940F64C318D4805F0A9F9F2
S31508003790019B1B7B0F2B04D940F64F31884805F057
S315080037A0A0F9019B5B7B0F2B04D940F65231844864
S315080037B005F097F9019B9B7B3F2B04D940F65531C1
S315080037C07F4805F08EF9019BDB7B3F2B04D940F639
S315080037D058317B4805F085F9019B1B69032B04D9F1
S315080037E040F65B31764805F07CF9019B5B69032B53
S315080037F004D940F65E31724805F073F9019BDB691E
S31508003800032B04D940F661316D4805F06AF980202A
S31508003810FEF734FF0346032B00F01881694B03F5C6
S3150800382080531A464FF480135366674B45F60E02CB
S31508003830C3F88020644B03F580531A464FF0A06303
S315080038409362614B03F500531A464FF48033936233
S3150800385000BF5D4B9B6D03F48033002BF9D100BF8D
S31508003860594B9B6D03F08043002BF9D1019B1B68D4
S315080038701A06019B5B681B051343019A127B120407
S315080038801343019A527B12031343019A927B9201C6
S315080038901343019AD27B11464B4A0B4313614A4B99
S315080038A09B6903F00042019B1B699B061A43019B17
S315080038B05B691B061343019A127E12041343019A8D
S315080038C0527E12021343019A927E11463E4A0B43D8
S315080038D093613D4B1B6A23F00F03019AD269002AB4
S315080038E001D1002200E008221343019AD27E9200F9
S315080038F01A43019BDB69344913430B62019BDB695D
S31508003900002B67D1304B9A6A304B1340019A92F8D4
S31508003910202052011343019A92F8212012011343E1
S31508003920019A92F82420D2001343274A43F480339D
S31508003930936200BF244B9A6D254B1340244A934249
S31508003940F8D1214B03F580531A464FF080739362E2
S315080039501D4B1B6923F47002019B9B681B051A49C2
S3150800396013430B61184B03F580531A464FF0004377
S315080039709361019B93F8223083F00103DBB2002B9D
S3150800398006D0114B03F500531A464FF08073936225
S31508003990019B93F8233083F00103DBB2002B4BD055
S315080039A0094B03F500531A464FF48033936200BF60
S315080039B0054B9B6D03F08043002BF9D13CE000BF1B
S315080039C040970008008000500040005AC7FFFEFEDE
S315080039D003000100019BDB69022B12D11D4B00225B
S315080039E01A611C4B00229A6102230393039B1A0354
S315080039F0039B1B0213431A464FF47F41164805F0F2
S31508003A00D5F8144B9A6A154B1340019A92F8202060
S31508003A1052011343019A92F8222012061343019A7F
S31508003A2092F82420D2001343019A92F82320120414
S31508003A301146084A0B439362019B93F82530002BE5
S31508003A4005D0044B064AC3F8802000E000BF05B045
S31508003A505DF804FB0040005A3440005AC7FFFEFEDA
S31508003A60F1A7FFFF024B93F900301846704700BFD5
S31508003A70A210002000B585B00190019B5B68072B5A
S31508003A8004D940F67C51404805F02BF8019B9B6809
S31508003A90032B04D940F67E513B4805F022F8019BDA
S31508003AA01B78032B04D94FF45861374805F019F8E9
S31508003AB0019B5B785BB2002B04DA40F682513248F0
S31508003AC005F00FF84F230393019B5B788DF80B30B5
S31508003AD09DF80B20039B934228BF13468DF80A30A6
S31508003AE02A4B03F580531A464FF400035366284BB6
S31508003AF04FF4D1525A62264B03F580531A460223D5
S31508003B005360234B03F500531A460123536000BF45
S31508003B101F4B1B6903F48033002BF9D1019B1B78DB
S31508003B201A029DF80A301A4913434B61019B5B68D8
S31508003B301A02019B9B681B011343019A127B5200D0
S31508003B401343019A527B1146114A0B439360019B1A
S31508003B509B7B5A01019BDB7B1B011A43019B1B7C48
S31508003B605B001343019A527C1A43094B5A60019B26
S31508003B709B7C002B03D0064B6FF4D1525A6200BFD0
S31508003B8005B05DF804FB00BF4097000800800050B0
S31508003B900000025082B00346ADF80630034ABDF86D
S31508003BA00630138000BF02B0704700BF9E10002089
S31508003BB082B00346ADF80630034ABDF806301380D6
S31508003BC000BF02B0704700BFA010002000B585B046
S31508003BD00190009100230293254BD3F8203203F07D
S31508003BE00703042B2CD801A252F823F03B3C00080B
S31508003BF0013C0008113C00081F3C00082D3C000849
S31508003C0002AB0021184600F037F8122303931FE091
S31508003C10FDF7C6FB034602930723039318E004F057
S31508003C2058FF034602930A23039311E0FDF728FC85
S31508003C3003460293092303930AE00123039307E04B
S31508003C400023039340F6EC710A4804F04AFF00BFCC
S31508003C50019B002B02D0029A019B1A60009B002B45
S31508003C6002D0009B039A1A6000BF05B05DF804FBFA
S31508003C70008000504097000800B585B0019000917B
S31508003C8000230393294BD3F8283103F00703013B9C
S31508003C90052B33D801A252F823F000BFB53C000823
S31508003CA0D93C0008F13C0008CD3C0008C13C00089E
S31508003CB0E53C0008FDF7F6FA03900523029325E094
S31508003CC0FDF7F0FA0390062302931FE0FDF768FB61
S31508003CD003900723029319E0FDF740FB03900323A3
S31508003CE0029313E0FDF73AFB0390042302930DE0D9
S31508003CF0FDF750FB03900223029307E0002302938B
S31508003D0041F22D010A4804F0ECFE00BF019B002B8E
S31508003D1002D0019B039A1A60009B002B02D0009BDD
S31508003D20029A1A6000BF05B05DF804FB00800050D7
S31508003D304097000800B585B00190009100230293D2
S31508003D40244BD3F8603203F00703013B032B29D831
S31508003D5001A252F823F000BF693D0008793D00082A
S31508003D60973D0008893D000802AB0021184600F07F
S31508003D7071F9102303931DE002AB0021184600F0E9
S31508003D80CBF91123039315E0FDF70AFB03460293CB
S31508003D90072303930EE0FDF7FDFA03460293022379
S31508003DA0039307E00023039341F291010A4804F0C4
S31508003DB098FE00BF019B002B02D0029A019B1A6055
S31508003DC0009B002B02D0009B039A1A6000BF05B027
S31508003DD05DF804FB008000504097000800B585B0E8
S31508003DE00190009100230293244BD3F8943203F0F8
S31508003DF00703013B032B29D801A252F823F000BF81
S31508003E00113E0008213E00083F3E0008313E0008EA
S31508003E1002AB0021184600F01DF9102303931DE09C
S31508003E2002AB0021184600F077F91123039315E039
S31508003E30FDF7B6FA03460293072303930EE0FDF750
S31508003E40A9FA034602930223039307E00023039388
S31508003E5041F2C4010A4804F044FE00BF019B002B4E
S31508003E6002D0029A019B1A60009B002B02D0009B8D
S31508003E70039A1A6000BF05B05DF804FB0080005085
S31508003E804097000800B585B0019000910023029381
S31508003E90174BD3F8703203F00303012B02D0022B21
S31508003EA008D00CE002AB0021184600F035F91123C2
S31508003EB003930CE0002302931523039307E00023E2
S31508003EC0039341F2EF010B4804F00BFE00BF019B80
S31508003ED0002B02D0029A019B1A60009B002B02D08D
S31508003EE0009B039A1A6000BF05B05DF804FB00BF8B
S31508003EF00080005040970008044B03F580531A468B
S31508003F004FF48033136700BF704700BF008000502E
S31508003F1008B58020FEF75EF80346064A934206D89F
S31508003F20054B03F500531A464FF48033136700BF59
S31508003F3008BD00BF005A62020080005000B585B077
S31508003F4001900091002303931B4BD3F8803003F0B4
S31508003F500303032B12D0032B16D8012B02D0022BF6
S31508003F6006D011E0FDF7AEF903900E23029313E095
S31508003F70FDF716FA0390072302930DE0FDF792F971
S31508003F8003900623029307E00023029341F2A81147
S31508003F900A4804F0A6FD00BF019B002B02D0019B36
S31508003FA0039A1A60009B002B02D0009B029A1A60A3
S31508003FB000BF05B05DF804FB00800050409700087C
S31508003FC000B585B001900091002303931F4BD3F8E9
S31508003FD0003103F00303032B1FD801A252F823F084
S31508003FE015400008F13F0008FD3F00080940000899
S31508003FF0FDF7B4F903900323029316E0FDF740FAA0
S3150800400003900923029310E004F060FD039008234F
S3150800401002930AE00123029307E00023029341F288
S31508004020DE110B4804F05DFD00BF019B002B02D09A
S31508004030019B039A1A60009B002B02D0009B029AF0
S315080040401A6000BF05B05DF804FB00BF0080005091
S315080040504097000800B585B00190009100230393AE
S315080040602B4BD3F8203103F00703062B37D801A2D0
S3150800407052F823F0C1400008914000089D4000080E
S31508004080B5400008A9400008C7400008D34000080A
S31508004090FDF708F903900523029328E0FDF75EF97A
S315080040A003900323029322E0FDF77AF9039007238E
S315080040B002931CE0FDF76EF903900223029316E0C3
S315080040C00123029313E0FDF7EDF80390062302930C
S315080040D00DE0FDF743F903900423029307E000235C
S315080040E0029341F225210B4804F0FBFC00BF019B1B
S315080040F0002B02D0019B039A1A60009B002B02D06A
S31508004100009B029A1A6000BF05B05DF804FB00BF69
S31508004110008000504097000800B585B001900091D6
S31508004120002303931F4BD3F8403103F00303032BFB
S315080041301FD801A252F823F06D4100084941000832
S31508004140554100086141000804F0C3FC03900A23A6
S31508004150029316E0FDF794F903900923029310E001
S3150800416004F0BBFC03900C2302930AE0012302939C
S3150800417007E00023029341F257210B4804F0B1FCF3
S3150800418000BF019B002B02D0019B039A1A60009B7B
S31508004190002B02D0009B029A1A6000BF05B05DF89A
S315080041A004FB00BF008000504097000800B585B0AA
S315080041B001900091002303931F4BD3F8603103F05D
S315080041C00303032B1FD801A252F823F0014200086B
S315080041D0DD410008E9410008F541000804F079FCD2
S315080041E003900A23029316E0FDF74AF90390092380
S315080041F0029310E004F071FC03900C2302930AE08A
S315080042000123029307E00023029341F289210B4818
S3150800421004F067FC00BF019B002B02D0019B039AA8
S315080042201A60009B002B02D0009B029A1A6000BFFE
S3150800423005B05DF804FB00BF0080005040970008F9
S3150800424084B0019000914FF440130393009B002B18
S315080042500AD1019B0D4A934203D94FF48013039365
S315080042600FE0002303930CE0009B002B09DD019B64
S31508004270074A934203D94FF48013039301E00023BE
S315080042800393039B184604B0704700BF005A6202A6
S31508004290002D310100B585B001900091184B03F54A
S315080042A080531A464FF4803393660020FDF70AFDC3
S315080042B00246019B02FB03F30193FDF7D5FC034677
S315080042C08DF80F30FDF7E6FCFDF7ECFC034623F40A
S315080042D04013029300990198FFF7B2FF0246029B2A
S315080042E0134302930298FDF7E3FC9DF80F30002B69
S315080042F001D0FDF7C7FC00BF05B05DF804FB00BFA1
S315080043000080005000B585B0019000230393019BFF
S315080043105B4A934200F0A380019B594A934200F2FC
S31508004320A380019B574A934200F09480019B554A0B
S31508004330934200F29980019B534A934200F085808C
S31508004340019B514A934200F28F80019B4F4A934248
S3150800435076D0019B4D4A934200F28680019B4C4AD7
S31508004360934268D0019B4A4A93427DD8019B494AA9
S3150800437093425BD0019B474A934275D8019B464AB4
S3150800438093424ED0019B444A93426DD8019B434ABF
S31508004390934242D0019B414A934265D8019B404AC9
S315080043A0934236D0019B3E4A93425DD8019B3D4AD3
S315080043B093422AD0019B3B4A934255D8019B3A4ADD
S315080043C093421ED0019B384A93424DD8019B374AE7
S315080043D0934212D0019B354A934245D8019B344AF1
S315080043E093420AD0019B324A93423DD8019B002B47
S315080043F040D0019B2F4A934236D12F4B9B6D039396
S3150800440039E02D4B5B6E039335E02B4B1B6F039303
S3150800441031E0294B5B6F03932DE0274B9B6F03938A
S3150800442029E0254BD3F88030039324E0224BD3F8B8
S31508004430843003931FE0204BD3F8883003931AE0A7
S315080044401D4BD3F88C30039315E01B4BD3F89030F3
S31508004450039310E0184BD3F8943003930BE0164BF4
S31508004460D3F89830039306E041F24F31134804F02D
S3150800447038FB00E000BF039B184605B05DF804FB57
S3150800448000B4C4040090D003007E5603006CDC021E
S3150800449080D543020048E80180BA8C01C0EA2101B0
S315080044A00024F400405DC600C0CF6A0000093D0044
S315080044B080841E0040420F000080E00F40970008ED
S315080044C000B585B001900091002302931D4BD3F8E7
S315080044D0803103F00303032B0ED0032B1AD8012BCC
S315080044E002D0022B0FD015E002AB00211846FFF7C9
S315080044F0B1FD1023039315E0FCF752FF0346029320
S31508004500072303930EE0FCF745FF034602930223B5
S31508004510039307E00023039341F27A310A4804F033
S31508004520E0FA00BF019B002B02D0029A019B1A6099
S31508004530009B002B02D0009B039A1A6000BF05B0AF
S315080045405DF804FB008000504097000800B583B072
S31508004550022301934FF4C070FDF73CFD0346074A5A
S31508004560934201D80123019301994FF42070FDF776
S315080045701FFC00BF03B05DF804FB00BF80F0FA0221
S3150800458000B585B001900091002303931F4BD3F823
S31508004590403203F00303032B1FD801A252F823F07D
S315080045A0D5450008B1450008BD450008C9450008BD
S315080045B004F08FFA03900A23029316E0FCF760FFD3
S315080045C003900923029310E004F087FA03900C2362
S315080045D002930AE00123029307E00023029341F2C3
S315080045E0F7310B4804F07DFA00BF019B002B02D07F
S315080045F0019B039A1A60009B002B02D0009B029A2B
S315080046001A6000BF05B05DF804FB00BF00800050CB
S315080046104097000800B585B00190009100230393E8
S31508004620244BD3F8003203F00703042B29D801A240
S3150800463052F823F07D46000849460008554600080A
S31508004640614600086D46000804F043FA03900A2301
S3150800465002931EE0FCF714FF03900923029318E067
S3150800466004F03BFA03900C23029312E0FCF752FE87
S3150800467003469B0A03930F2302930AE0012302933E
S3150800468007E00023029341F238410B4804F029FA67
S3150800469000BF019B002B02D0019B039A1A60009B66
S315080046A0002B02D0009B029A1A6000BF05B05DF885
S315080046B004FB00BF008000504097000800B585B095
S315080046C00190009100230393244BD3F8083203F09A
S315080046D00703042B29D801A252F823F0254700081E
S315080046E0F1460008FD460008094700081547000876
S315080046F004F0EFF903900A2302931EE0FCF7C0FECC
S3150800470003900923029318E004F0E7F903900C23B9
S31508004710029312E0FCF7FEFD03469B0A03930F2360
S3150800472002930AE00123029307E00023029341F271
S3150800473070410B4804F0D5F900BF019B002B02D04D
S31508004740019B039A1A60009B002B02D0009B029AD9
S315080047501A6000BF05B05DF804FB00BF008000507A
S315080047604097000800B585B0019000910023039397
S31508004770114B1B6803F00403002B06D0FCF7CAFD97
S31508004780034603930D23029305E002AA03AB1146E1
S315080047901846FFF7C1FC019B002B02D0039A019B28
S315080047A01A60009B002B02D0029A009B1A6000BF79
S315080047B005B05DF804FB00BF10E000E0024B034AB9
S315080047C01A6400BF704700BF004009503254FFFF0B
S315080047D0024B4AF6CD321A6400BF704700400950B2
S315080047E082B0019000BF054B5A6B019B1340002B0A
S315080047F0F9D100BF00BF02B0704700BF00400950A2
S3150800480008B500BF0421044804F04FFA0346002BFC
S31508004810F8D100BF00BF08BD8440005008B5FFF7B7
S31508004820EFFF044BD3F884309B0903F00303DBB294
S31508004830184608BD0040005000B583B003468DF801
S3150800484007300E4B1B690D4A43F00403136104F04D
S3150800485047FA04F047FA30BF04F048FA04F044FA7D
S315080048609DF8073083F00103DBB2002B01D004F07A
S3150800487017FA00BF03B05DF804FB00BF00ED00E0C7
S3150800488082B00190064BDB6E23F03003019A127951
S315080048901146034A0B43D36600BF02B0704700BFF8
S315080048A00040005000B585B001900B468DF80330E6
S315080048B0019B002B03D1FCF705FD039001E0019B4A
S315080048C003930D4B1B78002B0AD0039B0B4A93428C
S315080048D006D89DF803301946012000F011F806E0C5
S315080048E09DF803301946022000F00AF800BF00BF01
S315080048F005B05DF804FB00BFF4100020005A620200
S3150800490010B586B003460A468DF8073013468DF86B
S315080049100630FFF783FF03461A469DF80730934291
S3150800492052D0FCF7CFFC0590059B04939DF8073001
S31508004930012B0CD1049B264A934204D940F261719B
S31508004940244804F0CEF80121059804F06DF904F026
S3150800495091F90390204B03F500531A464FF0007364
S3150800496053669DF80730184604F0C2F91A4C9DF8AC
S315080049700730184604F0A6F9034623670BE0164BE2
S31508004980D3F8843003F02003002B04D040F26F7173
S31508004990104804F0A6F8104B5B6E03F00073002B6A
S315080049A006D10D4BD3F8843003F02003002BE6D054
S315080049B0039804F06BF99DF80730022B05D1002106
S315080049C0059804F031F900E000BF06B010BD00BF3D
S315080049D0005A62028C9700080040005000B587B064
S315080049E003468DF807300023059300230493404BB4
S315080049F003F580531A464FF0004353663D4B5B6CF4
S31508004A0003F00103002B14BF012300238DF80F3098
S31508004A10FFF7DEFE9DF80730002B28D10120FFF7AF
S31508004A20DFFE344B5B6803F001030293029B002B05
S31508004A3050D0304B03F500531A460123536002E069
S31508004A40049B013304932B4B1B6B03F00103002BD0
S31508004A5003D1049B284A9342F2D9049B264A9342DF
S31508004A6038D90723059335E0049B01330493214B7A
S31508004A701B6B03F00803002B03D0049B1E4A9342CA
S31508004A80F2D9049B1C4A934202D90723059321E0D5
S31508004A90184B03F500531A4620239362154B03F56A
S31508004AA080531A46012353600023049302E0049BB3
S31508004AB0013304930F4B9B6A03F02003002B03D1A9
S31508004AC0049B0D4A9342F2D9049B0B4A934201D99F
S31508004AD0072305939DF80F30002B01D0FFF76EFED4
S31508004AE004F00DF9059B184607B05DF804FB00BFF6
S31508004AF000800050004009503F420F0000B585B0C5
S31508004B000190254B03F580531A464FF00043536630
S31508004B10224B5B6C03F00103002B14BF0123002317
S31508004B208DF80F30FFF754FE019B5B785B001C4A3B
S31508004B3043F00103D3630B20FFF752FE174B5B6864
S31508004B4023F4F872019B9B781B01144913434B60AD
S31508004B50019BDB781B02019A527911460F4A0B43D7
S31508004B609360019B1B791B02019A927911460B4AA5
S31508004B700B431361019B1B781846FFF72FFF9DF81F
S31508004B800F30002B01D0FFF719FE04F0B8F8012307
S31508004B90184605B05DF804FB008000500040095037
S31508004BA00040005000B585B0019000238DF80F3005
S31508004BB000238DF80E30019B0F2B04D940F6FC51CB
S31508004BC0224803F08EFF019B0F2B01D90F23019377
S31508004BD01F4B5B6EDB0F8DF80E301D4B03F58053B4
S31508004BE01A464FF0004353661A4B5B6C03F00103F9
S31508004BF0002B14BF012300238DF80F30FFF7E8FDC3
S31508004C008020FFF7EDFD134B1B6A23F00F021149B5
S31508004C10019B13430B629DF80F30002B01D0FFF761
S31508004C20CDFD9DF80E3083F00103DBB2002B06D0D4
S31508004C30074B03F500531A464FF00043536604F03A
S31508004C405EF800BF05B05DF804FB00BF8C9700084E
S31508004C50008000500040095000B585B001900091D1
S31508004C60019B384A934203D0019B374A934203D1AA
S31508004C70019B344A934203D08A21344803F031FF1A
S31508004C80009B002B03D18C21304803F02AFF002318
S31508004C900393019B2B4A934203D15620FDF7EEFC62
S31508004CA00390039B0C2B0FD0039B092B0CD0039B63
S31508004CB00A2B09D0039B112B06D0039B122B03D07A
S31508004CC09E21224803F00DFF009B5B7B032B03D933
S31508004CD0AA211E4803F005FF009B1B7B802B03D0EF
S31508004CE0AC211A4803F0FDFE009B5B69B3F1804FC7
S31508004CF003D0AE21154803F0F4FE009B1B8AB3F5DA
S31508004D00805F08D0009B1B8AB3F5405F03D0B021B3
S31508004D100E4803F0E6FE009B9B68B3F5165F03D8C2
S31508004D20009B9B68002B03D1B221084803F0D9FEEB
S31508004D30002300220099019800F026FA00BF05B06A
S31508004D405DF804FB0000015B00000A50D8970008D4
S31508004D5000B585B00190019803F0FBFF0423039387
S31508004D600BE0019B03F580531A4604231361019B4C
S31508004D7003F500531A4604231361039B5A1E039234
S31508004D80002BEED1019B20221A61019B0022DA60DA
S31508004D90019B00229A60019B41F202025A61019B23
S31508004DA000229A61019B00229A65019B4FF4A0227A
S31508004DB05A62019B0022DA61019B00221A62019B5A
S31508004DC000229A62019B0022DA62019B00225A6342
S31508004DD0019B00221A65019B03F500531A46044BF2
S31508004DE0D364019B00221A6300BF05B05DF804FB7B
S31508004DF0FF3F0D0300B585B001900B468DF80330D3
S31508004E0000230393019B274A934208D0019B264A15
S31508004E10934204D040F26511244803F062FE9DF8DF
S31508004E200330002B03D1019803F093FF36E0019B72
S31508004E3003F580531A46012353609DF8033003F0A7
S31508004E400F03039340F6FF71019803F061FF019B7E
S31508004E50039A9A637821019803F05AFF0023039373
S31508004E609DF8033003F00103DBB2002B03D0039B4C
S31508004E7043F0010303939DF8033003F00403DBB208
S31508004E80002B03D0039B43F00203039300BF019B4F
S31508004E909B6C03F00303039A9A42F8D100BF05B04E
S31508004EA05DF804FB0000015B00000A50D897000873
S31508004EB000B589B003900291019200238DF81F3046
S31508004EC0019B002B04D140F22321984803F009FEE8
S31508004ED0039B974A934208D0039B964A934204D071
S31508004EE040F22621914803F0FCFD029B002B07D1D6
S31508004EF0039800F025F903461846FDF76BF802906B
S31508004F00039B9B6803F00103002B66D0019A029B62
S31508004F109A4204D94FF40C71844803F0E2FD002349
S31508004F208DF81E30039B5B6803F00103012B0CBF51
S31508004F30012300238DF81730029A019BB2FBF3F385
S31508004F40013B0693069BFF2B04D94FF40E71774855
S31508004F5003F0C7FD9DF81730002B29D028210398A8
S31508004F6003F0D6FE039B9B6C03F00303002B03D0D0
S31508004F7005238DF81E3018E0039B9B6C03F0010394
S31508004F80002B03D009238DF81E300EE0039B9B6C83
S31508004F9003F00203002B03D006238DF81E3004E02D
S31508004FA040F24521614803F09CFD039803F0D1FEC9
S31508004FB0039B1B6923F07F42069B1B061A43039B30
S31508004FC01A619DF81730002B00F0AB809DF81E3053
S31508004FD019460398FFF70EFFA3E0039B5B68012BB6
S31508004FE004D04FF41671514803F07BFD039B9B6D6B
S31508004FF003F00103002B02D0019B5B000193039B86
S315080050009B6803F0E003802B49D0802B57D8602B90
S3150800501037D0602B53D8402B22D0402B4FD8002BAB
S3150800502002D0202B0ED04AE0029B1B09019A9A4215
S3150800503004D94FF420713D4803F053FD10238DF831
S315080050401F3042E0029BDB08019A9A4204D940F2DB
S315080050508521364803F045FD08238DF81F3034E0D6
S31508005060029B354AA2FB03239B08019A9A4204D95C
S3150800507040F28A212D4803F034FD06238DF81F30AF
S3150800508023E0029B9B08019A9A4204D940F28F2199
S31508005090264803F026FD04238DF81F3015E0019AF3
S315080050A013465B001344029A9A4204D24FF42571C0
S315080050B01E4803F016FD01238DF81F3005E040F267
S315080050C09A211A4803F00DFD00BF9DF81F30002BEA
S315080050D027D0029B5A019DF81F30019901FB03F363
S315080050E0B2FBF3F30693069B203B0693069BDB0075
S315080050F00693069B114A934204D940F2A5210B4810
S3150800510003F0EFFC069A0D4B134006930121039812
S3150800511003F0FEFD039B069A1A630121039803F028
S31508005120F7FD00BF09B05DF804FB00BFD89700087B
S315080051300000015B00000A50ABAAAAAAF8FF7F008C
S3150800514000B585B00190019B0C4A934202D15623C3
S3150800515003930DE0019B0A4A934202D15723039316
S3150800516006E040F27531074803F0BBFC002300E077
S31508005170039B184605B05DF804FB00BF0000015B01
S3150800518000000A50D897000800B585B00390029130
S3150800519001920093039B5B68002B04D040F6FF71D5
S315080051A0039803F0B5FD0398FFF7D2FD039B5B69EF
S315080051B023F44C5323F00F03029A527B1343029AAB
S315080051C0D2891343029A128A1A43039B5A61039B94
S315080051D09B6823F0804323F0E203029A127B134371
S315080051E0029A127E1A43029B5B691A43039B9A60D2
S315080051F0029B9B68002B05D1039B9B6843F00042EA
S31508005200039B9A60029BDB69002B00F0CB80039B13
S315080052109A68029BDB691B7A9B051A43039B9A6073
S31508005220039B9A68029BDB699B7A5B041A43039B80
S315080052309A60039B9A68029BDB699B8803F4C043C8
S315080052401A43039B9A60039B9A68029BDB695B7807
S315080052509B001A43039B9A60039B9A68029BDB692F
S315080052605B7BDB001A43039B9A60039B9A68029B4D
S31508005270DB699B7B1B011A43039B9A60039B9A6815
S31508005280029BDB699B789B021A43039B9A60029BED
S31508005290DB699B799A02029BDB69DB795B021A431D
S315080052A0039BDA60029BDB691B78012B04D0029B07
S315080052B0DB691B78032B05D1039BDB6843F00402EB
S315080052C0039BDA60029BDB691B78022B04D0029BE6
S315080052D0DB691B78032B16D1934A039B93498B42B0
S315080052E008D0039B92498B4201D1012303E04FF07A
S315080052F0FF3300E000235B01134403F5A453143382
S3150800530002221A6015E0884A039B88498B4208D016
S31508005310039B87498B4201D1012303E04FF0FF33FA
S3150800532000E000235B01134403F5125314330222F1
S315080053301A60029BDB695B7A1A46039B03F5805366
S315080053409A62029BDB695B7A002B05D0039BDB68BC
S3150800535043F40062039BDA60029BDB69DB7A002B6D
S3150800536020D0039BDB6843F40042039BDA60039B6F
S315080053706E4A934208D1029BDB691B7B6D4A03F098
S315080053800F0302F580525367039B694A934209D17A
S31508005390029BDB691B7B674A03F00F0302F5805209
S315080053A0C2F88030019B002B1DD0019B93F820305A
S315080053B0002B06D0039B03F580531A46012313627C
S315080053C011E0039BDB6923F00903019A92F8222076
S315080053D01343019A92F82120134343F00103039AD9
S315080053E002F58052D361009B002B77D0029B1B7E6F
S315080053F0002B06D0039B03F580531A464FF400434F
S315080054009365039B494A934203D0039B484A9342B8
S315080054104FD1009B93F82130102B11D8039B434A98
S31508005420934208D0039B424A934201D1012303E0E9
S315080054304FF0FF3300E000233F4A0121D15410E02A
S31508005440039B3A4A934208D0039B394A934201D1B7
S31508005450012303E04FF0FF3300E00023364A022120
S31508005460D154009B5B8CB3F5006F11D8039B2F4A70
S31508005470934208D0039B2E4A934201D1012303E0AD
S315080054804FF0FF3300E000232C4A0121D15410E0ED
S31508005490039B264A934208D0039B254A934201D18F
S315080054A0012303E04FF0FF3300E00023234A0221E3
S315080054B0D154039B9B6D23F4F95323F01E03009AE2
S315080054C092F821201343009A528C1A43039B9A653B
S315080054D0039B03F580531A46012393650521039818
S315080054E0FFF788FC029B9B68002B07D0029B596834
S315080054F0029B9B681A460398FFF7DAFC029B1B7807
