:020000040800F2
:1000000000100020B50D0008C7780008C778000868
:10001000C7780008C7780008C7780008C7780008C4
:10002000C7780008C7780008C7780008C7780008B4
:10003000C7780008C7780008C7780008C7780008A4
:10004000C7780008C7780008C7780008C778000894
:10005000E1170008C7780008C7780008C7780008CB
:10006000C7780008C7780008C7780008C778000874
:10007000C7780008FD090008C7780008C77800089D
:10008000C7780008C7780008C5040008C7780008CA
:10009000C7780008C7780008C7780008C778000844
:1000A000C7780008C7780008C7780008C778000834
:1000B000C7780008C7780008C7780008C778000824
:1000C000C7780008C7780008C7780008C778000814
:1000D000C7780008C7780008C7780008C778000804
:1000E000C7780008C7780008C7780008C7780008F4
:1000F000C7780008C7780008C7780008C7780008E4
:10010000C7780008C7780008C7780008C7780008D3
:10011000C7780008C7780008C7780008C7780008C3
:10012000C7780008C7780008C7780008C7780008B3
:10013000C7780008C7780008C7780008C7780008A3
:10014000C7780008C7780008C7780008C778000893
:10015000C7780008C7780008C7780008C778000883
:10016000C7780008C7780008C7780008C778000873
:10017000013800D0FCE7704700B585B001AB2E49CF
:10018000184607F0EBFD019B184606F047F926A339
:10019000D3E9002306F0BCF902460B461046194687
:1001A00023A3D3E9002306F0DDFA02460B461046EE
:1001B000194606F0DFFB03460393039806F050F957
:1001C00002460B464FF000001C4905F0E9FF0246CD
:1001D0000B46104619464FF00002184B06F0C2FAC3
:1001E00002460B46104619464FF00002144B06F02B
:1001F0008FF902460B46104619464FF00002114B8C
:1002000006F086F902460B461046194606F092FBA8
:1002100003469AB20C4B1A800B4B1B88184605B04C
:100220005DF804FBAFF300806666666666660A40AA
:100230000000000000FEAF400040005900000840F0
:100240000000594000002440E210002010B5054C89
:10025000237833B9044B13B1044800E000BF0123F5
:10026000237010BD881000200000000038880008AE
:1002700008B5034B1BB10349034800E000BF08BDAC
:10028000000000008C10002038880008A3F5803A98
:10029000704700BF174B002B08BF134B9D46FFF75D
:1002A000F5FF00218B460F461348144A121A07F037
:1002B000FFFD0E4B002B00D098470D4B002B00D0BC
:1002C00098470020002104000D000D48002802D0AE
:1002D0000C4800E000BF06F041FD2000290007F0B7
:1002E0004DFA06F027FD00BF0000080000000000E6
:1002F000000000000010002088100020F0100020F6
:10030000000000000000000000B583B0034600912B
:100310008DF807309DF80730002B14D09DF807307A
:10032000012B0ED09DF80730022B07D09DF8073027
:10033000032B01D13F2308E0002306E040F2FF3306
:1003400003E03F2301E040F2FF33009AD34003F083
:100350000103002B04D140F2CF310B4807F0BFFA64
:100360009DF8072013465B0013441B0103F11402A0
:10037000064B13440099184607F06CF803461846DC
:1003800003B05DF804FB00BF3081000830C00350AB
:1003900000B583B0019007F06AF807F086F80346CD
:1003A0001A46274B1A7007F0AEF803461A46254B3B
:1003B0001A7007F0A8F803461A46234B1A7007F084
:1003C000A2F803461A46214B1A7007F09CF8034620
:1003D0001A461F4B1A7007F096F803469AB21D4B47
:1003E0001A801C4B1B881946164B1B781A46164B55
:1003F0001B781344154A12781344154A1278134493
:10040000994217D1114B1B781B021AB2104B1B7863
:100410001BB213431BB29AB2019B1A80094B1B7883
:100420001B021AB2084B1B781BB213431BB29AB2C1
:10043000019B5A8001F06AF900BF03B05DF804FB2C
:10044000E8100020E4100020E5100020E610002055
:10045000E7100020E010002082B003468DF807303E
:100460009DF90730002B0CDB9DF8073003F01F02CD
:1004700005499DF907305B09012000FA02F241F8B5
:10048000232000BF02B0704700E100E082B00346C5
:100490008DF807309DF90730002B0DDB9DF80730F4
:1004A00003F01F0206499DF907305B09012000FA9D
:1004B00002F2603341F8232000BF02B0704700BF52
:1004C00000E100E000B589B04FF0B24007F081F8DC
:1004D000079007994FF0B24007F063F83F4B1B7845
:1004E0000133DAB23D4B1A703C4B1B78022B62D1C0
:1004F0000023019302AB00221A605A609A601A73BB
:1005000001AB05223649184607F0C5FC00F0DAF9C0
:10051000FFF732FE0346ADF81A3001AB191DBDF8E6
:100520001A300422184600F0BBFA6B461846FFF753
:100530002FFFBDF8000001AB07330422194600F07D
:10054000AFFABDF8020001AB0A330422194600F0ED
:10055000A7FA2449244807F0B5F8224B1B88ADF8C8
:10056000183001AB03F10D01BDF818300422184614
:1005700000F096FA01AB1121184607F022F9034664
:100580008DF8173001AB11221946184807F083FC8B
:10059000164A9DF817301374144B00225A74112117
:1005A000124800F057FA0421114807F019F8042105
:1005B0000F4807F02DF8094B1B78032B0AD11121A6
:1005C0000A4800F047FA054B00221A700421084837
:1005D00007F012F800BF09B05DF804FBE910002035
:1005E000B810002078100020EA100020A41000208D
:1005F00000000A5000B583B0034600918DF8073023
:100600009DF80730002B14D09DF80730012B0ED039
:100610009DF80730022B07D09DF80730032B01D13E
:100620003F2308E0002306E040F2FF3303E03F23CE
:1006300001E040F2FF33009AD34003F00103002BA6
:1006400004D140F2CF310B4807F049F99DF807205B
:1006500013465B0013441B0103F11402064B1344C1
:100660000099184607F047F80346184603B05DF8AE
:1006700004FB00BF8081000830C0035000B583B088
:10068000034600918DF807309DF80730002B14D0F9
:100690009DF80730012B0ED09DF80730022B07D0B4
:1006A0009DF80730032B01D13F2308E0002306E02B
:1006B00040F2FF3303E03F2301E040F2FF33009AB2
:1006C000D34003F00103002B04D14FF489610A48A1
:1006D00007F005F909489DF807200121009B994082
:1006E00013465B0013441B01034403F54153196097
:1006F00000BF03B05DF804FBD081000800C00350C8
:1007000010B584B0304A02AB92E80300186004339D
:10071000198002AB0621184600F09CF900238DF8E1
:100720000F3010E09DF80F40284807F001FA03460B
:100730001A4604F110036B4403F80C2C9DF80F309B
:1007400001338DF80F309DF80F30032BEAD99DF857
:100750000430312B21D19DF80530312B1DD19DF86E
:1007600006201B4B1A709DF80720194B5A70184B26
:1007700017229A70164B3122DA7002210120FFF7FE
:100780007DFF00F02BFF134800F0DCFF0221012069
:10079000FFF774FF00F0BAFF12E09DF80430312B30
:1007A0000ED19DF80530302B0AD104210120FFF72E
:1007B00065FF00F013FF074800F0C4FF03F0FAF8EC
:1007C00000BF04B010BD00BF2082000800000A5026
:1007D000B8100020C0C62D0030B593B001212A20EA
:1007E00001F0FCF90FAB00221A605A609A600022F7
:1007F0002F49304804F0F8FE03468DF841302E4B67
:1008000005AC1D460FCD0FC40FCD0FC495E80300F6
:1008100084E8030003AB00221A605A6003238DF8BA
:100820000E3001238DF8083000238DF809300023A5
:100830008DF80A3000238DF80B301E4804F0CEFDF1
:1008400003238DF8183040F6E44308939DF84130B7
:100850000093002300221949164804F00BFF0346B9
:10086000079304238DF8153004238DF824300023DA
:100870008DF8113085238DF8093001238DF808306B
:1008800005AA0FAB19460B4804F022F802AA03ABE5
:100890001946084804F0FAFC094BD3F82033084AFB
:1008A00043F48033C2F8203300BF13B030BD00BF23
:1008B000002D3101004000592882000880969800E0
:1008C00000C0035000B583B001210B4806F04DFF76
:1008D0000023ADF8063004E0BDF806300133ADF872
:1008E0000630BDF80630B3F5487FF5D300BF00BF32
:1008F00003B05DF804FB00BF0040005982B003461E
:100900008DF807309DF90730002B0CDB9DF8073080
:1009100003F01F0205499DF907305B09012000FA29
:1009200002F241F8232000BF02B0704700E100E06E
:1009300082B003468DF807309DF90730002B0DDBA0
:100940009DF8073003F01F0206499DF907305B0947
:10095000012000FA02F2603341F8232000BF02B008
:10096000704700BF00E100E030B589B001213A20B6
:1009700001F034F90121572001F030F9012304225C
:100980000821002003F0F6FE0023012204210020AC
:1009900003F0F0FE012304220021012003F0EAFE0F
:1009A000134B6C461D460FCD0FC495E80F0084E82D
:1009B0000F004FF4E13302930E4B4FF40022C3F8C3
:1009C000CC240C4B4FF48022C3F8C424094B1422CE
:1009D000C3F8B4246B461946074803F017FA0D20F4
:1009E000FFF7A6FF0D20FFF789FF00BF09B030BD5C
:1009F0005082000800C0035000000A5000B583B0C8
:100A0000114BDB6B8DF807309DF80730312B04D18B
:100A100004210D4806F0C9FE0BE09DF80730302B8D
:100A200007D11121094800F015F80421064806F005
:100A3000BCFE0421044806F0ACFE054B00221A70EF
:100A400000BF03B05DF804FB00000A50A4100020B2
:100A5000E910002000B585B001900B468DF80330F9
:100A600000238DF80F300DE09DF80F30019A1344EC
:100A70001B781946094807F088F89DF80F300133B4
:100A80008DF80F309DF80F209DF803309A42EBD37C
:100A900000BF00BF05B05DF804FB00BF00000A50B6
:100AA00000B585B0034602910192ADF80E30019970
:100AB000BDF80E30034A029806F074F900BF05B085
:100AC0005DF804FB7082000808B506F087FF294B2B
:100AD0001B6F23F00703274A43F00203136706F056
:100AE0008AFF244BD3F8203123F00703214A43F037
:100AF0000103C2F820311F4BD3F8283123F007033C
:100B00001C4A43F00103C2F828311A4BD3F8403194
:100B100023F00303174A43F00203C2F84031154B98
:100B2000D3F8603123F00303124A43F00203C2F802
:100B30006031104BD3F8403223F003030D4A43F0E9
:100B40000203C2F840320B4BD3F8003223F0070304
:100B5000084A43F00203C2F80032064BD3F80832C9
:100B600023F00703034A43F00203C2F808320023CC
:100B7000184608BD0080005000B583B003460091C0
:100B80008DF807309DF80730002B14D09DF8073002
:100B9000012B0ED09DF80730022B07D09DF80730AF
:100BA000032B01D13F2308E0002306E040F2FF338E
:100BB00003E03F2301E040F2FF33009AD34003F00B
:100BC0000103002B04D140F2FE310A4806F087FEF3
:100BD00009489DF807200121009B994013465B00BE
:100BE00013441B01034403F50153196000BF03B014
:100BF0005DF804FB7882000800C0035000B583B0A4
:100C0000034600918DF807309DF80730002B14D073
:100C10009DF80730012B0ED09DF80730022B07D02E
:100C20009DF80730032B01D13F2308E0002306E0A5
:100C300040F2FF3303E03F2301E040F2FF33009A2C
:100C4000D34003F00103002B04D140F22D410A48A8
:100C500006F045FE09489DF807200121009B9940B8
:100C600013465B0013441B01034403F582531960D0
:100C700000BF03B05DF804FB7882000800C0035099
:100C800030B589B0454B01AC1D460FCD0FC495E87A
:100C9000070084E8070001213A2000F09FFF0121AE
:100CA000292000F09BFF01238DF812303C4B039369
:100CB00001AB19463B4805F071F8012304220121DC
:100CC000022003F057FD002301220221022003F03D
:100CD00051FD012304220321022003F04BFD0123D7
:100CE00004220421022003F045FD2F4B2F4AC3F8B4
:100CF00034272D4B4FF00212C3F830272A4B2C4AD1
:100D0000C3F83827284B1C22C3F820274FF448701B
:100D100005F002FA06F0C9FD142005F0FDF906F011
:100D2000CBFD232005F0F8F906F0BFFDB9211D48E1
:100D300007F065F806F0C0FD002300220121022023
:100D400003F018FD002300220221022003F012FD0F
:100D5000012300220321022003F00CFD01230022C5
:100D60000421022003F006FD0E4805F09BF80E4B0F
:100D70000022C3F834270C4B0022C3F830270A4B5B
:100D80000022C3F83827084B0022C3F8202700218F
:100D9000292000F023FF00BF09B030BDC882000841
:100DA00000127A0000C0055000C00350020003008A
:100DB0000200010000B585B000F07EF81F4B0393E0
:100DC00019E0002302930EE0039B1A68029B9B002C
:100DD0001A44039B5968029B9B000B4412681A60DB
:100DE000029B01330293039B9B68029A9A42EBD3C6
:100DF000039B0C330393039B114A9342E1D3114BA2
:100E0000019314E00023009309E0019B1A68009B02
:100E10009B00134400221A60009B01330093019B46
:100E20005B68009A9A42F0D3019B08330193019BBF
:100E3000054A9342E6D3FFF72DFA00BF4088000829
:100E40004C8800084C8800084C88000882B0034693
:100E50008DF807309DF90730002B0CDB9DF807302B
:100E600003F01F0205499DF907305B09012000FAD4
:100E700002F241F8232000BF02B0704700E100E019
:100E800082B003468DF807309DF90730002B0DDB4B
:100E90009DF8073003F01F0206499DF907305B09F2
:100EA000012000FA02F2603341F8232000BF02B0B3
:100EB000704700BF00E100E008B51D4B1D4A9A6075
:100EC0001B4BD3F888301A4A43F47003C2F88830B9
:100ED000194B03F580531A464FF480439366174B22
:100EE00003F500531A464FF0FF331366134B03F517
:100EF00000531A46124B5366124B02221A60BFF37C
:100F00004F8F00BFBFF36F8F00BF0020FFF7B8FF08
:100F10000A4B03F500531A464FF44033D3600020C8
:100F2000FFF794FF054B4FF440321A6100BF08BD34
:100F300000ED00E000000008008000500080004448
:100F4000F7FF3700D0ED00E0014B1B6818467047F3
:100F50000810002082B00190024A019B136000BF7C
:100F600002B070470810002000B583B00023019341
:100F70000E4B1B6F03F00703032B09D0032B0ED876
:100F8000012B09D0022B0AD1FFF7DEFF019007E009
:100F9000074B1B68019303E0064B019300E0FEE75B
:100FA000019B184603B05DF804FB00BF00800050B1
:100FB00000100020002D310100B583B0FFF7D4FFF1
:100FC00001900A4B1B6F1B0B03F00F030093009B58
:100FD0000133019AB2FBF3F30193054A019B1360BD
:100FE000019B184603B05DF804FB00BF0080005071
:100FF0000C100020014B1846704700BF00B4C40419
:10100000014B1B68184670470010002000B583B0E4
:101010000190074A019B1360064B1B6F03F0070307
:10102000032B01D1FFF7C8FF00BF03B05DF804FB3D
:101030000010002000800050014B1846704700BF90
:10104000002D310182B0002301934FF0B4439B681F
:101050001B0C03F01F030C2B4CD801A252F823F0F9
:1010600095100008F5100008F5100008F5100008AC
:10107000F5100008F5100008D1100008D71000087E
:10108000DD100008F5100008E3100008E910000862
:10109000EF1000084FF0B4439B6803F04073B3F1C6
:1010A000007F0ED0B3F1007F0ED8002B03D0B3F138
:1010B000807F03D008E0124B019308E0114B0193AD
:1010C00005E0114B019302E00023019300BF12E001
:1010D0000E4B01930FE00E4B01930CE00D4B01936F
:1010E00009E00D4B019306E00C4B019303E00C4B20
:1010F000019300E000BF019B184602B0704700BF9B
:1011000000093D0080841E0040420F00405DC60083
:101110000024F400C0EA210180BA8C010048E801F3
:10112000005A6202014B1B681846704704100020E9
:1011300084B001900B4B1A68019B13440A4A9342F6
:1011400002D94FF0FF3309E0064B1B680393054BB0
:101150001A68019B1344034A1360039B184604B0AA
:10116000704700BF101000200000042000B587B0B9
:10117000039002910192029B1F2B03D991210C48ED
:1011800006F0ADFB019B002B04D0039B03F58053BD
:10119000059303E0039B03F500530593059B012191
:1011A000029A01FA02F21A6000BF07B05DF804FB70
:1011B000E482000800B585B003468DF807309DF83D
:1011C0000730002B01D0012300E000230393039A92
:1011D00000210348FFF7CAFF00BF05B05DF804FB1C
:1011E00044C4035000B585B0002303930023ADF839
:1011F0000A300023ADF808300023019301213A2082
:1012000000F0ECFC012304220321002003F0B2FAD9
:10121000019806F01BFD0120FFF7CCFF474B03F5BB
:1012200080531A464FF400235366454BDB6803F0A6
:101230008073002B14BF012300238DF803309DF829
:101240000330002B05D03E4BDB683D4A23F0807312
:10125000D3603A4BD3F8803023F00303374A43F08E
:101260000203C2F880309DF80330002B05D0344BC8
:10127000DB68334A43F08073D3604FF4607000F052
:10128000E7FC03902E4B1B682D4A43F001031360CB
:101290002B4BDB682A4A43F08073D3600123ADF8FF
:1012A0000A300F23ADF80830BDF80A305B021A4649
:1012B000BDF808305B001A432249234B13430B60EF
:1012C000039B03F5D52303F2FC43DB081F4AA2FB73
:1012D00003239B0A1E4A013B13611D4B0222C3F8E4
:1012E000F0201B4B4FF48072C3F804234FF060438F
:1012F000184AC3F8B02F4FF06043174AC3F8802E46
:101300004FF06043D3F8003E4FF0604243F48073E7
:10131000C2F8003E4FF06043FF2283F820204FF0D8
:101320006043D3F8003E4FF0604223F48073C2F86C
:10133000003E0023184605B05DF804FB0080005015
:10134000F0ED00E0001000E0E101004017916502BF
:10135000000004E055CEACC50900010082B0034690
:101360008DF807309DF90730002B0CDB9DF8073016
:1013700003F01F0205499DF907305B09012000FABF
:1013800002F241F8232000BF02B0704700E100E004
:1013900082B003468DF807309DF90730002B13DB30
:1013A0009DF8073003F01F0209499DF907305B09DA
:1013B000012000FA02F2203341F82320BFF34F8FBF
:1013C00000BFBFF36F8F00BF00BF02B0704700BF08
:1013D00000E100E082B003468DF807309DF9073048
:1013E000002B0DDB9DF8073003F01F0206499DF925
:1013F00007305B09012000FA02F2603341F8232034
:1014000000BF02B0704700BF00E100E082B0019071
:10141000019B0E4A93420FD0019B0D4A93420BD081
:10142000019B0C4A934207D0019B0B4A934203D085
:10143000019B0A4A934201D1012300E0002303F0FB
:101440000103DBB2184602B0704700BF00800450B1
:1014500000C00450000005500040055000800550B9
:1014600000B583B00190019B334A934214D0019B95
:10147000324A934210D0019B314A93420CD0019BD7
:10148000304A934208D0019B2F4A934204D040F245
:10149000BE212E4806F023FA019B274A934245D0ED
:1014A000019B254A934203D0019B244A93423AD0A0
:1014B000019B214A934207D0019B204A934203D0CB
:1014C000019B1F4A93422BD0019B1B4A93420BD096
:1014D000019B1A4A934207D0019B194A934203D0B9
:1014E000019B184A934218D0019B134A934212D091
:1014F000019B124A93420ED0019B114A93420AD09B
:10150000019B104A934206D0019B0F4A934202D19D
:101510004FF6FF730CE000230AE04FF6FF7307E07D
:101520004FF6FF7304E04FF0FF3301E04FF0FF335D
:10153000184603B05DF804FB0080045000C004505E
:10154000000005500040055000800550348300081D
:1015500000B583B001900B468DF803300198FFF77A
:1015600055FF0346002B04D140F26E31084806F0C7
:10157000B6F99DF80330002B03D0019B0122DA60FD
:1015800002E0019B0222DA6000BF03B05DF804FBB9
:101590003483000800B583B0019000910198FFF7F3
:1015A0005FFF0246009B934204D94FF494610A48BE
:1015B00006F095F9019B1B6B03F00103002B04D18E
:1015C00040F2A241044806F08AF9019B009ADA61D0
:1015D00000BF03B05DF804FB348300082DE9F04F31
:1015E0008BB005AB00221A605A609A60DA60012362
:1015F0008DF8143001AB00221A605A609A601A7399
:1016000002238DF80A300121242000F0E7FA01AB13
:101610001A460021354804F0CDFA4FF6FF713348E1
:10162000FFF7B8FF0023ADF8163005AB19462F4879
:1016300004F028FA4FF4806000F00AFB03462C4ABD
:1016400013602B4B1B68BDF816200132B3FBF2F37D
:10165000274A1360BDF8163001339BB2ADF816303F
:10166000BDF81630B3F5806F04D2214B1B68214AB8
:101670009342DAD8002000F0EBFA03461E4AB2FB90
:10168000F3F309931A4B1B68002298469146099B75
:1016900000221E46174606FB09F208FB07F3134417
:1016A000A8FB06452B441D46144B14EB030A45F1D9
:1016B000000B134A4FF000035046594605F0AAF9B3
:1016C00002460B460F4B1A600F4B00221A70102176
:1016D000064806F042F90420FFF77CFE0420FFF7DD
:1016E0003DFE002318460BB0BDE8F08F008004508B
:1016F000C010002080841E0000B0710B20A10700E4
:1017000040420F00C4100020EB10002008B5042058
:10171000FFF73EFE10210A4806F01FF91021084885
:1017200006F00FF90420FFF755FE00210448FFF7EB
:101730000FFF0021242000F051FA0023184608BDB5
:10174000008004502DE9F04F85B0019020490968D0
:1017500000200E460746019900200C46054604FB72
:1017600007F006FB05F10144A6FB042319440B46D0
:10177000184912EB010A43F1000B174A4FF000031E
:101780005046594605F046F902460B46CDE902237C
:101790000CE04FF6E85000F03DF8DDE902230F4978
:1017A00012EB010843F1FF39CDE90289DDE902239B
:1017B0004FF6E9518A4273F10003EAD2BDF80830CE
:1017C000184600F027F80023184605B0BDE8F08F52
:1017D000C010002020A1070040420F001802FFFFA8
:1017E00000B583B0094806F0C5F80190019B03F0ED
:1017F0001003002B06D01021044806F0A2F8044B79
:1018000001221A7000BF03B05DF804FB0080045091
:10181000EB10002000B585B00346ADF80630BDF8EA
:101820000630002B17D00E4806F084F80346ADF8BA
:101830000E300B4806F07EF803469BB2ADF80C3034
:10184000BDF80C309AB2BDF80E30D31A9BB2BDF879
:1018500006209A42EDD800BF05B05DF804FB00BF3A
:101860000080045000B587B0039002910192029B62
:101870001F2B03D991210C4806F031F8019B002B56
:1018800004D0039B03F58053059303E0039B03F50A
:1018900000530593059B0121029A01FA02F21A6096
:1018A00000BF07B05DF804FB8483000808B500BFE3
:1018B0000421044806F06BF80346002BF8D100BF62
:1018C00000BF08BD8440005008B5FFF7EFFF044B90
:1018D000D3F884309B0903F00303DBB2184608BD3C
:1018E00000400050054BDB6903F48033002B14BF2C
:1018F00001230023DBB21846704700BF00000350ED
:10190000024B0022DA6300BF704700BF00000350A3
:10191000024B41F67132DA6300BF7047000003509A
:10192000014B5B68184670470000035082B001907D
:10193000024A019B536000BF02B070470000035091
:1019400000B585B0019000230393019BB3F5607F40
:1019500035D0019BB3F5607F59D8019BB3F5207F4B
:101960004ED0019BB3F5207F51D8019BB3F5007F8A
:101970003ED0019BB3F5007F49D8019B002B03D0DB
:10198000019BB3F5C07F42D1264B1B6F1B0B03F0AD
:101990000F030393039B002B3BD0039B012B38D0F9
:1019A000039B032B35D0039B072B32D0039B0F2BBC
:1019B0002FD040F275211C4805F091FF29E0194B0A
:1019C000D3F880301B0903F003030393039B002B20
:1019D00021D0039B012B1ED0039B022B1BD0039B0A
:1019E000032B18D040F285210F4805F078FF12E054
:1019F0000C4BD3F890301B0E03F01F0303930BE046
:101A0000084B1B6F9B0A03F00103039304E000BF24
:101A100002E000BF00E000BF039B0133184605B0A1
:101A20005DF804FB00800050D483000810B584B03A
:101A300001900091019BB3F5607F54D0019BB3F5F9
:101A4000607F00F2BA80019BB3F5207F00F09F8099
:101A5000019BB3F5207F00F2B080019BB3F5007FBE
:101A60007DD0019BB3F5007F00F2A780019B002B86
:101A700004D0019BB3F5C07F40F09F80009B012BF9
:101A800010D0009B022B0DD0009B042B0AD0009B92
:101A9000082B07D0009B102B04D040F2B6214C48F5
:101AA00005F01DFF05F0DAFF05F0D0FF01F0A4FA04
:101AB000484B1B6F23F47042009B013B1B034549BD
:101AC00013430B6705F05DFF0446FFF7FDFE034679
:101AD000C3F102031946204605F0A4FF01F0B6FD4C
:101AE00001F096FA70E03C4BDB6803F08073002B4A
:101AF00014BF012300238DF80F309DF80F30002B09
:101B000005D0354BDB68344A23F08073D360009BEB
:101B1000012B0DD0009B022B0AD0009B032B07D07A
:101B2000009B042B04D04FF43871294805F0D7FEF0
:101B3000284BD3F8803023F03002009B013B1B017F
:101B400024491343C1F880309DF80F30002B3AD060
:101B5000214BDB68204A43F08073D36033E0009B65
:101B6000002B02D0009B202B04D940F2F32118480F
:101B700005F0B5FE174BD3F8903023F0F852009BD8
:101B8000013B1B0613491343C1F890301CE0009B36
:101B9000012B07D0009B022B04D040F2F9210C4806
:101BA00005F09DFE0B4B1B6F23F48062009B013BF5
:101BB0009B02084913430B6706E040F2FF210448EB
:101BC00005F08DFE00E000BF00BF04B010BD00BFF7
:101BD000D483000800800050F0ED00E000B585B02F
:101BE00001900B468DF8033000230393019B5B09A2
:101BF000002B05D14FF44771124805F070FE12E03A
:101C0000019B5B09012B02D10F4B03930BE0019B5E
:101C10005B09022B02D10D4B039304E040F2263105
:101C2000084805F05CFE019B03F01F0302939DF83A
:101C300003301A4602990398FFF714FE00BF05B05F
:101C40005DF804FBD4830008648000506880005075
:101C500010B584B001900023039300230293019BED
:101C6000B3F5486F00F02983019BB3F5486F00F28C
:101C70003683019BB3F5406F00F0EF82019BB3F513
:101C8000406F00F22C83019BB3F5286F00F01B839B
:101C9000019BB3F5286F00F22283019BB3F5206FFF
:101CA00000F00583019BB3F5206F00F21883019BC0
:101CB000B3F5106F00F0EF82019BB3F5106F00F2E7
:101CC0000E83019BB3F5F06F00F00383019BB3F526
:101CD000F06F00F20483019BB3F5E06F00F0E18246
:101CE000019BB3F5E06F00F2FA82019BB3F5D06F70
:101CF00000F0CB82019BB3F5D06F00F2F082019B24
:101D0000B3F5C06F00F0BB82019BB3F5C06F00F26A
:101D1000E682019BB3F5B06F00F0A582019BB3F59D
:101D2000B06F00F2DC82019BB3F5A06F00F08F82F0
:101D3000019BB3F5A06F00F2D282019BB3F5806FD7
:101D400000F07F82019BB3F5806F00F2C882019B97
:101D5000B3F5607F00F06682019BB3F5607F00F20F
:101D6000BE82019BB3F5407F00F04F82019BB3F52B
:101D7000407F00F2B482019BB3F5207F00F03982EE
:101D8000019BB3F5207F00F2AA82019BB3F5007F8F
:101D900000F02382019BB3F5007F00F2A082019B3B
:101DA000B3F5807F00F20A82019BB3F5807F00F2D9
:101DB000968201A252F823F0D1210008DF22000808
:101DC000DF220008DF220008DF220008DF220008EF
:101DD000DF220008DF220008DF220008DF220008DF
:101DE000DF220008DF220008DF220008DF220008CF
:101DF000DF220008DF220008DF220008DF220008BF
:101E0000DF220008DF220008DF220008DF220008AE
:101E1000DF220008DF220008DF220008DF2200089E
:101E2000DF220008DF220008DF220008DF2200088E
:101E3000DF220008DF220008D1210008F32100087A
:101E4000D1210008F32100084322000843220008A2
:101E5000432200084322000843220008F32100081F
:101E6000672200080B2200087F2200088B2200084E
:101E70000B220008F3210008F3210008F3210008D9
:101E8000DF220008DF220008DF220008DF2200082E
:101E9000DF220008DF220008DF220008DF2200081E
:101EA000F3210008F3210008F3210008D3220008E1
:101EB000A3220008F3210008DF220008DF22000827
:101EC000DF220008DF220008DF220008DF220008EE
:101ED000DF220008DF220008DF220008DF220008DE
:101EE000DF220008DF220008DF220008432200086A
:101EF000D1210008D1210008D12100089722000833
:101F00000B2200080B220008AF220008C72200089D
:101F10004F2200085B220008DF220008DF220008B1
:101F2000DF220008DF220008DF220008BB220008B1
:101F3000D1210008DF220008DF220008DF2200088C
:101F4000DF220008DF220008DF220008DF2200086D
:101F5000DF220008DF220008DF220008DF2200085D
:101F6000DF220008DF220008DF220008DF2200084D
:101F7000DF220008DF220008DF220008DF2200083D
:101F8000DF220008DF220008DF220008DF2200082D
:101F9000DF220008DF220008DF220008DF2200081D
:101FA000DF220008DF220008DF220008DF2200080D
:101FB000DF220008DF220008C7210008DF22000816
:101FC000DF220008DF220008DF220008DF220008ED
:101FD000DF220008DF220008DF220008DF220008DD
:101FE000DF220008DF220008DF220008DF220008CD
:101FF000DF220008DF220008DF220008DF220008BD
:10200000DF220008DF220008DF220008DF220008AC
:10201000DF220008DF220008DF220008DF2200089C
:10202000DF220008DF220008DF220008DF2200088C
:10203000DF220008DF220008DF220008DF2200087C
:10204000DF220008DF220008DF220008DF2200086C
:10205000DF220008DF220008DF220008DF2200085C
:10206000DF220008DF220008DF220008DF2200084C
:10207000DF220008DF220008DF220008DF2200083C
:10208000DF220008DF220008DF220008DF2200082C
:10209000DF220008DF220008DF220008DF2200081C
:1020A000DF220008DF220008DF220008DF2200080C
:1020B000DF220008DF220008DF220008DF220008FC
:1020C000DF220008DF220008DF220008DF220008EC
:1020D000DF220008DF220008DF220008DF220008DC
:1020E000DF220008DF220008DF220008DF220008CC
:1020F000DF220008DF220008DF220008DF220008BC
:10210000DF220008DF220008DF220008DF220008AB
:10211000DF220008DF220008DF220008DF2200089B
:10212000DF220008DF220008DF220008DF2200088B
:10213000DF220008DF220008DF220008DF2200087B
:10214000DF220008DF220008DF220008DF2200086B
:10215000DF220008DF220008DF220008DF2200085B
:10216000DF220008DF220008DF220008DF2200084B
:10217000DF220008DF220008DF220008DF2200083B
:10218000DF220008DF220008DF220008DF2200082B
:10219000DF220008DF220008DF220008DF2200081B
:1021A000DF220008DF220008DF220008DF2200080B
:1021B000DF220008DF22000873220008019BB3F52C
:1021C000C07F05D08BE0FEF7CFFE034603938CE083
:1021D000FEF7F2FE0346039387E0FEF7C5FE0446D2
:1021E0004FF40070FFF7ACFB0346B4FBF3F303932B
:1021F0007BE0FEF7E1FE04464FF42070FFF7A0FB02
:102200000346B4FBF3F303936FE0FEF7D5FE0446F9
:102210004FF42070FFF794FB0346B4FBF3F35B0825
:10222000039362E002AB0021184600F007FF029C16
:102230004FF46070FFF784FB0346B4FBF3F30393A2
:1022400053E003AB0021184600F084FF4DE003ABE0
:102250000021184600F03AFD47E003AB0021184684
:1022600000F08AFD41E003AB0021184601F0A8F917
:102270003BE003AB0021184601F0F4FA35E003AB74
:102280000021184600F0C8FF2FE003AB00211846DC
:1022900001F040FA29E003AB0021184601F08EFA64
:1022A00023E003AB0021184601F0EAF91DE003AB7F
:1022B0000021184600F0BEFD17E003AB00211846D0
:1022C00000F00CFE11E003AB0021184600F05AFEAE
:1022D0000BE003AB0021184600F0E8FF05E040F2F8
:1022E0007941044805F0FBFA00BF039B184604B08F
:1022F00010BD00BFD483000800B585B00190002355
:102300000393019BB3F5486F00F0CD81019BB3F5BA
:10231000486F00F2D481019BB3F5406F00F0B181AA
:10232000019BB3F5406F00F2CA81019BB3F5286FA2
:1023300000F0BF81019BB3F5286F00F2C081019BC3
:10234000B3F5206F00F0A981019BB3F5206F00F277
:10235000B681019BB3F5106F00F07B81019BB3F553
:10236000106F00F2AC81019BB3F5086F00F077812C
:10237000019BB3F5086F00F2A281019BB3F5F06FEA
:1023800000F05B81019BB3F5F06F00F29881019B37
:10239000B3F5E06F00F07B81019BB3F5E06F00F2D5
:1023A0008E81019BB3F5D06F00F04D81019BB3F599
:1023B000D06F00F28481019BB3F5C06F00F03781CC
:1023C000019BB3F5C06F00F27A81019BB3F5B06F4A
:1023D00000F01B81019BB3F5B06F00F27081019B8F
:1023E000B3F5A06F00F04781019BB3F5A06F00F239
:1023F0006681019BB3F5806F00F00D81019BB3F501
:10240000806F00F25C81019BB3F5607F00F02D814D
:10241000019BB3F5607F00F25281019B802B00F29B
:10242000C780019B242BC0F04A81019B243B5C2B7D
:1024300000F2458101A252F823F000BF17260008E0
:102440001726000817260008172600081726000878
:10245000BF2600080B260008BF2600082F2600080C
:1024600047260008BF260008BF260008BF26000830
:10247000BF260008BF260008BF260008BF260008A8
:10248000BF260008BF260008BF260008BF26000898
:10249000BF260008BF260008BF260008BF26000888
:1024A0003B2600088F260008BF260008BF2600082C
:1024B000BF260008BF260008BF260008BF26000868
:1024C000BF260008BF260008BF260008BF26000858
:1024D000BF260008BF260008BF260008BF26000848
:1024E00017260008BF260008BF260008BF260008E0
:1024F00053260008BF260008BF2600089B260008B8
:10250000B32600087726000883260008BF260008A7
:10251000BF260008BF260008BF260008BF26000807
:10252000A7260008BF260008BF260008BF2600080F
:10253000BF260008BF260008BF260008BF260008E7
:10254000BF260008BF260008BF260008BF260008D7
:10255000BF260008BF260008BF260008BF260008C7
:10256000BF260008BF260008BF260008BF260008B7
:10257000BF260008BF260008BF260008BF260008A7
:10258000BF260008BF260008BF260008BF26000897
:10259000BF260008BF260008BF260008BF26000887
:1025A000BF260008BF260008BF260008BB2500087C
:1025B000019BB3F5807F34D081E0464B1B6F03F065
:1025C0000703013B032B17D801A252F823F000BFE9
:1025D000F3250008E1250008E7250008ED2500089F
:1025E0000523039310E0032303930DE008230393D3
:1025F0000AE00223039307E00023039340F2AB4178
:10260000354805F06CF900BF5FE003AB19460020C8
:1026100000F0D6FF59E003AB1946002000F09AFD08
:1026200053E003AB1946002001F01CF94DE003AB69
:102630001946002000F0F0FD47E003AB19460020EA
:1026400000F034FE41E003AB1946002001F062F8CF
:102650003BE003AB1946002001F0B0F835E003ABD6
:102660001946002000F02CFD2FE003AB1946002096
:1026700000F0E4FC29E003AB1946002000F026FB43
:1026800023E003AB1946002000F076FB1DE003AB0E
:102690001946002000F0F4FF17E003AB19460020B4
:1026A00000F0C8FB11E003AB1946002000F016FC57
:1026B0000BE003AB1946002000F064FC05E040F29B
:1026C0005A51054805F00BF900BF039B184605B0A9
:1026D0005DF804FB00800050D483000800B589B089
:1026E0000190019800F08EFE0790079B002B03D00D
:1026F000079BB3F1FF3F04D140F69E114F4805F010
:10270000EEF84F4B03F580531A464FF4C02353663F
:102710004C4B5B68012B0CD14A4B03F500531A4616
:102720000123536000BF474B5B6803F00203002B9B
:10273000F9D18020FFF7E0FD0346052B05D105F018
:102740008DF905F083F900F057FC079B23F04073E7
:102750000793019B3C4A934204D0019B3B4A93421E
:1027600005D009E0079B43F00073079304E0079B43
:1027700043F08073079300BFFEF7E6FB0690019AD3
:10278000069B9A4203D90121019801F065F900BF27
:102790002F4BDB6803F00603002BF9D12C4B9B6811
:1027A00005932B4A079B9360079B03F4F81304934C
:1027B000274B9B6803F4F8130393049A039B9A42F4
:1027C00004D040F6E6111D4805F089F8049A039BF1
:1027D0009A4203D10198FEF7BDFB04E01C4A059B19
:1027E0009360069B01938020FFF786FD0346052B2F
:1027F00018D105F0C6F80290029A019B9A4204D9BA
:1028000040F6F7110D4805F06AF8FFF75DF803464A
:10281000C3F102031946029805F004F900F016FF0F
:1028200000F0F6FB019A069B9A4203D80121002092
:1028300001F012F900BF09B05DF804FBD483000871
:102840000080005000C0015040420F0080841E00F4
:102850000000015000B585B00190019B1B680F2B53
:1028600004D940F64631964805F039F8019B5B687B
:102870000F2B04D940F64931914805F030F8019BFF
:102880009B680F2B04D940F64C318D4805F027F892
:10289000019B1B7B0F2B04D940F64F31884805F074
:1028A0001EF8019B5B7B0F2B04D940F65231844804
:1028B00005F015F8019B9B7B3F2B04D940F6553161
:1028C0007F4805F00CF8019BDB7B3F2B04D940F6D9
:1028D00058317B4805F003F8019B1B69032B04D991
:1028E00040F65B31764804F0FAFF019B5B69032BED
:1028F00004D940F65E31724804F0F1FF019BDB69B8
:10290000032B04D940F661316D4804F0E8FF8020C4
:10291000FFF7F2FC0346032B00F01881694B03F527
:1029200080531A464FF480135366674B45F60E02E8
:10293000C3F88020644B03F580531A464FF0A06320
:102940009362614B03F500531A464FF48033936250
:1029500000BF5D4B9B6D03F48033002BF9D100BFAA
:10296000594B9B6D03F08043002BF9D1019B1B68F1
:102970001A06019B5B681B051343019A127B120424
:102980001343019A527B12031343019A927B9201E3
:102990001343019AD27B11464B4A0B4313614A4BB6
:1029A0009B6903F00042019B1B699B061A43019B34
:1029B0005B691B061343019A127E12041343019AAA
:1029C000527E12021343019A927E11463E4A0B43F5
:1029D00093613D4B1B6A23F00F03019AD269002AD1
:1029E00001D1002200E008221343019AD27E920016
:1029F0001A43019BDB69344913430B62019BDB697A
:102A0000002B67D1304B9A6A304B1340019A92F8F1
:102A1000202052011343019A92F8212012011343FE
:102A2000019A92F82420D2001343274A43F48033BA
:102A3000936200BF244B9A6D254B1340244A934266
:102A4000F8D1214B03F580531A464FF080739362FF
:102A50001D4B1B6923F47002019B9B681B051A49DF
:102A600013430B61184B03F580531A464FF0004394
:102A70009361019B93F8223083F00103DBB2002BBA
:102A800006D0114B03F500531A464FF08073936242
:102A9000019B93F8233083F00103DBB2002B4BD072
:102AA000094B03F500531A464FF48033936200BF7D
:102AB000054B9B6D03F08043002BF9D13CE000BF38
:102AC000D4830008008000500040005AC7FFFEFE7B
:102AD00003000100019BDB69022B12D11D4B002278
:102AE0001A611C4B00229A6102230393039B1A0371
:102AF000039B1B0213431A464FF47F41164804F010
:102B000053FF144B9A6A154B1340019A92F82020F8
:102B100052011343019A92F8222012061343019A9C
:102B200092F82420D2001343019A92F82320120431
:102B30001146084A0B439362019B93F82530002B02
:102B400005D0044B064AC3F8802000E000BF05B062
:102B50005DF804FB0040005A3440005AC7FFFEFEF7
:102B6000F1A7FFFF024B93F900301846704700BFF2
:102B70007E10002000B585B00190019B5B68072B9B
:102B800004D940F67C51404804F0A9FE019B9B68A3
:102B9000032B04D940F67E513B4804F0A0FE019B74
:102BA0001B78032B04D94FF45861374804F097FE83
:102BB000019B5B785BB2002B04DA40F6825132480D
:102BC00004F08DFE4F230393019B5B788DF80B304F
:102BD0009DF80B20039B934228BF13468DF80A30C3
:102BE0002A4B03F580531A464FF400035366284BD3
:102BF0004FF4D1525A62264B03F580531A460223F2
:102C00005360234B03F500531A460123536000BF62
:102C10001F4B1B6903F48033002BF9D1019B1B78F8
:102C20001A029DF80A301A4913434B61019B5B68F5
:102C30001A02019B9B681B011343019A127B5200ED
:102C40001343019A527B1146114A0B439360019B37
:102C50009B7B5A01019BDB7B1B011A43019B1B7C65
:102C60005B001343019A527C1A43094B5A60019B43
:102C70009B7C002B03D0064B6FF4D1525A6200BFED
:102C800005B05DF804FB00BFD4830008008000504D
:102C90000000025082B00346ADF80630034ABDF88A
:102CA0000630138000BF02B0704700BF7A100020CA
:102CB00082B00346ADF80630034ABDF806301380F3
:102CC00000BF02B0704700BF7C10002000B585B087
:102CD0000190009100230293254BD3F8203203F09A
:102CE0000703042B2CD801A252F823F03B2D000837
:102CF000012D0008112D00081F2D00082D2D0008A2
:102D000002AB0021184600F037F8122303931FE0AE
:102D1000FEF798F9034602930723039318E004F0A3
:102D2000D6FD034602930A23039311E0FEF7FAF956
:102D300003460293092303930AE00123039307E068
:102D40000023039340F6EC710A4804F0C8FD00BF6D
:102D5000019B002B02D0029A019B1A60009B002B62
:102D600002D0009B039A1A6000BF05B05DF804FB17
:102D700000800050D483000800B585B00190009118
:102D800000230393294BD3F8283103F00703013BB9
:102D9000052B33D801A252F823F000BFB52D00084F
:102DA000D92D0008F12D0008CD2D0008C12D0008F7
:102DB000E52D0008FEF7C8F803900523029325E0EF
:102DC000FEF7C2F80390062302931FE0FEF73AF9DC
:102DD00003900723029319E0FEF712F903900323EF
:102DE000029313E0FEF70CF90390042302930DE025
:102DF000FEF722F903900223029307E000230293D7
:102E000041F22D010A4804F06AFD00BF019B002B2E
:102E100002D0019B039A1A60009B002B02D0009BFA
:102E2000029A1A6000BF05B05DF804FB00800050F4
:102E3000D483000800B585B001900091002302936F
:102E4000244BD3F8603203F00703013B032B29D84E
:102E500001A252F823F000BF692E0008792E000865
:102E6000972E0008892E000802AB0021184600F0BA
:102E700071F9102303931DE002AB0021184600F006
:102E8000CBF91123039315E0FEF7DCF80346029318
:102E9000072303930EE0FEF7CFF8034602930223C5
:102EA000039307E00023039341F291010A4804F0E1
:102EB00016FD00BF019B002B02D0029A019B1A60F5
:102EC000009B002B02D0009B039A1A6000BF05B044
:102ED0005DF804FB00800050D483000800B585B085
:102EE0000190009100230293244BD3F8943203F015
:102EF0000703013B032B29D801A252F823F000BF9E
:102F0000112F0008212F00083F2F0008312F000843
:102F100002AB0021184600F01DF9102303931DE0B9
:102F200002AB0021184600F077F91123039315E056
:102F3000FEF788F803460293072303930EE0FEF79B
:102F40007BF8034602930223039307E000230393D5
:102F500041F2C4010A4804F0C2FC00BF019B002BEF
:102F600002D0029A019B1A60009B002B02D0009BAA
:102F7000039A1A6000BF05B05DF804FB00800050A2
:102F8000D483000800B585B001900091002302931E
:102F9000174BD3F8703203F00303012B02D0022B3E
:102FA00008D00CE002AB0021184600F035F91123DF
:102FB00003930CE0002302931523039307E00023FF
:102FC000039341F2EF010B4804F089FC00BF019B21
:102FD000002B02D0029A019B1A60009B002B02D0AA
:102FE000009B039A1A6000BF05B05DF804FB00BFA8
:102FF00000800050D4830008044B03F580531A4628
:103000004FF48033136700BF704700BF008000504B
:1030100008B58020FEF71CFE0346064A934206D8F8
:10302000054B03F500531A464FF48033136700BF76
:1030300008BD00BF005A62020080005000B585B094
:1030400001900091002303931B4BD3F8803003F0D1
:103050000303032B12D0032B16D8012B02D0022B13
:1030600006D011E0FDF780FF03900E23029313E0DA
:10307000FDF7E8FF0390072302930DE0FDF764FFDF
:1030800003900623029307E00023029341F2A81164
:103090000A4804F024FC00BF019B002B02D0019BD6
:1030A000039A1A60009B002B02D0009B029A1A60C0
:1030B00000BF05B05DF804FB00800050D483000819
:1030C00000B585B001900091002303931F4BD3F806
:1030D000003103F00303032B1FD801A252F823F0A1
:1030E00015310008F1300008FD30000809310008F2
:1030F000FDF786FF03900323029316E0FEF712F814
:1031000003900923029310E004F0DEFB03900823F0
:1031100002930AE00123029307E00023029341F2A5
:10312000DE110B4804F0DBFB00BF019B002B02D03B
:10313000019B039A1A60009B002B02D0009B029A0D
:103140001A6000BF05B05DF804FB00BF00800050AE
:10315000D483000800B585B001900091002303934B
:103160002B4BD3F8203103F00703062B37D801A2ED
:1031700052F823F0C1310008913100089D31000858
:10318000B5310008A9310008C7310008D331000863
:10319000FDF7DAFE03900523029328E0FDF730FFE8
:1031A00003900323029322E0FDF74CFF03900723D3
:1031B00002931CE0FDF740FF03900223029316E008
:1031C0000123029313E0FDF7BFFE03900623029351
:1031D0000DE0FDF715FF03900423029307E00023A1
:1031E000029341F225210B4804F079FB00BF019BBB
:1031F000002B02D0019B039A1A60009B002B02D087
:10320000009B029A1A6000BF05B05DF804FB00BF86
:1032100000800050D483000800B585B00190009173
:10322000002303931F4BD3F8403103F00303032B18
:103230001FD801A252F823F06D320008493200086D
:10324000553200086132000804F041FB03900A2364
:10325000029316E0FDF766FF03900923029310E046
:1032600004F039FB03900C2302930AE0012302933C
:1032700007E00023029341F257210B4804F02FFB93
:1032800000BF019B002B02D0019B039A1A60009B98
:10329000002B02D0009B029A1A6000BF05B05DF8B7
:1032A00004FB00BF00800050D483000800B585B047
:1032B00001900091002303931F4BD3F8603103F07A
:1032C0000303032B1FD801A252F823F00133000897
:1032D000DD320008E9320008F532000804F0F7FAA0
:1032E00003900A23029316E0FDF71CFF03900923C5
:1032F000029310E004F0EFFA03900C2302930AE02B
:103300000123029307E00023029341F289210B4835
:1033100004F0E5FA00BF019B002B02D0019B039A49
:103320001A60009B002B02D0009B029A1A6000BF1B
:1033300005B05DF804FB00BF00800050D483000896
:1033400084B0019000914FF440130393009B002B35
:103350000AD1019B0D4A934203D94FF48013039382
:103360000FE0002303930CE0009B002B09DD019B81
:10337000074A934203D94FF48013039301E00023DB
:103380000393039B184604B0704700BF005A6202C3
:10339000002D310100B585B001900091184B03F567
:1033A00080531A464FF4803393660020FEF7C8FA24
:1033B0000246019B02FB03F30193FEF793FA0346D7
:1033C0008DF80F30FEF7A4FAFEF7AAFA034623F4AD
:1033D0004013029300990198FFF7B2FF0246029B47
:1033E000134302930298FEF7A1FA9DF80F30002BC9
:1033F00001D0FEF785FA00BF05B05DF804FB00BF01
:103400000080005000B585B0019000230393019B1C
:103410005B4A934200F0A380019B594A934200F219
:10342000A380019B574A934200F09480019B554A28
:10343000934200F29980019B534A934200F08580A9
:10344000019B514A934200F28F80019B4F4A934265
:1034500076D0019B4D4A934200F28680019B4C4AF4
:10346000934268D0019B4A4A93427DD8019B494AC6
:1034700093425BD0019B474A934275D8019B464AD1
:1034800093424ED0019B444A93426DD8019B434ADC
:10349000934242D0019B414A934265D8019B404AE6
:1034A000934236D0019B3E4A93425DD8019B3D4AF0
:1034B00093422AD0019B3B4A934255D8019B3A4AFA
:1034C00093421ED0019B384A93424DD8019B374A04
:1034D000934212D0019B354A934245D8019B344A0E
:1034E00093420AD0019B324A93423DD8019B002B64
:1034F00040D0019B2F4A934236D12F4B9B6D0393B3
:1035000039E02D4B5B6E039335E02B4B1B6F039320
:1035100031E0294B5B6F03932DE0274B9B6F0393A7
:1035200029E0254BD3F88030039324E0224BD3F8D5
:10353000843003931FE0204BD3F8883003931AE0C4
:103540001D4BD3F88C30039315E01B4BD3F8903010
:10355000039310E0184BD3F8943003930BE0164B11
:10356000D3F89830039306E041F24F31134804F04A
:10357000B6F900E000BF039B184605B05DF804FBF8
:1035800000B4C4040090D003007E5603006CDC023B
:1035900080D543020048E80180BA8C01C0EA2101CD
:1035A0000024F400405DC600C0CF6A0000093D0061
:1035B00080841E0040420F000080E00FD48300088A
:1035C00000B585B001900091002302931D4BD3F804
:1035D000803103F00303032B0ED0032B1AD8012BE9
:1035E00002D0022B0FD015E002AB00211846FFF7E6
:1035F000B1FD1023039315E0FDF724FD034602936C
:10360000072303930EE0FDF717FD03460293022301
:10361000039307E00023039341F27A310A4804F050
:103620005EF900BF019B002B02D0029A019B1A6039
:10363000009B002B02D0009B039A1A6000BF05B0CC
:103640005DF804FB00800050D483000800B583B00F
:10365000022301934FF4C070FEF7FAFA0346074ABB
:10366000934201D80123019301994FF42070FEF792
:10367000DDF900BF03B05DF804FB00BF80F0FA0283
:1036800000B585B001900091002303931F4BD3F840
:10369000403203F00303032B1FD801A252F823F09A
:1036A000D5360008B1360008BD360008C936000816
:1036B00004F00DF903900A23029316E0FDF732FDA2
:1036C00003900923029310E004F005F903900C2302
:1036D00002930AE00123029307E00023029341F2E0
:1036E000F7310B4804F0FBF800BF019B002B02D020
:1036F000019B039A1A60009B002B02D0009B029A48
:103700001A6000BF05B05DF804FB00BF00800050E8
:10371000D483000800B585B0019000910023039385
:10372000244BD3F8003203F00703042B29D801A25D
:1037300052F823F07D370008493700085537000854
:10374000613700086D37000804F0C1F803900A23C0
:1037500002931EE0FDF7E6FC03900923029318E0B4
:1037600004F0B9F803900C23029312E0FDF724FC57
:1037700003469B0A03930F2302930AE0012302935B
:1037800007E00023029341F238410B4804F0A7F808
:1037900000BF019B002B02D0019B039A1A60009B83
:1037A000002B02D0009B029A1A6000BF05B05DF8A2
:1037B00004FB00BF00800050D483000800B585B032
:1037C0000190009100230393244BD3F8083203F0B7
:1037D0000703042B29D801A252F823F0253800084A
:1037E000F1370008FD3700080938000815380008CF
:1037F00004F06DF803900A2302931EE0FDF792FC9B
:1038000003900923029318E004F065F803900C2359
:10381000029312E0FDF7D0FB03469B0A03930F23AC
:1038200002930AE00123029307E00023029341F28E
:1038300070410B4804F053F800BF019B002B02D0ED
:10384000019B039A1A60009B002B02D0009B029AF6
:103850001A6000BF05B05DF804FB00BF0080005097
:10386000D483000800B585B0019000910023039334
:10387000114B1B6803F00403002B06D0FDF79CFBE3
:10388000034603930D23029305E002AA03AB1146FE
:103890001846FFF7C1FC019B002B02D0039A019B45
:1038A0001A60009B002B02D0029A009B1A6000BF96
:1038B00005B05DF804FB00BF10E000E0024B034AD6
:1038C0001A6400BF704700BF004009503254FFFF28
:1038D000024B4AF6CD321A6400BF704700400950CF
:1038E00082B0019000BF054B5A6B019B1340002B27
:1038F000F9D100BF00BF02B0704700BF00400950BF
:1039000008B500BF0421044804F0CDF80346002B9D
:10391000F8D100BF00BF08BD8440005008B5FFF7D4
:10392000EFFF044BD3F884309B0903F00303DBB2B1
:10393000184608BD00400050024B4AF6E8521A668D
:1039400000BF70470040005000B583B003468DF8BB
:1039500007300E4B1B690D4A43F00403136104F05A
:10396000BDF804F0BDF830BF04F0BEF804F0BAF8BA
:103970009DF8073083F00103DBB2002B01D004F087
:103980008DF800BF03B05DF804FB00BF00ED00E060
:1039900082B00190064BDB6E23F03003019A12795E
:1039A0001146034A0B43D36600BF02B0704700BF05
:1039B0000040005000B585B0234BDB6E23F00303BD
:1039C00043F002030293204BDB6E43F003030193A9
:1039D000FFF7B2FF04F04CF8009003F0FFFF1B4B21
:1039E0001B6F23F00703194A43F00103136704F028
:1039F00002F8002000F0CCF804F078F804F078F831
:103A00000023039308E0104A029BD3660E4A019BF1
:103A1000D366039B01330393039B032BF3DD0A4A15
:103A2000029BD3660A4B9B6A03F08003002B04D0F1
:103A300040F2E151074803F052FF009804F024F8E7
:103A400000BF05B05DF804FB00400050008000504E
:103A5000004009502484000800B585B001900B4651
:103A60008DF80330019B002B03D1FDF77DFA039005
:103A700001E0019B03930D4B1B78002B0AD0039BA5
:103A80000B4A934206D89DF803301946012000F0F6
:103A900011F806E09DF803301946022000F00AF8FC
:103AA00000BF00BF05B05DF804FB00BFC8100020D8
:103AB000005A620210B586B003460A468DF80730F8
:103AC00013468DF80630FFF729FF03461A469DF886
:103AD0000730934252D0FDF747FA0590059B0493B7
:103AE0009DF80730012B0CD1049B264A934204D940
:103AF00040F26171244803F0F2FE0121059803F0C1
:103B000091FF03F0B5FF0390204B03F500531A46D5
:103B10004FF0007353669DF80730184603F0EAFF34
:103B20001A4C9DF80730184603F0CAFF0346236776
:103B30000BE0164BD3F8843003F02003002B04D0A5
:103B400040F26F71104803F0CAFE104B5B6E03F039
:103B50000073002B06D10D4BD3F8843003F0200303
:103B6000002BE6D0039803F08FFF9DF80730022B5F
:103B700005D10021059803F055FF00E000BF06B015
:103B800010BD00BF005A62022484000800400050AB
:103B900000B587B003468DF8073000230593002356
:103BA0000493404B03F580531A464FF0004353668D
:103BB0003D4B5B6C03F00103002B14BF012300237A
:103BC0008DF80F30FFF784FE9DF80730002B28D1C9
:103BD0000120FFF785FE344B5B6803F0010302937D
:103BE000029B002B50D0304B03F500531A460123A3
:103BF000536002E0049B013304932B4B1B6B03F0D7
:103C00000103002B03D1049B284A9342F2D9049B61
:103C1000264A934238D90723059335E0049B0133A4
:103C20000493214B1B6B03F00803002B03D0049B70
:103C30001E4A9342F2D9049B1C4A934202D907239D
:103C4000059321E0184B03F500531A462023936295
:103C5000154B03F580531A46012353600023049348
:103C600002E0049B013304930F4B9B6A03F0200393
:103C7000002B03D1049B0D4A9342F2D9049B0B4ABB
:103C8000934201D9072305939DF80F30002B01D0F3
:103C9000FFF714FE03F035FF059B184607B05DF8EB
:103CA00004FB00BF00800050004009503F420F005D
:103CB00000B585B00190254B03F580531A464FF0AF
:103CC00000435366224B5B6C03F00103002B14BFCF
:103CD000012300238DF80F30FFF7FAFD019B5B787D
:103CE0005B001C4A43F00103D3630B20FFF7F8FD90
:103CF000174B5B6823F4F872019B9B781B011449F6
:103D000013434B60019BDB781B02019A52791146E9
:103D10000F4A0B439360019B1B791B02019A927916
:103D200011460B4A0B431361019B1B781846FFF7A2
:103D30002FFF9DF80F30002B01D0FFF7BFFD03F0E0
:103D4000E0FE0123184605B05DF804FB008000503A
:103D5000004009500040005000B585B0019000239C
:103D60008DF80F3000238DF80E30019B0F2B04D9F6
:103D700040F6FC51224803F0B2FD019B0F2B01D904
:103D80000F2301931F4B5B6EDB0F8DF80E301D4B25
:103D900003F580531A464FF0004353661A4B5B6C91
:103DA00003F00103002B14BF012300238DF80F3013
:103DB000FFF78EFD8020FFF793FD134B1B6A23F066
:103DC0000F021149019B13430B629DF80F30002B2A
:103DD00001D0FFF773FD9DF80E3083F00103DBB2D5
:103DE000002B06D0074B03F500531A464FF0004353
:103DF000536603F086FE00BF05B05DF804FB00BF0C
:103E000024840008008000500040095000B583B0B1
:103E100001900091019B164A934207D0019B154ADD
:103E2000934203D07021144803F059FD009B002BEE
:103E300003D17221104803F052FD009B1B7B802BA5
:103E400003D176210C4803F04AFD009B5B7B032BDA
:103E500003D97921084803F042FD0023002200998C
:103E6000019800F027FA00BF03B05DF804FB00BF23
:103E70000000015B00000A507484000800B585B0A2
:103E80000190019803F094FE042303930BE0019B3F
:103E900003F580531A4604231361019B03F5005375
:103EA0001A4604231361039B5A1E0392002BEED182
:103EB000019B20221A61019B0022DA60019B0022F3
:103EC0009A60019B41F202025A61019B00229A61B1
:103ED000019B00229A65019B4FF4A0225A62019B2C
:103EE0000022DA61019B00221A62019B00229A6281
:103EF000019B0022DA62019B00225A63019B00228F
:103F00001A65019B03F500531A46044BD364019BC9
:103F100000221A6300BF05B05DF804FBFF3F0D03EC
:103F200000B585B001900B468DF803300023039354
:103F3000019B274A934208D0019B264A934204D012
:103F400040F26511244803F0CAFC9DF80330002BB1
:103F500003D1019803F02CFE36E0019B03F580535A
:103F60001A46012353609DF8033003F00F030393B7
:103F700040F6FF71019803F0CDFD019B039A9A630F
:103F80007821019803F0C6FD002303939DF80330C8
:103F900003F00103DBB2002B03D0039B43F00103CA
:103FA00003939DF8033003F00403DBB2002B03D02E
:103FB000039B43F00203039300BF019B9B6C03F040
:103FC0000303039A9A42F8D100BF05B05DF804FBE1
:103FD0000000015B00000A507484000800B589B03D
:103FE00003900291019200238DF81F30019B002B5A
:103FF00004D140F22321984803F071FC039B974AB7
:10400000934208D0039B964A934204D040F2262163
:10401000914803F064FC029B002B07D1039800F049
:1040200025F903461846FDF713FE0290039B9B6893
:1040300003F00103002B66D0019A029B9A4204D937
:104040004FF40C71844803F04AFC00238DF81E30B5
:10405000039B5B6803F00103012B0CBF01230023CA
:104060008DF81730029A019BB2FBF3F3013B0693E4
:10407000069BFF2B04D94FF40E71774803F02FFCF9
:104080009DF81730002B29D02821039803F042FD1A
:10409000039B9B6C03F00303002B03D005238DF8D7
:1040A0001E3018E0039B9B6C03F00103002B03D030
:1040B00009238DF81E300EE0039B9B6C03F0020376
:1040C000002B03D006238DF81E3004E040F245217A
:1040D000614803F004FC039803F06AFD039B1B692D
:1040E00023F07F42069B1B061A43039B1A619DF82F
:1040F0001730002B00F0AB809DF81E301946039856
:10410000FFF70EFFA3E0039B5B68012B04D04FF485
:104110001671514803F0E3FB039B9B6D03F0010311
:10412000002B02D0019B5B000193039B9B6803F073
:10413000E003802B49D0802B57D8602B37D0602BE1
:1041400053D8402B22D0402B4FD8002B02D0202B0D
:104150000ED04AE0029B1B09019A9A4204D94FF4FF
:1041600020713D4803F0BBFB10238DF81F3042E067
:10417000029BDB08019A9A4204D940F28521364815
:1041800003F0ADFB08238DF81F3034E0029B354A65
:10419000A2FB03239B08019A9A4204D940F28A2188
:1041A0002D4803F09CFB06238DF81F3023E0029B73
:1041B0009B08019A9A4204D940F28F21264803F0C5
:1041C0008EFB04238DF81F3015E0019A13465B0027
:1041D0001344029A9A4204D24FF425711E4803F008
:1041E0007EFB01238DF81F3005E040F29A211A482A
:1041F00003F075FB00BF9DF81F30002B27D0029BFA
:104200005A019DF81F30019901FB03F3B2FBF3F350
:104210000693069B203B0693069BDB000693069BBA
:10422000114A934204D940F2A5210B4803F057FBF1
:10423000069A0D4B134006930121039803F06AFC84
:10424000039B069A1A630121039803F063FC00BFE5
:1042500009B05DF804FB00BF748400080000015B36
:1042600000000A50ABAAAAAAF8FF7F0000B585B0EB
:104270000190019B0C4A934202D1562303930DE017
:10428000019B0A4A934202D15723039306E040F26E
:104290007531074803F023FB002300E0039B184619
:1042A00005B05DF804FB00BF0000015B00000A5090
:1042B0007484000800B585B00390029101920093C8
:1042C000039B5B68002B04D040F6FF71039803F05A
:1042D00021FC0398FFF7D2FD039B5B6923F44C5349
:1042E00023F00F03029A527B1343029AD28913439D
:1042F000029A128A1A43039B5A61039B9B6823F01C
:10430000804323F0E203029A127B1343029A127E47
:104310001A43029B5B691A43039B9A60029B9B684A
:10432000002B05D1039B9B6843F00042039B9A60DE
:10433000029BDB69002B00F0CB80039B9A68029BF9
:10434000DB691B7A9B051A43039B9A60039B9A685F
:10435000029BDB699B7A5B041A43039B9A60039B75
:104360009A68029BDB699B8803F4C0431A43039B52
:104370009A60039B9A68029BDB695B789B001A43F7
:10438000039B9A60039B9A68029BDB695B7BDB0063
:104390001A43039B9A60039B9A68029BDB699B7B91
:1043A0001B011A43039B9A60039B9A68029BDB697B
:1043B0009B789B021A43039B9A60029BDB699B7963
:1043C0009A02029BDB69DB795B021A43039BDA608A
:1043D000029BDB691B78012B04D0029BDB691B78F5
:1043E000032B05D1039BDB6843F00402039BDA60D7
:1043F000029BDB691B78022B04D0029BDB691B78D4
:10440000032B16D1934A039B93498B4208D0039BFD
:1044100092498B4201D1012303E04FF0FF3300E0CA
:1044200000235B01134403F5A453143302221A60E2
:1044300015E0884A039B88498B4208D0039B874933
:104440008B4201D1012303E04FF0FF3300E0002352
:104450005B01134403F51253143302221A60029BCA
:10446000DB695B7A1A46039B03F580539A62029BD1
:10447000DB695B7A002B05D0039BDB6843F40062A9
:10448000039BDA60029BDB69DB7A002B20D0039B65
:10449000DB6843F40042039BDA60039B6E4A93425D
:1044A00008D1029BDB691B7B6D4A03F00F0302F509
:1044B00080525367039B694A934209D1029BDB698F
:1044C0001B7B674A03F00F0302F58052C2F880306D
:1044D000019B002B1DD0019B93F82030002B06D0B0
:1044E000039B03F580531A460123136211E0039BDB
:1044F000DB6923F00903019A92F822201343019A01
:1045000092F82120134343F00103039A02F58052ED
:10451000D361009B002B77D0029B1B7E002B06D023
:10452000039B03F580531A464FF400439365039BA6
:10453000494A934203D0039B484A93424FD1009B80
:1045400093F82130102B11D8039B434A934208D093
:10455000039B424A934201D1012303E04FF0FF3312
:1045600000E000233F4A0121D15410E0039B3A4A66
:10457000934208D0039B394A934201D1012303E0BF
:104580004FF0FF3300E00023364A0221D154009B54
:104590005B8CB3F5006F11D8039B2F4A934208D070
:1045A000039B2E4A934201D1012303E04FF0FF33D6
:1045B00000E000232C4A0121D15410E0039B264A3D
:1045C000934208D0039B254A934201D1012303E083
:1045D0004FF0FF3300E00023234A0221D154039B14
:1045E0009B6D23F4F95323F01E03009A92F82120C7
:1045F0001343009A528C1A43039B9A65039B03F55D
:1046000080531A460123936505210398FFF788FC20
:10461000029B9B68002B07D0029B5968029B9B68FA
:104620001A460398FFF7DAFC029B1B781946039899
:10463000FFF776FC00BF039803F065FA0346DB43FF
:1046400003F44053002BF6D100BF00BF05B05DF866
:1046500004FB00BF00C003500000015B00000A50D3
:1046600000800350CC100020D010002000B583B093
:10467000034600918DF807309DF80730002B14D0C9
:104680009DF80730012B0ED09DF80730022B07D084
:104690009DF80730032B01D13F2308E0002306E0FB
:1046A00040F2FF3303E03F2301E040F2FF33009A82
:1046B000D34003F00103002B04D140F2FE310A483D
:1046C00003F00DF909489DF807200121009B99404E
:1046D00013465B0013441B01034403F501531960A7
:1046E00000BF03B05DF804FB1485000800C0035050
:1046F00000B583B0034600918DF807309DF8073070
:10470000002B14D09DF80730012B0ED09DF80730F8
:10471000022B07D09DF80730032B01D13F2308E07F
:10472000002306E040F2FF3303E03F2301E040F2C4
:10473000FF33009AD34003F00103002B04D140F271
:104740002D410A4803F0CBF809489DF807200121C4
:10475000009B994013465B0013441B01034403F57F
:104760008253196000BF03B05DF804FB1485000894
:1047700000C0035000B585B002910192009303463A
:104780008DF80F309DF80F30002B14D09DF80F30AE
:10479000012B0ED09DF80F30022B07D09DF80F3063
:1047A000032B01D13F2308E0002306E040F2FF3352
:1047B00003E03F2301E040F2FF33029AD34003F0CD
:1047C0000103002B04D14FF4B071314803F087F896
:1047D000019B002B0FD0009B002B06D09DF80F30C3
:1047E00002991846FFF784FF05E09DF80F30029903
:1047F0001846FFF73BFF029B072B17D89DF80F20A9
:1048000013465B0013441B011A1D224B1344029AEA
:1048100092000F2101FA02F0029A9200019901FA26
:1048200002F20146184603F0F7F919E09DF80F204F
:1048300013465B0013441B0103F10C02154B134498
:10484000029A083A92000F2101FA02F0029A083AFD
:104850009200019901FA02F20146184603F0DCF9D0
:10486000019B002B0FD1009B002B06D09DF80F3031
:1048700002991846FFF73CFF05E09DF80F300299BA
:104880001846FFF7F3FE00BF05B05DF804FB00BF5C
:104890006485000830C0035082B0019000BF019BC6
:1048A0005B6903F08073002BF9D1019B03F5005382
:1048B0001A460123536000BF044B5B6803F00203F8
:1048C000002BF9D100BF00BF02B070470040005973
:1048D00030B5A5B00590049103924FF000031C93EE
:1048E000B24B07AC1D460FCD0FC495E8030084E81A
:1048F0000300059BAE4A934203D0D921AD4802F094
:10490000EEFF0022AC49059800F06EFE03468DF8DC
:104910008730049B5B79ADF86E309DF887309BB291
:10492000BDF86E209A4203D3BDF86E308DF8873003
:104930000598FFF7B1FF049B1B798DF886309DF831
:104940008630002B14D12A20FDF782F91F901F9B7F
:10495000994A934205D39DF887301F9AB2FBF3F32F
:104960001F931F99059800F0EFFD03468DF88630E0
:10497000049BDB781B0103F030029DF886301B049A
:1049800003F4FE031A439DF887301B0703F0E0434E
:1049900013432393049B1B78002B03D0239B43F0EA
:1049A00002032393049B5B78002B03D0239B43F0EB
:1049B00004032393049B9B78002B03D0239B43F099
:1049C00008032393059B239A9A60049BDB881A466D
:1049D000059B1A61049B1B891B04049A52891A4384
:1049E000059B1A620023229300F02FBC0399229AA0
:1049F00013469B0013449B000B441B788DF86D30CD
:104A00000399229A13469B0013449B000B440833DE
:104A10001B68ADF86E309DF86D30002B01D16749F1
:104A200000E067499DF86D209DF88730009313469C
:104A30000022059800F01EFE1A901A9B1993BDF8EB
:104A40006E30ADF86230BDF86220199B934238BFDA
:104A500013461A93059A229B1B01134448331A6884
:104A6000584B134023939DF86D3003F00302239BB2
:104A700042EA03010398229A13469B0013449B00C9
:104A8000034401331B789B0003F01C031943039874
:104A9000229A13469B0013449B00034402331B7865
:104AA0005B01DBB219430398229A13469B0013441F
:104AB0009B00034403331B781B0303F4E0431943B7
:104AC0000398229A13469B0013449B00034404332B
:104AD0001B781B0403F4E02319430398229A13461E
:104AE0009B0013449B00034410331B785B0503F4C5
:104AF000600319430398229A13469B0013449B00BA
:104B0000034405331B781B0703F0405341EA0302BB
:104B10000599229B1B010B4448331A60059A229B7E
:104B20001B01134448331B681B0B03F00703179347
:104B3000179B013B042B27D801A252F823F000BF9A
:104B4000554B0008554B0008614B00086F4B00089F
:104B50007B4B00081C4BD3F88031ADF8843019E052
:104B6000194BD3F880311B0CADF8843012E0164B92
:104B7000D3F88431ADF884300CE0134BD3F8843192
:104B80001B0CADF8843005E00F4BD3F88031ADF845
:104B9000843000BF9DF86D30012B02DC002B15DA4C
:104BA00040E3022B00F0E9813CE300BF04860008EB
:104BB00000400059B4850008005A620280969800AF
:104BC000404B4C00008F18CF0080E00F4FF00003E7
:104BD0001E93059A229B1B01134448331B681B0B31
:104BE00003F007031793179B012B02D0179B022B8F
:104BF00005D1D04BD3F88031ADF8843073E0179BEA
:104C0000032B21D1CB4BD3F880311B0CADF8843072
:104C10009DF86D30002B0BD1C64BD3F88C311B0C9B
:104C20001BB207EE903AF8EEE77ACDED1E7A5AE025
:104C3000C04BD3F894311B0C1BB207EE903AF8EE40
:104C4000E77ACDED1E7A4EE0179B042B22D1B94BAB
:104C5000D3F88431ADF884309DF86D30002B0CD141
:104C6000B44BD3F88C311B0C1BB25B0007EE903AAF
:104C7000F8EEE77ACDED1E7A35E0AE4BD3F89431FD
:104C80001B0C1BB25B0007EE903AF8EEE77ACDED15
:104C90001E7A28E0A74BD3F884311B0CADF8843082
:104CA0009DF86D30002B0FD1A24BD3F88C311B0C2B
:104CB0001BB21A4613465B00134407EE903AF8EE17
:104CC000E77ACDED1E7A0EE09A4BD3F894311B0CA7
:104CD0001BB21A4613465B00134407EE903AF8EEF7
:104CE000E77ACDED1E7ABDF8842049F6FF731340B4
:104CF0002393239B9B041D93239B03F40043002BCE
:104D000003D01D9B43F000431D93059A229B1B017A
:104D1000134448331B689B0803F007030133012247
:104D200002FA03F30E930E9B022B21D19DF86D30F6
:104D3000002B0ED17F4BD3F88C311BB207EE903A8B
:104D4000F8EEE77A9DED1E7A77EE277ACDED1E7AA2
:104D500050E0784BD3F894311BB207EE903AF8EE5E
:104D6000E77A9DED1E7A77EE277ACDED1E7A41E047
:104D70009DF86D30002B0ED16E4BD3F890311BB2E5
:104D800007EE903AB8EEE77ADDED1E7A77EE677AB5
:104D9000CDED1E7A11E0674BD3F898311BB207EEC8
:104DA000903AB8EEE77ADDED1E7A77EE677A9DED00
:104DB0001E7A77EE277ACDED1E7A0E9B07EE903A9B
:104DC000F8EEE77AF0EE006A87EEA67ADDED1E6A6D
:104DD000C6EE877ACDED1E7A564BD3F888311BB2DA
:104DE00007EE903AF8EEE77A9DED1E7A77EE277A95
:104DF000CDED1E7A0399229A13469B0013449B0023
:104E00000B4404331B78002B1ED10399229A1346BE
:104E10009B0013449B000B4404331B78184600F09E
:104E20008BFC07EE900AF8EE677ADFED476A87EEB3
:104E3000A67AF7EE046AC6EE877A9DED1E7A67EED3
:104E4000277ACDED1E7A1AE00399229A13469B0029
:104E500013449B000B440C331B6807EE903AF8EEAA
:104E6000677ADFED396A87EEA67AF7EE046AC6EE56
:104E7000877A9DED1E7A67EE277ACDED1E7ADDEDFD
:104E80001E7AB1EE007A27EE877A0E9B07EE903AF3
:104E9000F8EEE76A9FED286AC6EE267ADFED276A0C
:104EA00067EEA67A77EE277ACDED1E7A1D9BB3F1D9
:104EB000004F17D0BDF8843007EE903AF8EEE77A4D
:104EC000DFED1F6A87EEA67ADDED1E7ADFED1D6A43
:104ED00077EEA67A67EE277A9FED1A7A77EEC77A91
:104EE000CDED1E7ADDED1E7AF5EEC07AF1EE10FA08
:104EF0000ADDDDED1E7AF1EE677AB6EE007A77EE26
:104F0000C77AFDEEE77A07E0B6EE007ADDED1E7AAD
:104F100077EE677AFDEEE77ACDED0D7A0D9BB3F56E
:104F2000003F13DB1D9B6FEA53436FEA43431D931E
:104F30001BE000BF0080E00F000080430000204421
:104F4000000000470000004900007A440D9B13F563
:104F5000003F04DA1D9B43F400331D9305E00D9BD5
:104F6000C3F311031D9A13431D93059A229B053326
:104F70001B0113441D9A1A605AE10399229A1346A1
:104F80009B0013449B000B4404331B78184600F02D
:104F9000D3FB07EE900AB8EE677A5FED156AC7EEAD
:104FA000267ACDED1C7A059A229B1B0113444833C7
:104FB0001B685B09DBB203F007038DF85B309DF8DB
:104FC0005B309B0090336B44743BD3ED007AFCEE76
:104FD000E77A17EE903A5C2B02D1A44B209317E0AE
:104FE0009DF85B309B0090336B44743BD3ED006ABB
:104FF0009DF85B309B0090336B44743BD3ED007A9B
:10500000B7EE007A37EE877AC6EE877ACDED207A52
:10501000BDF8843007EE903AB8EE677ADFED946A17
:10502000C7EE267A9DED207A67EE277ACDED157AC8
:10503000DDED157A9FED8E7A67EE877AF5EEC07A10
:10504000F1EE10FA0CD5DDED157A9FED897A67EE59
:10505000877AB6EE007A77EEC77AFDEEE77A0BE054
:10506000DDED157A9FED827A67EE877AB6EE007AEB
:1050700077EE877AFDEEE77ACDED147A7D4A229BB2
:1050800005331B0113441B687A4A229B05331B011D
:10509000134400221A60149B03F40043002B0ED02B
:1050A000744A229B05331B0113441B68714943F06A
:1050B0000042229B05331B010B441A600BE06D4A32
:1050C0006C49229B05331B0113441A68229B05334C
:1050D0001B010B441A60674A229B05331B011344D2
:1050E0001A68149B9904644B0B4062491A43229B33
:1050F00005331B010B441A60604BD3F88831002341
:1051000013935E4BD3F888311BB207EE903AF8EE5A
:10511000E77ACDED127A9DF85B30012202FA03F3B3
:10512000139A92FBF3F307EE903AF8EEE77A9DEDCF
:10513000127A77EE277ACDED117AF7EE046A9DEDBB
:105140001C7AC6EE877A9DED117A67EE277ACDED4F
:10515000117A9DF85B309B0090336B44743BD3ED28
:10516000007A9FED477AC7EE276A9DF85B309B0077
:1051700090336B44743BD3ED007AB7EE007A77EE50
:10518000877A86EEA77ADDED117AF1EE006A67EE96
:10519000A67A77EE277A9FED3B7A77EE877ACDED88
:1051A000107ABDF8843007EE903AB8EEE77ADFED7A
:1051B000306AC7EE267AB1EE677ADDED107A67EED7
:1051C000277A9FED307A77EE877ACDED107ADDED94
:1051D000107AF5EEC07AF1EE10FA08D5DDED107A0E
:1051E000B6EE007A77EEC77AFDEEE77A07E0DDEDFE
:1051F000107AB6EE007A77EE877AFDEEE77ACDED9B
:105200000F7A1C4A229B05331B0113441A680F9B1B
:10521000C3F3110317491A43229B05331B010B44A7
:105220001A6005E040F2DF11174802F058FB00BF9A
:105230001A9BC3F309020599229B05331B010B44FA
:1052400004331A60229B01332293059B094A93423F
:1052500001D1022200E00022229B9A423FF6C6AB17
:10526000059802F037FD00BF25B030BDE71B753F44
:1052700000000047004000590000FC7F0080E00F64
:105280000000804800000049B485000800B585B0E2
:10529000039002910192039B2B4A934204D040F267
:1052A00052212A4802F01BFB0398FFF7F5FA029BF4
:1052B0001B7803F00703029A5278002A01D00822D3
:1052C00000E000221A43029B9B781B0103F070034D
:1052D0001343029AD278002A02D04FF4807200E081
:1052E00000221A43039B1A67039BDB6A23F48B3368
:1052F00023F48073029A1279120202F4E0621A43D4
:10530000029B5B791B0303F480531343029A927947
:10531000002A02D04FF4803200E000221A43039B9F
:10532000DA620199039800F013F8039802F0D2FCB6
:10533000029BDB79002B03D00121039802F0C1FC12
:1053400000BF05B05DF804FB00400059B4850008BB
:1053500000B585B001900091019B1E4A934204D094
:1053600040F28A211C4802F0BAFA019B5B6803F004
:105370000103002B14BF012300238DF80F30019887
:1053800002F0A8FC009B1B781A46009B5B781B026E
:105390009BB21A43009B9B781B0403F48033134396
:1053A000009AD278002A02D04FF4003200E00022A6
:1053B0001A43019BC3F898209DF80F3083F0010336
:1053C000DBB2002B02D00198FFF766FA00BF05B0F0
:1053D0005DF804FB00400059B485000800B585B0B5
:1053E0000190019B524A934204D040F20731514848
:1053F00002F075FA019802F06DFC019B4E4ADA60EA
:1054000000BF019B5A694D4B1340002BF9D1019B02
:1054100000229A61019B0022C3F8982000BF019BE3
:105420005B6903F44013002BF9D102E0019802F00C
:1054300012FC019B5B6903F48073002BF6D1019B86
:105440009B6F002BF2D102E0019802F012FC019B4D
:105450005B6903F40073002BF6D1019BD3F888300D
:10546000002BF1D1019802F0FDFB019802F009FC3C
:105470000198FFF711FA019B00229A60019B00221C
:105480001A61019B0022DA62019B00221A62019BD1
:1054900030221A67019B3022C3F880200023039337
:1054A00019E0019A039B1B011344483342F2600246
:1054B0001A60019A039B05331B011344204A1A60AA
:1054C000019A039B05331B011344043300221A6025
:1054D000039B01330393019B154A934201D102229E
:1054E00000E00022039B9A42DBD80023039308E0EC
:1054F000019B039A2832002143F82210039B0133B9
:105500000393019B0A4A934201D1102200E000223A
:10551000039B9A42ECD80B49019802F0BAFB094967
:10552000019802F0C2FB00BF05B05DF804FB00BFAC
:1055300000400059B485000812000200520001002A
:1055400000C002808F330F8000B587B001900091BA
:10555000019B214A934204D040F25D311F4802F082
:10556000BEF9009B002B18D12A20FCF771FB00909C
:10557000009B002B01D101230093009B184A93420A
:105580000BD9154B9B681B0F03F007030593059B75
:105590000133009AB2FBF3F30093009B03F57423ED
:1055A00003F23F230093009B0E4AA2FB03239B0CB4
:1055B0000093009B013B0093009B04937F23039384
:1055C000039A049B934228BF13460093009BDBB2CF
:1055D000184607B05DF804FB00400059B485000888
:1055E000005A620283DE1B4300B589B0039002912A
:1055F0000192039B1C4A934204D04FF466711B48EE
:1056000002F06DF9029B002B04D140F2993117484A
:1056100002F065F9029B0693154B0593059A069BCC
:10562000934228BF13460293019B002B03D12A20EB
:10563000FCF70EFB0190019A029B13445A1E029B39
:10564000B2FBF3F30793079B002B02D0079B013BB0
:105650000793079B032B01D903230793079BDBB217
:10566000184609B05DF804FB00400059B4850008F5
:10567000005A620200B589B00390029101928DF840
:105680000330039B284A934204D040F2D23127488A
:1056900002F025F9029B002B04D140F2D3312348BC
:1056A00002F01DF99DF80330002B01D1204A00E0E3
:1056B000204A029B9A4207D29DF80330002B01D169
:1056C0001B4B00E01B4B0293019B002B04D12A20B3
:1056D000FCF7BEFA069001E0019B06939DF8283086
:1056E0000133069AB2FBF3F30693069A029B134426
:1056F0005A1E029BB2FBF3F30793079B002B02D0C9
:10570000079B013B0793079B059340F2FF330493EC
:10571000049A059B934228BF13460793079B9BB2AD
:10572000184609B05DF804FB00400059B485000834
:1057300080969800404B4C0000B585B003468DF82C
:1057400007300023039302AB184600F0E9F89DF8F8
:105750000730042B20D801A252F823F0715700081B
:1057600079570008815700088957000891570008A9
:1057700040F2BA43039315E040F2E243039311E091
:1057800040F6C41303930DE040F6B833039309E0E9
:105790004FF41663039305E040F27F41044802F0A2
:1057A0009EF800BF039B184605B05DF804FB00BFE0
:1057B000B485000800B583B001900B468DF8033026
:1057C000019BB3F1B24F04D040F209110A4802F034
:1057D00086F86021019802F0D6FA9DF80330002B7C
:1057E00003D0019B01221A6102E0019B02221A618F
:1057F00000BF03B05DF804FB1C86000800B585B04F
:105800000190009100230393019BB3F1B24F04D0A8
:105810004FF4B3713E4802F062F8019B03F58053E8
:105820001A4601235360009B1B7883F00103DBB20F
:10583000002B0CD0019B5B6903F00103002B06D009
:105840004021019802F09FFA019B02221A61009BFD
:105850005B78002B03D0039B43F480530393009B9E
:105860009B78002B03D1009BDB68002B0BD0039BA4
:1058700043F400730393009BDB68002B03D0009B71
:10588000DA68019B5A62009BDB78002B03D0039BF4
:1058900043F480730393009B1B79002B03D0039B7D
:1058A00043F040030393009B5B79002B03D0039BE1
:1058B00043F080030393009B9B799B001A46039B54
:1058C00013430393009BDB791B011A46039B13438D
:1058D0000393009B1B7A1A46039B13430393019B7C
:1058E000039ADA60009B1B78002B0CD0019B5B694C
:1058F00003F00103002B06D12021019802F043FAA6
:10590000019B01221A6100BF05B05DF804FB00BFD6
:105910001C860008014B9B691846704700C0075061
:1059200000B585B00190114B03F580531A464FF432
:1059300080335366FFF7EEFF0390039B9B09DBB2B6
:1059400003F03F03DAB2019B9A70039BDBB203F0D2
:105950003F03DAB2019B5A70039B1B0BDAB2019B27
:105960001A7000BF05B05DF804FB00BF0080005056
:1059700082B00190019B0E4A93420FD0019B0D4AC9
:1059800093420BD0019B0C4A934207D0019B0B4AD8
:10599000934203D0019B0A4A934201D1012300E0C4
:1059A000002303F00103DBB2184602B0704700BFCA
:1059B0000080045000C00450000005500040055015
:1059C0000080055000B587B00390029101928DF8D8
:1059D0000330039B244A93421AD0039B234A9342E9
:1059E00014D0039B224A93420ED0039B214A934238
:1059F00008D0039B204A934201D1042309E04FF0D1
:105A0000FF3306E0032304E0022302E0012300E069
:105A100000230593194B0493059BB3F1FF3F03D17A
:105A20008221174801F05BFF9DF80330002B0BD05B
:105A30000499059A13465B0013445B00029A1344D1
:105A4000019A41F823200BE0019B18020499059A62
:105A500013465B0013445B00029A134441F8230091
:105A600000BF07B05DF804FB0080045000C0045084
:105A7000000005500040055000800550488103504B
:105A8000C086000800B585B0019000910198FFF72D
:105A90006FFF0346002B03D1A521454801F01FFFEE
:105AA00000230393019802F098F9019B03F500533A
:105AB0001A460123136300BF019B1B6B03F0020313
:105AC000002BF9D1009B5B889A04009B1B791B0279
:105AD0001343009A527A1343009A5278002A01D055
